{
  "contractName": "DistributorRole",
  "abi": [
    {
      "inputs": [],
      "stateMutability": "nonpayable",
      "type": "constructor"
    },
    {
      "anonymous": false,
      "inputs": [
        {
          "indexed": true,
          "internalType": "address",
          "name": "account",
          "type": "address"
        }
      ],
      "name": "DistributorAdded",
      "type": "event"
    },
    {
      "anonymous": false,
      "inputs": [
        {
          "indexed": true,
          "internalType": "address",
          "name": "account",
          "type": "address"
        }
      ],
      "name": "DistributorRemoved",
      "type": "event"
    },
    {
      "inputs": [
        {
          "internalType": "address",
          "name": "account",
          "type": "address"
        }
      ],
      "name": "isDistributor",
      "outputs": [
        {
          "internalType": "bool",
          "name": "",
          "type": "bool"
        }
      ],
      "stateMutability": "view",
      "type": "function"
    },
    {
      "inputs": [
        {
          "internalType": "address",
          "name": "account",
          "type": "address"
        }
      ],
      "name": "addDistributor",
      "outputs": [],
      "stateMutability": "nonpayable",
      "type": "function"
    },
    {
      "inputs": [],
      "name": "renounceDistributor",
      "outputs": [],
      "stateMutability": "nonpayable",
      "type": "function"
    }
  ],
  "bytecode": "0x608060405234801561001057600080fd5b506100203361002560201b60201c565b610350565b61003d81600061008360201b6101181790919060201c565b8073ffffffffffffffffffffffffffffffffffffffff167fddbf200aa634dc3fb81cfd68583dd1040d1c751d335e1d86b631bde3e977fea860405160405180910390a250565b600073ffffffffffffffffffffffffffffffffffffffff168173ffffffffffffffffffffffffffffffffffffffff16036100f2576040517f08c379a00000000000000000000000000000000000000000000000000000000081526004016100e9906102c4565b60405180910390fd5b61010282826101a060201b60201c565b15610142576040517f08c379a000000000000000000000000000000000000000000000000000000000815260040161013990610330565b60405180910390fd5b60018260000160008373ffffffffffffffffffffffffffffffffffffffff1673ffffffffffffffffffffffffffffffffffffffff16815260200190815260200160002060006101000a81548160ff0219169083151502179055505050565b60008073ffffffffffffffffffffffffffffffffffffffff168273ffffffffffffffffffffffffffffffffffffffff1603610210576040517f08c379a0000000000000000000000000000000000000000000000000000000008152600401610207906102c4565b60405180910390fd5b8260000160008373ffffffffffffffffffffffffffffffffffffffff1673ffffffffffffffffffffffffffffffffffffffff16815260200190815260200160002060009054906101000a900460ff16905092915050565b600082825260208201905092915050565b7f4163636f756e742073686f75646e742062652030000000000000000000000000600082015250565b60006102ae601483610267565b91506102b982610278565b602082019050919050565b600060208201905081810360008301526102dd816102a1565b9050919050565b7f4163636f756e742073686f756c64206e6f7420686176652074686520726f6c65600082015250565b600061031a602083610267565b9150610325826102e4565b602082019050919050565b600060208201905081810360008301526103498161030d565b9050919050565b61077d8061035f6000396000f3fe608060405234801561001057600080fd5b50600436106100415760003560e01c8063644241db146100465780637250e224146100505780638f0c86fa1461006c575b600080fd5b61004e61009c565b005b61006a60048036038101906100659190610523565b6100a7565b005b61008660048036038101906100819190610523565b6100fb565b604051610093919061056b565b60405180910390f35b6100a53361022f565b565b6100b0336100fb565b6100ef576040517f08c379a00000000000000000000000000000000000000000000000000000000081526004016100e6906105e3565b60405180910390fd5b6100f881610289565b50565b60006101118260006102e390919063ffffffff16565b9050919050565b600073ffffffffffffffffffffffffffffffffffffffff168173ffffffffffffffffffffffffffffffffffffffff1603610187576040517f08c379a000000000000000000000000000000000000000000000000000000000815260040161017e9061064f565b60405180910390fd5b61019182826102e3565b156101d1576040517f08c379a00000000000000000000000000000000000000000000000000000000081526004016101c8906106bb565b60405180910390fd5b60018260000160008373ffffffffffffffffffffffffffffffffffffffff1673ffffffffffffffffffffffffffffffffffffffff16815260200190815260200160002060006101000a81548160ff0219169083151502179055505050565b6102438160006103aa90919063ffffffff16565b8073ffffffffffffffffffffffffffffffffffffffff167f126174f6cf49c81cdb4a9214c6b8f037bef55b4ec31e4fc776cea2a1c8a88d5960405160405180910390a250565b61029d81600061011890919063ffffffff16565b8073ffffffffffffffffffffffffffffffffffffffff167fddbf200aa634dc3fb81cfd68583dd1040d1c751d335e1d86b631bde3e977fea860405160405180910390a250565b60008073ffffffffffffffffffffffffffffffffffffffff168273ffffffffffffffffffffffffffffffffffffffff1603610353576040517f08c379a000000000000000000000000000000000000000000000000000000000815260040161034a9061064f565b60405180910390fd5b8260000160008373ffffffffffffffffffffffffffffffffffffffff1673ffffffffffffffffffffffffffffffffffffffff16815260200190815260200160002060009054906101000a900460ff16905092915050565b600073ffffffffffffffffffffffffffffffffffffffff168173ffffffffffffffffffffffffffffffffffffffff1603610419576040517f08c379a00000000000000000000000000000000000000000000000000000000081526004016104109061064f565b60405180910390fd5b61042382826102e3565b610462576040517f08c379a000000000000000000000000000000000000000000000000000000000815260040161045990610727565b60405180910390fd5b60008260000160008373ffffffffffffffffffffffffffffffffffffffff1673ffffffffffffffffffffffffffffffffffffffff16815260200190815260200160002060006101000a81548160ff0219169083151502179055505050565b600080fd5b600073ffffffffffffffffffffffffffffffffffffffff82169050919050565b60006104f0826104c5565b9050919050565b610500816104e5565b811461050b57600080fd5b50565b60008135905061051d816104f7565b92915050565b600060208284031215610539576105386104c0565b5b60006105478482850161050e565b91505092915050565b60008115159050919050565b61056581610550565b82525050565b6000602082019050610580600083018461055c565b92915050565b600082825260208201905092915050565b7f4163636f756e742073686f756c64206265204469737472696275746f72000000600082015250565b60006105cd601d83610586565b91506105d882610597565b602082019050919050565b600060208201905081810360008301526105fc816105c0565b9050919050565b7f4163636f756e742073686f75646e742062652030000000000000000000000000600082015250565b6000610639601483610586565b915061064482610603565b602082019050919050565b600060208201905081810360008301526106688161062c565b9050919050565b7f4163636f756e742073686f756c64206e6f7420686176652074686520726f6c65600082015250565b60006106a5602083610586565b91506106b08261066f565b602082019050919050565b600060208201905081810360008301526106d481610698565b9050919050565b7f4163636f756e742073686f756c6420686176652074686520726f6c6500000000600082015250565b6000610711601c83610586565b915061071c826106db565b602082019050919050565b6000602082019050818103600083015261074081610704565b905091905056fea26469706673582212205ec56eb80bb7e5f1a5d35edd2c6b4860a46a8837af67ef30342e5f5c33dd5aae64736f6c634300080f0033",
  "immutableReferences": {},
  "source": "// SPDX-License-Identifier: MIT\npragma solidity ^0.8.15;\n\n// Import the library 'Roles'\nimport \"./Roles.sol\";\n\n// Define a contract 'DistributorRole' to manage this role - add, remove, check\ncontract DistributorRole {\n    using Roles for Roles.Role;\n\n    // Define a struct 'distributors' by inheriting from 'Roles' library, struct Role\n    Roles.Role private distributors;\n\n    // Define 2 events, one for Adding, and other for Removing\n    event DistributorAdded(address indexed account);\n    event DistributorRemoved(address indexed account);\n\n    // In the constructor make the address that deploys this contract the 1st distributor\n    constructor() {\n        _addDistributor(msg.sender);\n    }\n\n    // Define a modifier that checks to see if msg.sender has the appropriate role\n    modifier onlyDistributor() {\n        require(isDistributor(msg.sender), \"Account should be Distributor\");\n        _;\n    }\n\n    // Define a function 'isDistributor' to check this role\n    function isDistributor(address account) public view returns (bool) {\n        return distributors.has(account);\n    }\n\n    // Define a function 'addDistributor' that adds this role\n    function addDistributor(address account) public onlyDistributor {\n        _addDistributor(account);\n    }\n\n    // Define a function 'renounceDistributor' to renounce this role\n    function renounceDistributor() public {\n        _removeDistributor(msg.sender);\n    }\n\n    // Define an internal function '_addDistributor' to add this role, called by 'addDistributor'\n    function _addDistributor(address account) internal {\n        distributors.add(account);\n        emit DistributorAdded(account);\n    }\n\n    // Define an internal function '_removeDistributor' to remove this role, called by 'removeDistributor'\n    function _removeDistributor(address account) internal {\n        distributors.remove(account);\n        emit DistributorRemoved(account);\n    }\n}\n",
  "sourcePath": "/home/rafamessias/Documents/udacity/Ethereum/dapp-sc-project/truffle/contracts/coffeeAccessControl/DistributorRole.sol",
  "compiler": {
    "name": "solc",
    "version": "0.8.15+commit.e14f2714.Emscripten.clang"
  },
  "schemaVersion": "3.4.8",
  "updatedAt": "2022-08-23T00:45:26.770Z",
  "devdoc": {
    "kind": "dev",
    "methods": {},
    "version": 1
  },
  "userdoc": {
    "kind": "user",
    "methods": {},
    "version": 1
  }
}