{
  "contractName": "Ownable",
  "abi": [
    {
      "inputs": [],
      "stateMutability": "nonpayable",
      "type": "constructor"
    },
    {
      "anonymous": false,
      "inputs": [
        {
          "indexed": true,
          "internalType": "address",
          "name": "account",
          "type": "address"
        }
      ],
      "name": "ConsumerAdded",
      "type": "event"
    },
    {
      "anonymous": false,
      "inputs": [
        {
          "indexed": true,
          "internalType": "address",
          "name": "account",
          "type": "address"
        }
      ],
      "name": "ConsumerRemoved",
      "type": "event"
    },
    {
      "anonymous": false,
      "inputs": [
        {
          "indexed": true,
          "internalType": "address",
          "name": "account",
          "type": "address"
        }
      ],
      "name": "DistributorAdded",
      "type": "event"
    },
    {
      "anonymous": false,
      "inputs": [
        {
          "indexed": true,
          "internalType": "address",
          "name": "account",
          "type": "address"
        }
      ],
      "name": "DistributorRemoved",
      "type": "event"
    },
    {
      "anonymous": false,
      "inputs": [
        {
          "indexed": true,
          "internalType": "address",
          "name": "account",
          "type": "address"
        }
      ],
      "name": "FarmerAdded",
      "type": "event"
    },
    {
      "anonymous": false,
      "inputs": [
        {
          "indexed": true,
          "internalType": "address",
          "name": "account",
          "type": "address"
        }
      ],
      "name": "FarmerRemoved",
      "type": "event"
    },
    {
      "anonymous": false,
      "inputs": [
        {
          "indexed": false,
          "internalType": "uint256",
          "name": "upc",
          "type": "uint256"
        }
      ],
      "name": "ForSale",
      "type": "event"
    },
    {
      "anonymous": false,
      "inputs": [
        {
          "indexed": false,
          "internalType": "uint256",
          "name": "upc",
          "type": "uint256"
        }
      ],
      "name": "Harvested",
      "type": "event"
    },
    {
      "anonymous": false,
      "inputs": [
        {
          "indexed": false,
          "internalType": "uint256",
          "name": "upc",
          "type": "uint256"
        }
      ],
      "name": "Packed",
      "type": "event"
    },
    {
      "anonymous": false,
      "inputs": [
        {
          "indexed": false,
          "internalType": "uint256",
          "name": "upc",
          "type": "uint256"
        }
      ],
      "name": "Processed",
      "type": "event"
    },
    {
      "anonymous": false,
      "inputs": [
        {
          "indexed": false,
          "internalType": "uint256",
          "name": "upc",
          "type": "uint256"
        }
      ],
      "name": "Purchased",
      "type": "event"
    },
    {
      "anonymous": false,
      "inputs": [
        {
          "indexed": false,
          "internalType": "uint256",
          "name": "upc",
          "type": "uint256"
        }
      ],
      "name": "Received",
      "type": "event"
    },
    {
      "anonymous": false,
      "inputs": [
        {
          "indexed": true,
          "internalType": "address",
          "name": "account",
          "type": "address"
        }
      ],
      "name": "RetailerAdded",
      "type": "event"
    },
    {
      "anonymous": false,
      "inputs": [
        {
          "indexed": true,
          "internalType": "address",
          "name": "account",
          "type": "address"
        }
      ],
      "name": "RetailerRemoved",
      "type": "event"
    },
    {
      "anonymous": false,
      "inputs": [
        {
          "indexed": false,
          "internalType": "uint256",
          "name": "upc",
          "type": "uint256"
        }
      ],
      "name": "Shipped",
      "type": "event"
    },
    {
      "anonymous": false,
      "inputs": [
        {
          "indexed": false,
          "internalType": "uint256",
          "name": "upc",
          "type": "uint256"
        }
      ],
      "name": "Sold",
      "type": "event"
    },
    {
      "anonymous": false,
      "inputs": [
        {
          "indexed": true,
          "internalType": "address",
          "name": "oldOwner",
          "type": "address"
        },
        {
          "indexed": true,
          "internalType": "address",
          "name": "newOwner",
          "type": "address"
        }
      ],
      "name": "TransferOwnership",
      "type": "event"
    },
    {
      "inputs": [
        {
          "internalType": "address",
          "name": "account",
          "type": "address"
        }
      ],
      "name": "addConsumer",
      "outputs": [],
      "stateMutability": "nonpayable",
      "type": "function"
    },
    {
      "inputs": [
        {
          "internalType": "address",
          "name": "account",
          "type": "address"
        }
      ],
      "name": "addDistributor",
      "outputs": [],
      "stateMutability": "nonpayable",
      "type": "function"
    },
    {
      "inputs": [
        {
          "internalType": "address",
          "name": "account",
          "type": "address"
        }
      ],
      "name": "addFarmer",
      "outputs": [],
      "stateMutability": "nonpayable",
      "type": "function"
    },
    {
      "inputs": [
        {
          "internalType": "address",
          "name": "account",
          "type": "address"
        }
      ],
      "name": "addRetailer",
      "outputs": [],
      "stateMutability": "nonpayable",
      "type": "function"
    },
    {
      "inputs": [
        {
          "internalType": "uint256",
          "name": "_upc",
          "type": "uint256"
        }
      ],
      "name": "buyItem",
      "outputs": [],
      "stateMutability": "payable",
      "type": "function",
      "payable": true
    },
    {
      "inputs": [
        {
          "internalType": "uint256",
          "name": "_upc",
          "type": "uint256"
        }
      ],
      "name": "fetchItemBufferOne",
      "outputs": [
        {
          "internalType": "uint256",
          "name": "itemSKU",
          "type": "uint256"
        },
        {
          "internalType": "uint256",
          "name": "itemUPC",
          "type": "uint256"
        },
        {
          "internalType": "address",
          "name": "ownerID",
          "type": "address"
        },
        {
          "internalType": "address",
          "name": "originFarmerID",
          "type": "address"
        },
        {
          "internalType": "string",
          "name": "originFarmName",
          "type": "string"
        },
        {
          "internalType": "string",
          "name": "originFarmInformation",
          "type": "string"
        },
        {
          "internalType": "string",
          "name": "originFarmLatitude",
          "type": "string"
        },
        {
          "internalType": "string",
          "name": "originFarmLongitude",
          "type": "string"
        }
      ],
      "stateMutability": "view",
      "type": "function",
      "constant": true
    },
    {
      "inputs": [
        {
          "internalType": "uint256",
          "name": "_upc",
          "type": "uint256"
        }
      ],
      "name": "fetchItemBufferTwo",
      "outputs": [
        {
          "internalType": "uint256",
          "name": "itemSKU",
          "type": "uint256"
        },
        {
          "internalType": "uint256",
          "name": "itemUPC",
          "type": "uint256"
        },
        {
          "internalType": "uint256",
          "name": "productID",
          "type": "uint256"
        },
        {
          "internalType": "string",
          "name": "productNotes",
          "type": "string"
        },
        {
          "internalType": "uint256",
          "name": "productPrice",
          "type": "uint256"
        },
        {
          "internalType": "uint256",
          "name": "itemState",
          "type": "uint256"
        },
        {
          "internalType": "address",
          "name": "distributorID",
          "type": "address"
        },
        {
          "internalType": "address",
          "name": "retailerID",
          "type": "address"
        },
        {
          "internalType": "address",
          "name": "consumerID",
          "type": "address"
        }
      ],
      "stateMutability": "view",
      "type": "function",
      "constant": true
    },
    {
      "inputs": [
        {
          "internalType": "uint256",
          "name": "_upc",
          "type": "uint256"
        },
        {
          "internalType": "address",
          "name": "_ownerID",
          "type": "address"
        },
        {
          "internalType": "address",
          "name": "_originFarmerID",
          "type": "address"
        },
        {
          "internalType": "string",
          "name": "_originFarmName",
          "type": "string"
        },
        {
          "internalType": "string",
          "name": "_originFarmInformation",
          "type": "string"
        },
        {
          "internalType": "string",
          "name": "_originFarmLatitude",
          "type": "string"
        },
        {
          "internalType": "string",
          "name": "_originFarmLongitude",
          "type": "string"
        },
        {
          "internalType": "string",
          "name": "_productNotes",
          "type": "string"
        }
      ],
      "name": "harvestItem",
      "outputs": [],
      "stateMutability": "nonpayable",
      "type": "function"
    },
    {
      "inputs": [
        {
          "internalType": "address",
          "name": "account",
          "type": "address"
        }
      ],
      "name": "isConsumer",
      "outputs": [
        {
          "internalType": "bool",
          "name": "",
          "type": "bool"
        }
      ],
      "stateMutability": "view",
      "type": "function",
      "constant": true
    },
    {
      "inputs": [
        {
          "internalType": "address",
          "name": "account",
          "type": "address"
        }
      ],
      "name": "isDistributor",
      "outputs": [
        {
          "internalType": "bool",
          "name": "",
          "type": "bool"
        }
      ],
      "stateMutability": "view",
      "type": "function",
      "constant": true
    },
    {
      "inputs": [
        {
          "internalType": "address",
          "name": "account",
          "type": "address"
        }
      ],
      "name": "isFarmer",
      "outputs": [
        {
          "internalType": "bool",
          "name": "",
          "type": "bool"
        }
      ],
      "stateMutability": "view",
      "type": "function",
      "constant": true
    },
    {
      "inputs": [
        {
          "internalType": "address",
          "name": "account",
          "type": "address"
        }
      ],
      "name": "isRetailer",
      "outputs": [
        {
          "internalType": "bool",
          "name": "",
          "type": "bool"
        }
      ],
      "stateMutability": "view",
      "type": "function",
      "constant": true
    },
    {
      "inputs": [],
      "name": "kill",
      "outputs": [],
      "stateMutability": "nonpayable",
      "type": "function"
    },
    {
      "inputs": [],
      "name": "origOwner",
      "outputs": [
        {
          "internalType": "address",
          "name": "",
          "type": "address"
        }
      ],
      "stateMutability": "view",
      "type": "function",
      "constant": true
    },
    {
      "inputs": [
        {
          "internalType": "uint256",
          "name": "_upc",
          "type": "uint256"
        }
      ],
      "name": "packItem",
      "outputs": [],
      "stateMutability": "nonpayable",
      "type": "function"
    },
    {
      "inputs": [
        {
          "internalType": "uint256",
          "name": "_upc",
          "type": "uint256"
        }
      ],
      "name": "processItem",
      "outputs": [],
      "stateMutability": "nonpayable",
      "type": "function"
    },
    {
      "inputs": [
        {
          "internalType": "uint256",
          "name": "_upc",
          "type": "uint256"
        }
      ],
      "name": "purchaseItem",
      "outputs": [],
      "stateMutability": "nonpayable",
      "type": "function"
    },
    {
      "inputs": [
        {
          "internalType": "uint256",
          "name": "_upc",
          "type": "uint256"
        }
      ],
      "name": "receiveItem",
      "outputs": [],
      "stateMutability": "nonpayable",
      "type": "function"
    },
    {
      "inputs": [],
      "name": "renounceConsumer",
      "outputs": [],
      "stateMutability": "nonpayable",
      "type": "function"
    },
    {
      "inputs": [],
      "name": "renounceDistributor",
      "outputs": [],
      "stateMutability": "nonpayable",
      "type": "function"
    },
    {
      "inputs": [],
      "name": "renounceFarmer",
      "outputs": [],
      "stateMutability": "nonpayable",
      "type": "function"
    },
    {
      "inputs": [],
      "name": "renounceRetailer",
      "outputs": [],
      "stateMutability": "nonpayable",
      "type": "function"
    },
    {
      "inputs": [
        {
          "internalType": "uint256",
          "name": "_upc",
          "type": "uint256"
        },
        {
          "internalType": "uint256",
          "name": "_price",
          "type": "uint256"
        }
      ],
      "name": "sellItem",
      "outputs": [],
      "stateMutability": "nonpayable",
      "type": "function"
    },
    {
      "inputs": [
        {
          "internalType": "uint256",
          "name": "_upc",
          "type": "uint256"
        }
      ],
      "name": "shipItem",
      "outputs": [],
      "stateMutability": "nonpayable",
      "type": "function"
    },
    {
      "inputs": [],
      "name": "isOwner",
      "outputs": [
        {
          "internalType": "bool",
          "name": "",
          "type": "bool"
        }
      ],
      "stateMutability": "view",
      "type": "function",
      "constant": true
    },
    {
      "inputs": [],
      "name": "renounceOwnership",
      "outputs": [],
      "stateMutability": "nonpayable",
      "type": "function"
    },
    {
      "inputs": [
        {
          "internalType": "address",
          "name": "newOwner",
          "type": "address"
        }
      ],
      "name": "transferOwnership",
      "outputs": [],
      "stateMutability": "nonpayable",
      "type": "function"
    }
  ],
  "bytecode": "0x60806040523480156200001157600080fd5b5062000023336200016b60201b60201c565b6200003433620001cc60201b60201c565b62000045336200022d60201b60201c565b62000056336200028e60201b60201c565b33600460006101000a81548173ffffffffffffffffffffffffffffffffffffffff021916908373ffffffffffffffffffffffffffffffffffffffff1602179055506001600681905550600160058190555033600960006101000a81548173ffffffffffffffffffffffffffffffffffffffff021916908373ffffffffffffffffffffffffffffffffffffffff160217905550600960009054906101000a900473ffffffffffffffffffffffffffffffffffffffff1673ffffffffffffffffffffffffffffffffffffffff16600073ffffffffffffffffffffffffffffffffffffffff167f5c486528ec3e3f0ea91181cff8116f02bfa350e03b8b6f12e00765adbb5af85c60405160405180910390a3620005d3565b62000186816000620002ef60201b62001f261790919060201c565b8073ffffffffffffffffffffffffffffffffffffffff167f28b26e7a3d20aedbc5f8f2ebf7da671c0491723a2b78f47a097b0e46dee0714260405160405180910390a250565b620001e7816001620002ef60201b62001f261790919060201c565b8073ffffffffffffffffffffffffffffffffffffffff167fddbf200aa634dc3fb81cfd68583dd1040d1c751d335e1d86b631bde3e977fea860405160405180910390a250565b62000248816002620002ef60201b62001f261790919060201c565b8073ffffffffffffffffffffffffffffffffffffffff167f2e0ded4123377a3c2bc9a26f1717655a129e2f20752924d42e730ec89c83dbd060405160405180910390a250565b620002a9816003620002ef60201b62001f261790919060201c565b8073ffffffffffffffffffffffffffffffffffffffff167f71ae26cad02663e3d92efd6ec56031a80d74a20c0ab4183faa8bf262261c9baa60405160405180910390a250565b600073ffffffffffffffffffffffffffffffffffffffff168173ffffffffffffffffffffffffffffffffffffffff160362000361576040517f08c379a000000000000000000000000000000000000000000000000000000000815260040162000358906200053f565b60405180910390fd5b6200037382826200041460201b60201c565b15620003b6576040517f08c379a0000000000000000000000000000000000000000000000000000000008152600401620003ad90620005b1565b60405180910390fd5b60018260000160008373ffffffffffffffffffffffffffffffffffffffff1673ffffffffffffffffffffffffffffffffffffffff16815260200190815260200160002060006101000a81548160ff0219169083151502179055505050565b60008073ffffffffffffffffffffffffffffffffffffffff168273ffffffffffffffffffffffffffffffffffffffff160362000487576040517f08c379a00000000000000000000000000000000000000000000000000000000081526004016200047e906200053f565b60405180910390fd5b8260000160008373ffffffffffffffffffffffffffffffffffffffff1673ffffffffffffffffffffffffffffffffffffffff16815260200190815260200160002060009054906101000a900460ff16905092915050565b600082825260208201905092915050565b7f4163636f756e742073686f75646e742062652030000000000000000000000000600082015250565b600062000527601483620004de565b91506200053482620004ef565b602082019050919050565b600060208201905081810360008301526200055a8162000518565b9050919050565b7f4163636f756e742073686f756c64206e6f7420686176652074686520726f6c65600082015250565b600062000599602083620004de565b9150620005a68262000561565b602082019050919050565b60006020820190508181036000830152620005cc816200058a565b9050919050565b6137b780620005e36000396000f3fe60806040526004361061019c5760003560e01c806380fc0ce4116100ec578063d38ea5bf1161008a578063f2fde38b11610064578063f2fde38b14610560578063f30fc48014610589578063f61c899a146105b2578063f68e3d09146105db5761019c565b8063d38ea5bf14610504578063db0e6a2f1461052d578063e7fb74c7146105445761019c565b80638f0c86fa116100c65780638f0c86fa146104365780638f32d59b14610473578063a26be9991461049e578063b9429069146104c75761019c565b806380fc0ce4146103b9578063834ff739146103d05780638ec4f5051461040d5761019c565b806361e6982d11610159578063715018a611610133578063715018a61461030c5780637250e2241461032357806377c459131461034c57806380c3f96d146103905761019c565b806361e6982d14610299578063644241db146102b057806366225ff9146102c75761019c565b8063112940f9146101a15780631f4f3261146101ca5780632d923561146101f357806341c0e1b51461021c57806349dae766146102335780635da09b881461025c575b600080fd5b3480156101ad57600080fd5b506101c860048036038101906101c3919061268b565b610606565b005b3480156101d657600080fd5b506101f160048036038101906101ec9190612834565b61065a565b005b3480156101ff57600080fd5b5061021a60048036038101906102159190612976565b610928565b005b34801561022857600080fd5b50610231610a91565b005b34801561023f57600080fd5b5061025a600480360381019061025591906129b6565b610b13565b005b34801561026857600080fd5b50610283600480360381019061027e919061268b565b610c60565b60405161029091906129fe565b60405180910390f35b3480156102a557600080fd5b506102ae610c7d565b005b3480156102bc57600080fd5b506102c5610c88565b005b3480156102d357600080fd5b506102ee60048036038101906102e991906129b6565b610c93565b60405161030399989796959493929190612abf565b60405180910390f35b34801561031857600080fd5b50610321610e97565b005b34801561032f57600080fd5b5061034a6004803603810190610345919061268b565b610f9f565b005b34801561035857600080fd5b50610373600480360381019061036e91906129b6565b610ff3565b604051610387989796959493929190612b53565b60405180910390f35b34801561039c57600080fd5b506103b760048036038101906103b2919061268b565b611332565b005b3480156103c557600080fd5b506103ce611386565b005b3480156103dc57600080fd5b506103f760048036038101906103f2919061268b565b611391565b60405161040491906129fe565b60405180910390f35b34801561041957600080fd5b50610434600480360381019061042f919061268b565b6113ae565b005b34801561044257600080fd5b5061045d6004803603810190610458919061268b565b611402565b60405161046a91906129fe565b60405180910390f35b34801561047f57600080fd5b5061048861141f565b60405161049591906129fe565b60405180910390f35b3480156104aa57600080fd5b506104c560048036038101906104c091906129b6565b611477565b005b3480156104d357600080fd5b506104ee60048036038101906104e9919061268b565b61166e565b6040516104fb91906129fe565b60405180910390f35b34801561051057600080fd5b5061052b600480360381019061052691906129b6565b61168b565b005b34801561053957600080fd5b50610542611881565b005b61055e600480360381019061055991906129b6565b61188c565b005b34801561056c57600080fd5b506105876004803603810190610582919061268b565b611c13565b005b34801561059557600080fd5b506105b060048036038101906105ab91906129b6565b611c66565b005b3480156105be57600080fd5b506105d960048036038101906105d491906129b6565b611db3565b005b3480156105e757600080fd5b506105f0611f00565b6040516105fd9190612bed565b60405180910390f35b61060f33611391565b61064e576040517f08c379a000000000000000000000000000000000000000000000000000000000815260040161064590612c54565b60405180910390fd5b6106578161203d565b50565b6106633361166e565b6106a2576040517f08c379a000000000000000000000000000000000000000000000000000000000815260040161069990612cc0565b60405180910390fd5b6000600760008a815260200190815260200160002060000154146106fb576040517f08c379a00000000000000000000000000000000000000000000000000000000081526004016106f290612d2c565b60405180910390fd5b600654600760008a815260200190815260200160002060000181905550600554600760008a81526020019081526020016000206001018190555086600760008a815260200190815260200160002060020160006101000a81548173ffffffffffffffffffffffffffffffffffffffff021916908373ffffffffffffffffffffffffffffffffffffffff1602179055506000600760008a8152602001908152602001600020600b0160006101000a81548160ff021916908360078111156107c4576107c3612d4c565b5b021790555085600760008a815260200190815260200160002060030160006101000a81548173ffffffffffffffffffffffffffffffffffffffff021916908373ffffffffffffffffffffffffffffffffffffffff16021790555084600760008a815260200190815260200160002060040190816108419190612f87565b5083600760008a815260200190815260200160002060050190816108659190612f87565b5082600760008a815260200190815260200160002060060190816108899190612f87565b5081600760008a815260200190815260200160002060070190816108ad9190612f87565b5080600760008a815260200190815260200160002060090190816108d19190612f87565b5060016006546108e19190613088565b6006819055507f8e55ccfc9778ff8eba1646d765cf1982537ce0f9257054a17b48aad7452501838860405161091691906130de565b60405180910390a15050505050505050565b6109313361166e565b610970576040517f08c379a000000000000000000000000000000000000000000000000000000000815260040161096790612cc0565b60405180910390fd5b816002600781111561098557610984612d4c565b5b60076000838152602001908152602001600020600b0160009054906101000a900460ff1660078111156109bb576109ba612d4c565b5b146109fb576040517f08c379a00000000000000000000000000000000000000000000000000000000081526004016109f290613145565b60405180910390fd5b8160076000858152602001908152602001600020600a0181905550600360076000858152602001908152602001600020600b0160006101000a81548160ff02191690836007811115610a5057610a4f612d4c565b5b02179055507fa96ae0fc3224ebd79eebfe54bd130cc9cb94416cddd1f2386115e00b7253246883604051610a8491906130de565b60405180910390a1505050565b610a9961141f565b610ad8576040517f08c379a0000000000000000000000000000000000000000000000000000000008152600401610acf906131b1565b60405180910390fd5b600460009054906101000a900473ffffffffffffffffffffffffffffffffffffffff1673ffffffffffffffffffffffffffffffffffffffff16ff5b610b1c3361166e565b610b5b576040517f08c379a0000000000000000000000000000000000000000000000000000000008152600401610b5290612cc0565b60405180910390fd5b8060006007811115610b7057610b6f612d4c565b5b60076000838152602001908152602001600020600b0160009054906101000a900460ff166007811115610ba657610ba5612d4c565b5b14610be6576040517f08c379a0000000000000000000000000000000000000000000000000000000008152600401610bdd9061321d565b60405180910390fd5b600160076000848152602001908152602001600020600b0160006101000a81548160ff02191690836007811115610c2057610c1f612d4c565b5b02179055507f5afe3b1bf87069693c075da5c22a98d63d1aef98a30dbbe538d0781a98b77ee582604051610c5491906130de565b60405180910390a15050565b6000610c7682600361209790919063ffffffff16565b9050919050565b610c863361215e565b565b610c91336121b8565b565b600080600060606000806000806000600760008b8152602001908152602001600020600001549850600760008b8152602001908152602001600020600101549750600760008b8152602001908152602001600020600801549650600760008b81526020019081526020016000206009018054610d0e90612daa565b80601f0160208091040260200160405190810160405280929190818152602001828054610d3a90612daa565b8015610d875780601f10610d5c57610100808354040283529160200191610d87565b820191906000526020600020905b815481529060010190602001808311610d6a57829003601f168201915b50505050509550600760008b8152602001908152602001600020600a01549450600760008b8152602001908152602001600020600b0160009054906101000a900460ff166007811115610ddd57610ddc612d4c565b5b9350600760008b8152602001908152602001600020600b0160019054906101000a900473ffffffffffffffffffffffffffffffffffffffff169250600760008b8152602001908152602001600020600c0160009054906101000a900473ffffffffffffffffffffffffffffffffffffffff169150600760008b8152602001908152602001600020600d0160009054906101000a900473ffffffffffffffffffffffffffffffffffffffff1690509193959799909294969850565b610e9f61141f565b610ede576040517f08c379a0000000000000000000000000000000000000000000000000000000008152600401610ed5906131b1565b60405180910390fd5b600073ffffffffffffffffffffffffffffffffffffffff16600960009054906101000a900473ffffffffffffffffffffffffffffffffffffffff1673ffffffffffffffffffffffffffffffffffffffff167f5c486528ec3e3f0ea91181cff8116f02bfa350e03b8b6f12e00765adbb5af85c60405160405180910390a36000600960006101000a81548173ffffffffffffffffffffffffffffffffffffffff021916908373ffffffffffffffffffffffffffffffffffffffff160217905550565b610fa833611402565b610fe7576040517f08c379a0000000000000000000000000000000000000000000000000000000008152600401610fde90613289565b60405180910390fd5b610ff081612212565b50565b600080600080606080606080600760008a8152602001908152602001600020600001549750600760008a8152602001908152602001600020600101549650600760008a815260200190815260200160002060020160009054906101000a900473ffffffffffffffffffffffffffffffffffffffff169550600760008a815260200190815260200160002060030160009054906101000a900473ffffffffffffffffffffffffffffffffffffffff169450600760008a815260200190815260200160002060040180546110c490612daa565b80601f01602080910402602001604051908101604052809291908181526020018280546110f090612daa565b801561113d5780601f106111125761010080835404028352916020019161113d565b820191906000526020600020905b81548152906001019060200180831161112057829003601f168201915b50505050509350600760008a8152602001908152602001600020600501805461116590612daa565b80601f016020809104026020016040519081016040528092919081815260200182805461119190612daa565b80156111de5780601f106111b3576101008083540402835291602001916111de565b820191906000526020600020905b8154815290600101906020018083116111c157829003601f168201915b50505050509250600760008a8152602001908152602001600020600601805461120690612daa565b80601f016020809104026020016040519081016040528092919081815260200182805461123290612daa565b801561127f5780601f106112545761010080835404028352916020019161127f565b820191906000526020600020905b81548152906001019060200180831161126257829003601f168201915b50505050509150600760008a815260200190815260200160002060070180546112a790612daa565b80601f01602080910402602001604051908101604052809291908181526020018280546112d390612daa565b80156113205780601f106112f557610100808354040283529160200191611320565b820191906000526020600020905b81548152906001019060200180831161130357829003601f168201915b50505050509050919395975091939597565b61133b3361166e565b61137a576040517f08c379a000000000000000000000000000000000000000000000000000000000815260040161137190612cc0565b60405180910390fd5b6113838161226c565b50565b61138f336122c6565b565b60006113a782600061209790919063ffffffff16565b9050919050565b6113b733610c60565b6113f6576040517f08c379a00000000000000000000000000000000000000000000000000000000081526004016113ed906132f5565b60405180910390fd5b6113ff81612320565b50565b600061141882600161209790919063ffffffff16565b9050919050565b6000600960009054906101000a900473ffffffffffffffffffffffffffffffffffffffff1673ffffffffffffffffffffffffffffffffffffffff163373ffffffffffffffffffffffffffffffffffffffff1614905090565b61148033610c60565b6114bf576040517f08c379a00000000000000000000000000000000000000000000000000000000081526004016114b6906132f5565b60405180910390fd5b80600560078111156114d4576114d3612d4c565b5b60076000838152602001908152602001600020600b0160009054906101000a900460ff16600781111561150a57611509612d4c565b5b1461154a576040517f08c379a000000000000000000000000000000000000000000000000000000000815260040161154190613361565b60405180910390fd5b336007600084815260200190815260200160002060020160006101000a81548173ffffffffffffffffffffffffffffffffffffffff021916908373ffffffffffffffffffffffffffffffffffffffff1602179055503360076000848152602001908152602001600020600c0160006101000a81548173ffffffffffffffffffffffffffffffffffffffff021916908373ffffffffffffffffffffffffffffffffffffffff160217905550600660076000848152602001908152602001600020600b0160006101000a81548160ff0219169083600781111561162e5761162d612d4c565b5b02179055507fa8142743f8f70a4c26f3691cf4ed59718381fb2f18070ec52be1f1022d8555578260405161166291906130de565b60405180910390a15050565b600061168482600261209790919063ffffffff16565b9050919050565b61169433611391565b6116d3576040517f08c379a00000000000000000000000000000000000000000000000000000000081526004016116ca90612c54565b60405180910390fd5b80600660078111156116e8576116e7612d4c565b5b60076000838152602001908152602001600020600b0160009054906101000a900460ff16600781111561171e5761171d612d4c565b5b1461175e576040517f08c379a0000000000000000000000000000000000000000000000000000000008152600401611755906133cd565b60405180910390fd5b336007600084815260200190815260200160002060020160006101000a81548173ffffffffffffffffffffffffffffffffffffffff021916908373ffffffffffffffffffffffffffffffffffffffff1602179055503360076000848152602001908152602001600020600d0160006101000a81548173ffffffffffffffffffffffffffffffffffffffff021916908373ffffffffffffffffffffffffffffffffffffffff1602179055506007806000848152602001908152602001600020600b0160006101000a81548160ff0219169083600781111561184157611840612d4c565b5b02179055507f653d56639fee6b566a5c804764e9689de38645f0b733df89a36a1b7b42173dd88260405161187591906130de565b60405180910390a15050565b61188a3361237a565b565b61189533611402565b6118d4576040517f08c379a00000000000000000000000000000000000000000000000000000000081526004016118cb90613289565b60405180910390fd5b80600360078111156118e9576118e8612d4c565b5b60076000838152602001908152602001600020600b0160009054906101000a900460ff16600781111561191f5761191e612d4c565b5b1461195f576040517f08c379a000000000000000000000000000000000000000000000000000000000815260040161195690613439565b60405180910390fd5b60076000838152602001908152602001600020600a0154803410156119b9576040517f08c379a00000000000000000000000000000000000000000000000000000000081526004016119b0906134a5565b60405180910390fd5b8260006007600086815260200190815260200160002060020160009054906101000a900473ffffffffffffffffffffffffffffffffffffffff169050336007600087815260200190815260200160002060020160006101000a81548173ffffffffffffffffffffffffffffffffffffffff021916908373ffffffffffffffffffffffffffffffffffffffff1602179055503360076000878152602001908152602001600020600b0160016101000a81548173ffffffffffffffffffffffffffffffffffffffff021916908373ffffffffffffffffffffffffffffffffffffffff160217905550600460076000878152602001908152602001600020600b0160006101000a81548160ff02191690836007811115611ad957611ad8612d4c565b5b02179055508073ffffffffffffffffffffffffffffffffffffffff166108fc349081150290604051600060405180830381858888f19350505050158015611b24573d6000803e3d6000fd5b507f92f64ca637d023f354075a4be751b169c1a8a9ccb6d33cdd0cb352054399572785604051611b5491906130de565b60405180910390a150600060076000838152602001908152602001600020600a0154905060008134611b8691906134c5565b9050600060076000858152602001908152602001600020600d0160009054906101000a900473ffffffffffffffffffffffffffffffffffffffff1690508073ffffffffffffffffffffffffffffffffffffffff166108fc839081150290604051600060405180830381858888f19350505050158015611c09573d6000803e3d6000fd5b5050505050505050565b611c1b61141f565b611c5a576040517f08c379a0000000000000000000000000000000000000000000000000000000008152600401611c51906131b1565b60405180910390fd5b611c63816123d4565b50565b611c6f3361166e565b611cae576040517f08c379a0000000000000000000000000000000000000000000000000000000008152600401611ca590612cc0565b60405180910390fd5b8060016007811115611cc357611cc2612d4c565b5b60076000838152602001908152602001600020600b0160009054906101000a900460ff166007811115611cf957611cf8612d4c565b5b14611d39576040517f08c379a0000000000000000000000000000000000000000000000000000000008152600401611d3090613545565b60405180910390fd5b600260076000848152602001908152602001600020600b0160006101000a81548160ff02191690836007811115611d7357611d72612d4c565b5b02179055507f9b3b66e2380b690bae22c73ef1428fb0c91e72fe14a4b6defa13035214187aff82604051611da791906130de565b60405180910390a15050565b611dbc33611402565b611dfb576040517f08c379a0000000000000000000000000000000000000000000000000000000008152600401611df290613289565b60405180910390fd5b8060046007811115611e1057611e0f612d4c565b5b60076000838152602001908152602001600020600b0160009054906101000a900460ff166007811115611e4657611e45612d4c565b5b14611e86576040517f08c379a0000000000000000000000000000000000000000000000000000000008152600401611e7d906135b1565b60405180910390fd5b600560076000848152602001908152602001600020600b0160006101000a81548160ff02191690836007811115611ec057611ebf612d4c565b5b02179055507ff00b9a5725b80c54016f42114f6ed7792d22eecb116011c4afac29c57bef6c9582604051611ef491906130de565b60405180910390a15050565b600960009054906101000a900473ffffffffffffffffffffffffffffffffffffffff1681565b600073ffffffffffffffffffffffffffffffffffffffff168173ffffffffffffffffffffffffffffffffffffffff1603611f95576040517f08c379a0000000000000000000000000000000000000000000000000000000008152600401611f8c9061361d565b60405180910390fd5b611f9f8282612097565b15611fdf576040517f08c379a0000000000000000000000000000000000000000000000000000000008152600401611fd690613689565b60405180910390fd5b60018260000160008373ffffffffffffffffffffffffffffffffffffffff1673ffffffffffffffffffffffffffffffffffffffff16815260200190815260200160002060006101000a81548160ff0219169083151502179055505050565b612051816000611f2690919063ffffffff16565b8073ffffffffffffffffffffffffffffffffffffffff167f28b26e7a3d20aedbc5f8f2ebf7da671c0491723a2b78f47a097b0e46dee0714260405160405180910390a250565b60008073ffffffffffffffffffffffffffffffffffffffff168273ffffffffffffffffffffffffffffffffffffffff1603612107576040517f08c379a00000000000000000000000000000000000000000000000000000000081526004016120fe9061361d565b60405180910390fd5b8260000160008373ffffffffffffffffffffffffffffffffffffffff1673ffffffffffffffffffffffffffffffffffffffff16815260200190815260200160002060009054906101000a900460ff16905092915050565b61217281600061250390919063ffffffff16565b8073ffffffffffffffffffffffffffffffffffffffff167fe3f5ed5f263f1f01764a96edfc7d025f511ec5f7d180e8816908b78bcf74f09860405160405180910390a250565b6121cc81600161250390919063ffffffff16565b8073ffffffffffffffffffffffffffffffffffffffff167f126174f6cf49c81cdb4a9214c6b8f037bef55b4ec31e4fc776cea2a1c8a88d5960405160405180910390a250565b612226816001611f2690919063ffffffff16565b8073ffffffffffffffffffffffffffffffffffffffff167fddbf200aa634dc3fb81cfd68583dd1040d1c751d335e1d86b631bde3e977fea860405160405180910390a250565b612280816002611f2690919063ffffffff16565b8073ffffffffffffffffffffffffffffffffffffffff167f2e0ded4123377a3c2bc9a26f1717655a129e2f20752924d42e730ec89c83dbd060405160405180910390a250565b6122da81600261250390919063ffffffff16565b8073ffffffffffffffffffffffffffffffffffffffff167fa5e0f060af304ab17dd418c7927e3da3ae7868189bf387aee09ab179ccc572f260405160405180910390a250565b612334816003611f2690919063ffffffff16565b8073ffffffffffffffffffffffffffffffffffffffff167f71ae26cad02663e3d92efd6ec56031a80d74a20c0ab4183faa8bf262261c9baa60405160405180910390a250565b61238e81600361250390919063ffffffff16565b8073ffffffffffffffffffffffffffffffffffffffff167fdb7176e79cffef81cb01767dd0447a0b24bb72ca9778d4b245581086b2a7e6db60405160405180910390a250565b600073ffffffffffffffffffffffffffffffffffffffff168173ffffffffffffffffffffffffffffffffffffffff1603612443576040517f08c379a000000000000000000000000000000000000000000000000000000000815260040161243a906136f5565b60405180910390fd5b8073ffffffffffffffffffffffffffffffffffffffff16600960009054906101000a900473ffffffffffffffffffffffffffffffffffffffff1673ffffffffffffffffffffffffffffffffffffffff167f5c486528ec3e3f0ea91181cff8116f02bfa350e03b8b6f12e00765adbb5af85c60405160405180910390a380600960006101000a81548173ffffffffffffffffffffffffffffffffffffffff021916908373ffffffffffffffffffffffffffffffffffffffff16021790555050565b600073ffffffffffffffffffffffffffffffffffffffff168173ffffffffffffffffffffffffffffffffffffffff1603612572576040517f08c379a00000000000000000000000000000000000000000000000000000000081526004016125699061361d565b60405180910390fd5b61257c8282612097565b6125bb576040517f08c379a00000000000000000000000000000000000000000000000000000000081526004016125b290613761565b60405180910390fd5b60008260000160008373ffffffffffffffffffffffffffffffffffffffff1673ffffffffffffffffffffffffffffffffffffffff16815260200190815260200160002060006101000a81548160ff0219169083151502179055505050565b6000604051905090565b600080fd5b600080fd5b600073ffffffffffffffffffffffffffffffffffffffff82169050919050565b60006126588261262d565b9050919050565b6126688161264d565b811461267357600080fd5b50565b6000813590506126858161265f565b92915050565b6000602082840312156126a1576126a0612623565b5b60006126af84828501612676565b91505092915050565b6000819050919050565b6126cb816126b8565b81146126d657600080fd5b50565b6000813590506126e8816126c2565b92915050565b600080fd5b600080fd5b6000601f19601f8301169050919050565b7f4e487b7100000000000000000000000000000000000000000000000000000000600052604160045260246000fd5b612741826126f8565b810181811067ffffffffffffffff821117156127605761275f612709565b5b80604052505050565b6000612773612619565b905061277f8282612738565b919050565b600067ffffffffffffffff82111561279f5761279e612709565b5b6127a8826126f8565b9050602081019050919050565b82818337600083830152505050565b60006127d76127d284612784565b612769565b9050828152602081018484840111156127f3576127f26126f3565b5b6127fe8482856127b5565b509392505050565b600082601f83011261281b5761281a6126ee565b5b813561282b8482602086016127c4565b91505092915050565b600080600080600080600080610100898b03121561285557612854612623565b5b60006128638b828c016126d9565b98505060206128748b828c01612676565b97505060406128858b828c01612676565b965050606089013567ffffffffffffffff8111156128a6576128a5612628565b5b6128b28b828c01612806565b955050608089013567ffffffffffffffff8111156128d3576128d2612628565b5b6128df8b828c01612806565b94505060a089013567ffffffffffffffff811115612900576128ff612628565b5b61290c8b828c01612806565b93505060c089013567ffffffffffffffff81111561292d5761292c612628565b5b6129398b828c01612806565b92505060e089013567ffffffffffffffff81111561295a57612959612628565b5b6129668b828c01612806565b9150509295985092959890939650565b6000806040838503121561298d5761298c612623565b5b600061299b858286016126d9565b92505060206129ac858286016126d9565b9150509250929050565b6000602082840312156129cc576129cb612623565b5b60006129da848285016126d9565b91505092915050565b60008115159050919050565b6129f8816129e3565b82525050565b6000602082019050612a1360008301846129ef565b92915050565b612a22816126b8565b82525050565b600081519050919050565b600082825260208201905092915050565b60005b83811015612a62578082015181840152602081019050612a47565b83811115612a71576000848401525b50505050565b6000612a8282612a28565b612a8c8185612a33565b9350612a9c818560208601612a44565b612aa5816126f8565b840191505092915050565b612ab98161264d565b82525050565b600061012082019050612ad5600083018c612a19565b612ae2602083018b612a19565b612aef604083018a612a19565b8181036060830152612b018189612a77565b9050612b106080830188612a19565b612b1d60a0830187612a19565b612b2a60c0830186612ab0565b612b3760e0830185612ab0565b612b45610100830184612ab0565b9a9950505050505050505050565b600061010082019050612b69600083018b612a19565b612b76602083018a612a19565b612b836040830189612ab0565b612b906060830188612ab0565b8181036080830152612ba28187612a77565b905081810360a0830152612bb68186612a77565b905081810360c0830152612bca8185612a77565b905081810360e0830152612bde8184612a77565b90509998505050505050505050565b6000602082019050612c026000830184612ab0565b92915050565b7f4163636f756e742073686f756c6420626520436f6e73756d6572000000000000600082015250565b6000612c3e601a83612a33565b9150612c4982612c08565b602082019050919050565b60006020820190508181036000830152612c6d81612c31565b9050919050565b7f4163636f756e742073686f756c64206265204661726d65720000000000000000600082015250565b6000612caa601883612a33565b9150612cb582612c74565b602082019050919050565b60006020820190508181036000830152612cd981612c9d565b9050919050565b7f4974656d20736b75206e65656420746f20626520300000000000000000000000600082015250565b6000612d16601583612a33565b9150612d2182612ce0565b602082019050919050565b60006020820190508181036000830152612d4581612d09565b9050919050565b7f4e487b7100000000000000000000000000000000000000000000000000000000600052602160045260246000fd5b7f4e487b7100000000000000000000000000000000000000000000000000000000600052602260045260246000fd5b60006002820490506001821680612dc257607f821691505b602082108103612dd557612dd4612d7b565b5b50919050565b60008190508160005260206000209050919050565b60006020601f8301049050919050565b600082821b905092915050565b600060088302612e3d7fffffffffffffffffffffffffffffffffffffffffffffffffffffffffffffffff82612e00565b612e478683612e00565b95508019841693508086168417925050509392505050565b6000819050919050565b6000612e84612e7f612e7a846126b8565b612e5f565b6126b8565b9050919050565b6000819050919050565b612e9e83612e69565b612eb2612eaa82612e8b565b848454612e0d565b825550505050565b600090565b612ec7612eba565b612ed2818484612e95565b505050565b5b81811015612ef657612eeb600082612ebf565b600181019050612ed8565b5050565b601f821115612f3b57612f0c81612ddb565b612f1584612df0565b81016020851015612f24578190505b612f38612f3085612df0565b830182612ed7565b50505b505050565b600082821c905092915050565b6000612f5e60001984600802612f40565b1980831691505092915050565b6000612f778383612f4d565b9150826002028217905092915050565b612f9082612a28565b67ffffffffffffffff811115612fa957612fa8612709565b5b612fb38254612daa565b612fbe828285612efa565b600060209050601f831160018114612ff15760008415612fdf578287015190505b612fe98582612f6b565b865550613051565b601f198416612fff86612ddb565b60005b8281101561302757848901518255600182019150602085019450602081019050613002565b868310156130445784890151613040601f891682612f4d565b8355505b6001600288020188555050505b505050505050565b7f4e487b7100000000000000000000000000000000000000000000000000000000600052601160045260246000fd5b6000613093826126b8565b915061309e836126b8565b9250827fffffffffffffffffffffffffffffffffffffffffffffffffffffffffffffffff038211156130d3576130d2613059565b5b828201905092915050565b60006020820190506130f36000830184612a19565b92915050565b7f4974656d2073746174652073686f756c64206265205061636b65640000000000600082015250565b600061312f601b83612a33565b915061313a826130f9565b602082019050919050565b6000602082019050818103600083015261315e81613122565b9050919050565b7f4973206f776e6572206163636f756e7400000000000000000000000000000000600082015250565b600061319b601083612a33565b91506131a682613165565b602082019050919050565b600060208201905081810360008301526131ca8161318e565b9050919050565b7f4974656d2073746174652073686f756c64206265204861727665737465640000600082015250565b6000613207601e83612a33565b9150613212826131d1565b602082019050919050565b60006020820190508181036000830152613236816131fa565b9050919050565b7f4163636f756e742073686f756c64206265204469737472696275746f72000000600082015250565b6000613273601d83612a33565b915061327e8261323d565b602082019050919050565b600060208201905081810360008301526132a281613266565b9050919050565b7f4163636f756e742073686f756c642062652052657461696c6572000000000000600082015250565b60006132df601a83612a33565b91506132ea826132a9565b602082019050919050565b6000602082019050818103600083015261330e816132d2565b9050919050565b7f4974656d2073746174652073686f756c64206265205368697070656400000000600082015250565b600061334b601c83612a33565b915061335682613315565b602082019050919050565b6000602082019050818103600083015261337a8161333e565b9050919050565b7f4974656d2073746174652073686f756c64206265205265636569766564000000600082015250565b60006133b7601d83612a33565b91506133c282613381565b602082019050919050565b600060208201905081810360008301526133e6816133aa565b9050919050565b7f4974656d2073746174652073686f756c6420626520466f722053616c65000000600082015250565b6000613423601d83612a33565b915061342e826133ed565b602082019050919050565b6000602082019050818103600083015261345281613416565b9050919050565b7f5665726966792069662074686520707269636520697320656e6f756768000000600082015250565b600061348f601d83612a33565b915061349a82613459565b602082019050919050565b600060208201905081810360008301526134be81613482565b9050919050565b60006134d0826126b8565b91506134db836126b8565b9250828210156134ee576134ed613059565b5b828203905092915050565b7f4974656d2073746174652073686f756c642062652050726f6365737365640000600082015250565b600061352f601e83612a33565b915061353a826134f9565b602082019050919050565b6000602082019050818103600083015261355e81613522565b9050919050565b7f4974656d2073746174652073686f756c6420626520536f6c6400000000000000600082015250565b600061359b601983612a33565b91506135a682613565565b602082019050919050565b600060208201905081810360008301526135ca8161358e565b9050919050565b7f4163636f756e742073686f75646e742062652030000000000000000000000000600082015250565b6000613607601483612a33565b9150613612826135d1565b602082019050919050565b60006020820190508181036000830152613636816135fa565b9050919050565b7f4163636f756e742073686f756c64206e6f7420686176652074686520726f6c65600082015250565b6000613673602083612a33565b915061367e8261363d565b602082019050919050565b600060208201905081810360008301526136a281613666565b9050919050565b7f4163636f756e742073686f756c64206e6f742062652030000000000000000000600082015250565b60006136df601783612a33565b91506136ea826136a9565b602082019050919050565b6000602082019050818103600083015261370e816136d2565b9050919050565b7f4163636f756e742073686f756c6420686176652074686520726f6c6500000000600082015250565b600061374b601c83612a33565b915061375682613715565b602082019050919050565b6000602082019050818103600083015261377a8161373e565b905091905056fea2646970667358221220512af8785cf56b969248806f47b2cd65c229ec25215a3e3c9aa221bedd0f574e64736f6c634300080f0033",
  "immutableReferences": {},
  "source": "// SPDX-License-Identifier: MIT\npragma solidity ^0.8.15;\n\nimport \"../coffeeBase/SupplyChain.sol\";\n\n/// Provides basic authorization control\ncontract Ownable is SupplyChain {\n    address public origOwner;\n\n    // Define an Event\n    event TransferOwnership(address indexed oldOwner, address indexed newOwner);\n\n    /// Assign the contract to an owner\n    constructor() {\n        origOwner = msg.sender;\n        emit TransferOwnership(address(0), origOwner);\n    }\n\n    /// Define a function modifier 'onlyOwner'\n    modifier onlyOwner() override {\n        require(isOwner(), \"Is owner account\");\n        _;\n    }\n\n    /// Check if the calling address is the owner of the contract\n    function isOwner() public view returns (bool) {\n        return msg.sender == origOwner;\n    }\n\n    /// Define a function to renounce ownerhip\n    function renounceOwnership() public onlyOwner {\n        emit TransferOwnership(origOwner, address(0));\n        origOwner = address(0);\n    }\n\n    /// Define a public function to transfer ownership\n    function transferOwnership(address newOwner) public onlyOwner {\n        _transferOwnership(newOwner);\n    }\n\n    /// Define an internal function to transfer ownership\n    function _transferOwnership(address newOwner) internal {\n        require(newOwner != address(0), \"Account should not be 0\");\n        emit TransferOwnership(origOwner, newOwner);\n        origOwner = newOwner;\n    }\n}\n",
  "sourcePath": "/home/rafamessias/Documents/udacity/Ethereum/dapp-sc-project/truffle/contracts/coffeecore/Ownable.sol",
  "compiler": {
    "name": "solc",
    "version": "0.8.15+commit.e14f2714.Emscripten.clang"
  },
  "schemaVersion": "3.4.8",
  "updatedAt": "2022-08-23T02:49:38.973Z",
  "networkType": "ethereum",
  "devdoc": {
    "kind": "dev",
    "methods": {},
    "version": 1
  },
  "userdoc": {
    "kind": "user",
    "methods": {
      "constructor": {
        "notice": "Assign the contract to an owner"
      },
      "isOwner()": {
        "notice": "Check if the calling address is the owner of the contract"
      },
      "renounceOwnership()": {
        "notice": "Define a function to renounce ownerhip"
      },
      "transferOwnership(address)": {
        "notice": "Define a public function to transfer ownership"
      }
    },
    "notice": "Provides basic authorization control",
    "version": 1
  }
}