{
  "contractName": "Ownable",
  "abi": [
    {
      "inputs": [],
      "stateMutability": "nonpayable",
      "type": "constructor"
    },
    {
      "anonymous": false,
      "inputs": [
        {
          "indexed": true,
          "internalType": "address",
          "name": "account",
          "type": "address"
        }
      ],
      "name": "ConsumerAdded",
      "type": "event"
    },
    {
      "anonymous": false,
      "inputs": [
        {
          "indexed": true,
          "internalType": "address",
          "name": "account",
          "type": "address"
        }
      ],
      "name": "ConsumerRemoved",
      "type": "event"
    },
    {
      "anonymous": false,
      "inputs": [
        {
          "indexed": true,
          "internalType": "address",
          "name": "account",
          "type": "address"
        }
      ],
      "name": "DistributorAdded",
      "type": "event"
    },
    {
      "anonymous": false,
      "inputs": [
        {
          "indexed": true,
          "internalType": "address",
          "name": "account",
          "type": "address"
        }
      ],
      "name": "DistributorRemoved",
      "type": "event"
    },
    {
      "anonymous": false,
      "inputs": [
        {
          "indexed": true,
          "internalType": "address",
          "name": "account",
          "type": "address"
        }
      ],
      "name": "FarmerAdded",
      "type": "event"
    },
    {
      "anonymous": false,
      "inputs": [
        {
          "indexed": true,
          "internalType": "address",
          "name": "account",
          "type": "address"
        }
      ],
      "name": "FarmerRemoved",
      "type": "event"
    },
    {
      "anonymous": false,
      "inputs": [
        {
          "indexed": true,
          "internalType": "uint256",
          "name": "upc",
          "type": "uint256"
        }
      ],
      "name": "ForSale",
      "type": "event"
    },
    {
      "anonymous": false,
      "inputs": [
        {
          "indexed": true,
          "internalType": "uint256",
          "name": "upc",
          "type": "uint256"
        }
      ],
      "name": "Harvested",
      "type": "event"
    },
    {
      "anonymous": false,
      "inputs": [
        {
          "indexed": true,
          "internalType": "uint256",
          "name": "upc",
          "type": "uint256"
        }
      ],
      "name": "Packed",
      "type": "event"
    },
    {
      "anonymous": false,
      "inputs": [
        {
          "indexed": true,
          "internalType": "uint256",
          "name": "upc",
          "type": "uint256"
        }
      ],
      "name": "Processed",
      "type": "event"
    },
    {
      "anonymous": false,
      "inputs": [
        {
          "indexed": true,
          "internalType": "uint256",
          "name": "upc",
          "type": "uint256"
        }
      ],
      "name": "Purchased",
      "type": "event"
    },
    {
      "anonymous": false,
      "inputs": [
        {
          "indexed": true,
          "internalType": "uint256",
          "name": "upc",
          "type": "uint256"
        }
      ],
      "name": "Received",
      "type": "event"
    },
    {
      "anonymous": false,
      "inputs": [
        {
          "indexed": true,
          "internalType": "address",
          "name": "account",
          "type": "address"
        }
      ],
      "name": "RetailerAdded",
      "type": "event"
    },
    {
      "anonymous": false,
      "inputs": [
        {
          "indexed": true,
          "internalType": "address",
          "name": "account",
          "type": "address"
        }
      ],
      "name": "RetailerRemoved",
      "type": "event"
    },
    {
      "anonymous": false,
      "inputs": [
        {
          "indexed": true,
          "internalType": "uint256",
          "name": "upc",
          "type": "uint256"
        }
      ],
      "name": "Shipped",
      "type": "event"
    },
    {
      "anonymous": false,
      "inputs": [
        {
          "indexed": true,
          "internalType": "uint256",
          "name": "upc",
          "type": "uint256"
        }
      ],
      "name": "Sold",
      "type": "event"
    },
    {
      "anonymous": false,
      "inputs": [
        {
          "indexed": true,
          "internalType": "address",
          "name": "oldOwner",
          "type": "address"
        },
        {
          "indexed": true,
          "internalType": "address",
          "name": "newOwner",
          "type": "address"
        }
      ],
      "name": "TransferOwnership",
      "type": "event"
    },
    {
      "inputs": [
        {
          "internalType": "address",
          "name": "account",
          "type": "address"
        }
      ],
      "name": "addConsumer",
      "outputs": [],
      "stateMutability": "nonpayable",
      "type": "function"
    },
    {
      "inputs": [
        {
          "internalType": "address",
          "name": "account",
          "type": "address"
        }
      ],
      "name": "addDistributor",
      "outputs": [],
      "stateMutability": "nonpayable",
      "type": "function"
    },
    {
      "inputs": [
        {
          "internalType": "address",
          "name": "account",
          "type": "address"
        }
      ],
      "name": "addFarmer",
      "outputs": [],
      "stateMutability": "nonpayable",
      "type": "function"
    },
    {
      "inputs": [
        {
          "internalType": "address",
          "name": "account",
          "type": "address"
        }
      ],
      "name": "addRetailer",
      "outputs": [],
      "stateMutability": "nonpayable",
      "type": "function"
    },
    {
      "inputs": [
        {
          "internalType": "uint256",
          "name": "_upc",
          "type": "uint256"
        }
      ],
      "name": "buyItem",
      "outputs": [],
      "stateMutability": "payable",
      "type": "function"
    },
    {
      "inputs": [
        {
          "internalType": "uint256",
          "name": "_upc",
          "type": "uint256"
        }
      ],
      "name": "fetchItemBufferOne",
      "outputs": [
        {
          "internalType": "uint256",
          "name": "itemSKU",
          "type": "uint256"
        },
        {
          "internalType": "uint256",
          "name": "itemUPC",
          "type": "uint256"
        },
        {
          "internalType": "address",
          "name": "ownerID",
          "type": "address"
        },
        {
          "internalType": "address",
          "name": "originFarmerID",
          "type": "address"
        },
        {
          "internalType": "string",
          "name": "originFarmName",
          "type": "string"
        },
        {
          "internalType": "string",
          "name": "originFarmInformation",
          "type": "string"
        },
        {
          "internalType": "string",
          "name": "originFarmLatitude",
          "type": "string"
        },
        {
          "internalType": "string",
          "name": "originFarmLongitude",
          "type": "string"
        }
      ],
      "stateMutability": "view",
      "type": "function"
    },
    {
      "inputs": [
        {
          "internalType": "uint256",
          "name": "_upc",
          "type": "uint256"
        }
      ],
      "name": "fetchItemBufferTwo",
      "outputs": [
        {
          "internalType": "uint256",
          "name": "itemSKU",
          "type": "uint256"
        },
        {
          "internalType": "uint256",
          "name": "itemUPC",
          "type": "uint256"
        },
        {
          "internalType": "uint256",
          "name": "productID",
          "type": "uint256"
        },
        {
          "internalType": "string",
          "name": "productNotes",
          "type": "string"
        },
        {
          "internalType": "uint256",
          "name": "productPrice",
          "type": "uint256"
        },
        {
          "internalType": "uint256",
          "name": "itemState",
          "type": "uint256"
        },
        {
          "internalType": "address",
          "name": "distributorID",
          "type": "address"
        },
        {
          "internalType": "address",
          "name": "retailerID",
          "type": "address"
        },
        {
          "internalType": "address",
          "name": "consumerID",
          "type": "address"
        }
      ],
      "stateMutability": "view",
      "type": "function"
    },
    {
      "inputs": [
        {
          "internalType": "uint256",
          "name": "_upc",
          "type": "uint256"
        },
        {
          "internalType": "address",
          "name": "_ownerID",
          "type": "address"
        },
        {
          "internalType": "address",
          "name": "_originFarmerID",
          "type": "address"
        },
        {
          "internalType": "string",
          "name": "_originFarmName",
          "type": "string"
        },
        {
          "internalType": "string",
          "name": "_originFarmInformation",
          "type": "string"
        },
        {
          "internalType": "string",
          "name": "_originFarmLatitude",
          "type": "string"
        },
        {
          "internalType": "string",
          "name": "_originFarmLongitude",
          "type": "string"
        },
        {
          "internalType": "string",
          "name": "_productNotes",
          "type": "string"
        }
      ],
      "name": "harvestItem",
      "outputs": [],
      "stateMutability": "nonpayable",
      "type": "function"
    },
    {
      "inputs": [
        {
          "internalType": "address",
          "name": "account",
          "type": "address"
        }
      ],
      "name": "isConsumer",
      "outputs": [
        {
          "internalType": "bool",
          "name": "",
          "type": "bool"
        }
      ],
      "stateMutability": "view",
      "type": "function"
    },
    {
      "inputs": [
        {
          "internalType": "address",
          "name": "account",
          "type": "address"
        }
      ],
      "name": "isDistributor",
      "outputs": [
        {
          "internalType": "bool",
          "name": "",
          "type": "bool"
        }
      ],
      "stateMutability": "view",
      "type": "function"
    },
    {
      "inputs": [
        {
          "internalType": "address",
          "name": "account",
          "type": "address"
        }
      ],
      "name": "isFarmer",
      "outputs": [
        {
          "internalType": "bool",
          "name": "",
          "type": "bool"
        }
      ],
      "stateMutability": "view",
      "type": "function"
    },
    {
      "inputs": [
        {
          "internalType": "address",
          "name": "account",
          "type": "address"
        }
      ],
      "name": "isRetailer",
      "outputs": [
        {
          "internalType": "bool",
          "name": "",
          "type": "bool"
        }
      ],
      "stateMutability": "view",
      "type": "function"
    },
    {
      "inputs": [],
      "name": "kill",
      "outputs": [],
      "stateMutability": "nonpayable",
      "type": "function"
    },
    {
      "inputs": [],
      "name": "origOwner",
      "outputs": [
        {
          "internalType": "address",
          "name": "",
          "type": "address"
        }
      ],
      "stateMutability": "view",
      "type": "function"
    },
    {
      "inputs": [
        {
          "internalType": "uint256",
          "name": "_upc",
          "type": "uint256"
        }
      ],
      "name": "packItem",
      "outputs": [],
      "stateMutability": "nonpayable",
      "type": "function"
    },
    {
      "inputs": [
        {
          "internalType": "uint256",
          "name": "_upc",
          "type": "uint256"
        }
      ],
      "name": "processItem",
      "outputs": [],
      "stateMutability": "nonpayable",
      "type": "function"
    },
    {
      "inputs": [
        {
          "internalType": "uint256",
          "name": "_upc",
          "type": "uint256"
        }
      ],
      "name": "purchaseItem",
      "outputs": [],
      "stateMutability": "nonpayable",
      "type": "function"
    },
    {
      "inputs": [
        {
          "internalType": "uint256",
          "name": "_upc",
          "type": "uint256"
        }
      ],
      "name": "receiveItem",
      "outputs": [],
      "stateMutability": "nonpayable",
      "type": "function"
    },
    {
      "inputs": [],
      "name": "renounceConsumer",
      "outputs": [],
      "stateMutability": "nonpayable",
      "type": "function"
    },
    {
      "inputs": [],
      "name": "renounceDistributor",
      "outputs": [],
      "stateMutability": "nonpayable",
      "type": "function"
    },
    {
      "inputs": [],
      "name": "renounceFarmer",
      "outputs": [],
      "stateMutability": "nonpayable",
      "type": "function"
    },
    {
      "inputs": [],
      "name": "renounceRetailer",
      "outputs": [],
      "stateMutability": "nonpayable",
      "type": "function"
    },
    {
      "inputs": [
        {
          "internalType": "uint256",
          "name": "_upc",
          "type": "uint256"
        },
        {
          "internalType": "uint256",
          "name": "_price",
          "type": "uint256"
        }
      ],
      "name": "sellItem",
      "outputs": [],
      "stateMutability": "nonpayable",
      "type": "function"
    },
    {
      "inputs": [
        {
          "internalType": "uint256",
          "name": "_upc",
          "type": "uint256"
        }
      ],
      "name": "shipItem",
      "outputs": [],
      "stateMutability": "nonpayable",
      "type": "function"
    },
    {
      "inputs": [],
      "name": "isOwner",
      "outputs": [
        {
          "internalType": "bool",
          "name": "",
          "type": "bool"
        }
      ],
      "stateMutability": "view",
      "type": "function"
    },
    {
      "inputs": [],
      "name": "renounceOwnership",
      "outputs": [],
      "stateMutability": "nonpayable",
      "type": "function"
    },
    {
      "inputs": [
        {
          "internalType": "address",
          "name": "newOwner",
          "type": "address"
        }
      ],
      "name": "transferOwnership",
      "outputs": [],
      "stateMutability": "nonpayable",
      "type": "function"
    }
  ],
  "bytecode": "0x60806040523480156200001157600080fd5b5062000023336200016b60201b60201c565b6200003433620001cc60201b60201c565b62000045336200022d60201b60201c565b62000056336200028e60201b60201c565b33600460006101000a81548173ffffffffffffffffffffffffffffffffffffffff021916908373ffffffffffffffffffffffffffffffffffffffff1602179055506001600681905550600160058190555033600960006101000a81548173ffffffffffffffffffffffffffffffffffffffff021916908373ffffffffffffffffffffffffffffffffffffffff160217905550600960009054906101000a900473ffffffffffffffffffffffffffffffffffffffff1673ffffffffffffffffffffffffffffffffffffffff16600073ffffffffffffffffffffffffffffffffffffffff167f5c486528ec3e3f0ea91181cff8116f02bfa350e03b8b6f12e00765adbb5af85c60405160405180910390a3620005d3565b62000186816000620002ef60201b62001ed61790919060201c565b8073ffffffffffffffffffffffffffffffffffffffff167f28b26e7a3d20aedbc5f8f2ebf7da671c0491723a2b78f47a097b0e46dee0714260405160405180910390a250565b620001e7816001620002ef60201b62001ed61790919060201c565b8073ffffffffffffffffffffffffffffffffffffffff167fddbf200aa634dc3fb81cfd68583dd1040d1c751d335e1d86b631bde3e977fea860405160405180910390a250565b62000248816002620002ef60201b62001ed61790919060201c565b8073ffffffffffffffffffffffffffffffffffffffff167f2e0ded4123377a3c2bc9a26f1717655a129e2f20752924d42e730ec89c83dbd060405160405180910390a250565b620002a9816003620002ef60201b62001ed61790919060201c565b8073ffffffffffffffffffffffffffffffffffffffff167f71ae26cad02663e3d92efd6ec56031a80d74a20c0ab4183faa8bf262261c9baa60405160405180910390a250565b600073ffffffffffffffffffffffffffffffffffffffff168173ffffffffffffffffffffffffffffffffffffffff160362000361576040517f08c379a000000000000000000000000000000000000000000000000000000000815260040162000358906200053f565b60405180910390fd5b6200037382826200041460201b60201c565b15620003b6576040517f08c379a0000000000000000000000000000000000000000000000000000000008152600401620003ad90620005b1565b60405180910390fd5b60018260000160008373ffffffffffffffffffffffffffffffffffffffff1673ffffffffffffffffffffffffffffffffffffffff16815260200190815260200160002060006101000a81548160ff0219169083151502179055505050565b60008073ffffffffffffffffffffffffffffffffffffffff168273ffffffffffffffffffffffffffffffffffffffff160362000487576040517f08c379a00000000000000000000000000000000000000000000000000000000081526004016200047e906200053f565b60405180910390fd5b8260000160008373ffffffffffffffffffffffffffffffffffffffff1673ffffffffffffffffffffffffffffffffffffffff16815260200190815260200160002060009054906101000a900460ff16905092915050565b600082825260208201905092915050565b7f4163636f756e742073686f75646e742062652030000000000000000000000000600082015250565b600062000527601483620004de565b91506200053482620004ef565b602082019050919050565b600060208201905081810360008301526200055a8162000518565b9050919050565b7f4163636f756e742073686f756c64206e6f7420686176652074686520726f6c65600082015250565b600062000599602083620004de565b9150620005a68262000561565b602082019050919050565b60006020820190508181036000830152620005cc816200058a565b9050919050565b61374c80620005e36000396000f3fe60806040526004361061019c5760003560e01c806380fc0ce4116100ec578063d38ea5bf1161008a578063f2fde38b11610064578063f2fde38b14610560578063f30fc48014610589578063f61c899a146105b2578063f68e3d09146105db5761019c565b8063d38ea5bf14610504578063db0e6a2f1461052d578063e7fb74c7146105445761019c565b80638f0c86fa116100c65780638f0c86fa146104365780638f32d59b14610473578063a26be9991461049e578063b9429069146104c75761019c565b806380fc0ce4146103b9578063834ff739146103d05780638ec4f5051461040d5761019c565b806361e6982d11610159578063715018a611610133578063715018a61461030c5780637250e2241461032357806377c459131461034c57806380c3f96d146103905761019c565b806361e6982d14610299578063644241db146102b057806366225ff9146102c75761019c565b8063112940f9146101a15780631f4f3261146101ca5780632d923561146101f357806341c0e1b51461021c57806349dae766146102335780635da09b881461025c575b600080fd5b3480156101ad57600080fd5b506101c860048036038101906101c3919061263b565b610606565b005b3480156101d657600080fd5b506101f160048036038101906101ec91906127e4565b61065a565b005b3480156101ff57600080fd5b5061021a60048036038101906102159190612926565b61091e565b005b34801561022857600080fd5b50610231610a7d565b005b34801561023f57600080fd5b5061025a60048036038101906102559190612966565b610aff565b005b34801561026857600080fd5b50610283600480360381019061027e919061263b565b610c42565b60405161029091906129ae565b60405180910390f35b3480156102a557600080fd5b506102ae610c5f565b005b3480156102bc57600080fd5b506102c5610c6a565b005b3480156102d357600080fd5b506102ee60048036038101906102e99190612966565b610c75565b60405161030399989796959493929190612a6f565b60405180910390f35b34801561031857600080fd5b50610321610e79565b005b34801561032f57600080fd5b5061034a6004803603810190610345919061263b565b610f81565b005b34801561035857600080fd5b50610373600480360381019061036e9190612966565b610fd5565b604051610387989796959493929190612b03565b60405180910390f35b34801561039c57600080fd5b506103b760048036038101906103b2919061263b565b611314565b005b3480156103c557600080fd5b506103ce611368565b005b3480156103dc57600080fd5b506103f760048036038101906103f2919061263b565b611373565b60405161040491906129ae565b60405180910390f35b34801561041957600080fd5b50610434600480360381019061042f919061263b565b611390565b005b34801561044257600080fd5b5061045d6004803603810190610458919061263b565b6113e4565b60405161046a91906129ae565b60405180910390f35b34801561047f57600080fd5b50610488611401565b60405161049591906129ae565b60405180910390f35b3480156104aa57600080fd5b506104c560048036038101906104c09190612966565b611459565b005b3480156104d357600080fd5b506104ee60048036038101906104e9919061263b565b611646565b6040516104fb91906129ae565b60405180910390f35b34801561051057600080fd5b5061052b60048036038101906105269190612966565b611663565b005b34801561053957600080fd5b5061054261184f565b005b61055e60048036038101906105599190612966565b61185a565b005b34801561056c57600080fd5b506105876004803603810190610582919061263b565b611bd7565b005b34801561059557600080fd5b506105b060048036038101906105ab9190612966565b611c2a565b005b3480156105be57600080fd5b506105d960048036038101906105d49190612966565b611d6d565b005b3480156105e757600080fd5b506105f0611eb0565b6040516105fd9190612b9d565b60405180910390f35b61060f33611373565b61064e576040517f08c379a000000000000000000000000000000000000000000000000000000000815260040161064590612c04565b60405180910390fd5b61065781611fed565b50565b61066333611646565b6106a2576040517f08c379a000000000000000000000000000000000000000000000000000000000815260040161069990612c70565b60405180910390fd5b6000600760008a815260200190815260200160002060000154146106fb576040517f08c379a00000000000000000000000000000000000000000000000000000000081526004016106f290612cdc565b60405180910390fd5b600654600760008a815260200190815260200160002060000181905550600554600760008a81526020019081526020016000206001018190555086600760008a815260200190815260200160002060020160006101000a81548173ffffffffffffffffffffffffffffffffffffffff021916908373ffffffffffffffffffffffffffffffffffffffff1602179055506000600760008a8152602001908152602001600020600b0160006101000a81548160ff021916908360078111156107c4576107c3612cfc565b5b021790555085600760008a815260200190815260200160002060030160006101000a81548173ffffffffffffffffffffffffffffffffffffffff021916908373ffffffffffffffffffffffffffffffffffffffff16021790555084600760008a815260200190815260200160002060040190816108419190612f37565b5083600760008a815260200190815260200160002060050190816108659190612f37565b5082600760008a815260200190815260200160002060060190816108899190612f37565b5081600760008a815260200190815260200160002060070190816108ad9190612f37565b5080600760008a815260200190815260200160002060090190816108d19190612f37565b5060016006546108e19190613038565b600681905550877f8e55ccfc9778ff8eba1646d765cf1982537ce0f9257054a17b48aad74525018360405160405180910390a25050505050505050565b61092733611646565b610966576040517f08c379a000000000000000000000000000000000000000000000000000000000815260040161095d90612c70565b60405180910390fd5b816002600781111561097b5761097a612cfc565b5b60076000838152602001908152602001600020600b0160009054906101000a900460ff1660078111156109b1576109b0612cfc565b5b146109f1576040517f08c379a00000000000000000000000000000000000000000000000000000000081526004016109e8906130da565b60405180910390fd5b8160076000858152602001908152602001600020600a0181905550600360076000858152602001908152602001600020600b0160006101000a81548160ff02191690836007811115610a4657610a45612cfc565b5b0217905550827fa96ae0fc3224ebd79eebfe54bd130cc9cb94416cddd1f2386115e00b7253246860405160405180910390a2505050565b610a85611401565b610ac4576040517f08c379a0000000000000000000000000000000000000000000000000000000008152600401610abb90613146565b60405180910390fd5b600460009054906101000a900473ffffffffffffffffffffffffffffffffffffffff1673ffffffffffffffffffffffffffffffffffffffff16ff5b610b0833611646565b610b47576040517f08c379a0000000000000000000000000000000000000000000000000000000008152600401610b3e90612c70565b60405180910390fd5b8060006007811115610b5c57610b5b612cfc565b5b60076000838152602001908152602001600020600b0160009054906101000a900460ff166007811115610b9257610b91612cfc565b5b14610bd2576040517f08c379a0000000000000000000000000000000000000000000000000000000008152600401610bc9906131b2565b60405180910390fd5b600160076000848152602001908152602001600020600b0160006101000a81548160ff02191690836007811115610c0c57610c0b612cfc565b5b0217905550817f5afe3b1bf87069693c075da5c22a98d63d1aef98a30dbbe538d0781a98b77ee560405160405180910390a25050565b6000610c5882600361204790919063ffffffff16565b9050919050565b610c683361210e565b565b610c7333612168565b565b600080600060606000806000806000600760008b8152602001908152602001600020600001549850600760008b8152602001908152602001600020600101549750600760008b8152602001908152602001600020600801549650600760008b81526020019081526020016000206009018054610cf090612d5a565b80601f0160208091040260200160405190810160405280929190818152602001828054610d1c90612d5a565b8015610d695780601f10610d3e57610100808354040283529160200191610d69565b820191906000526020600020905b815481529060010190602001808311610d4c57829003601f168201915b50505050509550600760008b8152602001908152602001600020600a01549450600760008b8152602001908152602001600020600b0160009054906101000a900460ff166007811115610dbf57610dbe612cfc565b5b9350600760008b8152602001908152602001600020600b0160019054906101000a900473ffffffffffffffffffffffffffffffffffffffff169250600760008b8152602001908152602001600020600c0160009054906101000a900473ffffffffffffffffffffffffffffffffffffffff169150600760008b8152602001908152602001600020600d0160009054906101000a900473ffffffffffffffffffffffffffffffffffffffff1690509193959799909294969850565b610e81611401565b610ec0576040517f08c379a0000000000000000000000000000000000000000000000000000000008152600401610eb790613146565b60405180910390fd5b600073ffffffffffffffffffffffffffffffffffffffff16600960009054906101000a900473ffffffffffffffffffffffffffffffffffffffff1673ffffffffffffffffffffffffffffffffffffffff167f5c486528ec3e3f0ea91181cff8116f02bfa350e03b8b6f12e00765adbb5af85c60405160405180910390a36000600960006101000a81548173ffffffffffffffffffffffffffffffffffffffff021916908373ffffffffffffffffffffffffffffffffffffffff160217905550565b610f8a336113e4565b610fc9576040517f08c379a0000000000000000000000000000000000000000000000000000000008152600401610fc09061321e565b60405180910390fd5b610fd2816121c2565b50565b600080600080606080606080600760008a8152602001908152602001600020600001549750600760008a8152602001908152602001600020600101549650600760008a815260200190815260200160002060020160009054906101000a900473ffffffffffffffffffffffffffffffffffffffff169550600760008a815260200190815260200160002060030160009054906101000a900473ffffffffffffffffffffffffffffffffffffffff169450600760008a815260200190815260200160002060040180546110a690612d5a565b80601f01602080910402602001604051908101604052809291908181526020018280546110d290612d5a565b801561111f5780601f106110f45761010080835404028352916020019161111f565b820191906000526020600020905b81548152906001019060200180831161110257829003601f168201915b50505050509350600760008a8152602001908152602001600020600501805461114790612d5a565b80601f016020809104026020016040519081016040528092919081815260200182805461117390612d5a565b80156111c05780601f10611195576101008083540402835291602001916111c0565b820191906000526020600020905b8154815290600101906020018083116111a357829003601f168201915b50505050509250600760008a815260200190815260200160002060060180546111e890612d5a565b80601f016020809104026020016040519081016040528092919081815260200182805461121490612d5a565b80156112615780601f1061123657610100808354040283529160200191611261565b820191906000526020600020905b81548152906001019060200180831161124457829003601f168201915b50505050509150600760008a8152602001908152602001600020600701805461128990612d5a565b80601f01602080910402602001604051908101604052809291908181526020018280546112b590612d5a565b80156113025780601f106112d757610100808354040283529160200191611302565b820191906000526020600020905b8154815290600101906020018083116112e557829003601f168201915b50505050509050919395975091939597565b61131d33611646565b61135c576040517f08c379a000000000000000000000000000000000000000000000000000000000815260040161135390612c70565b60405180910390fd5b6113658161221c565b50565b61137133612276565b565b600061138982600061204790919063ffffffff16565b9050919050565b61139933610c42565b6113d8576040517f08c379a00000000000000000000000000000000000000000000000000000000081526004016113cf9061328a565b60405180910390fd5b6113e1816122d0565b50565b60006113fa82600161204790919063ffffffff16565b9050919050565b6000600960009054906101000a900473ffffffffffffffffffffffffffffffffffffffff1673ffffffffffffffffffffffffffffffffffffffff163373ffffffffffffffffffffffffffffffffffffffff1614905090565b61146233610c42565b6114a1576040517f08c379a00000000000000000000000000000000000000000000000000000000081526004016114989061328a565b60405180910390fd5b80600560078111156114b6576114b5612cfc565b5b60076000838152602001908152602001600020600b0160009054906101000a900460ff1660078111156114ec576114eb612cfc565b5b1461152c576040517f08c379a0000000000000000000000000000000000000000000000000000000008152600401611523906132f6565b60405180910390fd5b336007600084815260200190815260200160002060020160006101000a81548173ffffffffffffffffffffffffffffffffffffffff021916908373ffffffffffffffffffffffffffffffffffffffff1602179055503360076000848152602001908152602001600020600c0160006101000a81548173ffffffffffffffffffffffffffffffffffffffff021916908373ffffffffffffffffffffffffffffffffffffffff160217905550600660076000848152602001908152602001600020600b0160006101000a81548160ff021916908360078111156116105761160f612cfc565b5b0217905550817fa8142743f8f70a4c26f3691cf4ed59718381fb2f18070ec52be1f1022d85555760405160405180910390a25050565b600061165c82600261204790919063ffffffff16565b9050919050565b61166c33611373565b6116ab576040517f08c379a00000000000000000000000000000000000000000000000000000000081526004016116a290612c04565b60405180910390fd5b80600660078111156116c0576116bf612cfc565b5b60076000838152602001908152602001600020600b0160009054906101000a900460ff1660078111156116f6576116f5612cfc565b5b14611736576040517f08c379a000000000000000000000000000000000000000000000000000000000815260040161172d90613362565b60405180910390fd5b336007600084815260200190815260200160002060020160006101000a81548173ffffffffffffffffffffffffffffffffffffffff021916908373ffffffffffffffffffffffffffffffffffffffff1602179055503360076000848152602001908152602001600020600d0160006101000a81548173ffffffffffffffffffffffffffffffffffffffff021916908373ffffffffffffffffffffffffffffffffffffffff1602179055506007806000848152602001908152602001600020600b0160006101000a81548160ff0219169083600781111561181957611818612cfc565b5b0217905550817f653d56639fee6b566a5c804764e9689de38645f0b733df89a36a1b7b42173dd860405160405180910390a25050565b6118583361232a565b565b611863336113e4565b6118a2576040517f08c379a00000000000000000000000000000000000000000000000000000000081526004016118999061321e565b60405180910390fd5b80600360078111156118b7576118b6612cfc565b5b60076000838152602001908152602001600020600b0160009054906101000a900460ff1660078111156118ed576118ec612cfc565b5b1461192d576040517f08c379a0000000000000000000000000000000000000000000000000000000008152600401611924906133ce565b60405180910390fd5b60076000838152602001908152602001600020600a015480341015611987576040517f08c379a000000000000000000000000000000000000000000000000000000000815260040161197e9061343a565b60405180910390fd5b8260006007600086815260200190815260200160002060020160009054906101000a900473ffffffffffffffffffffffffffffffffffffffff169050336007600087815260200190815260200160002060020160006101000a81548173ffffffffffffffffffffffffffffffffffffffff021916908373ffffffffffffffffffffffffffffffffffffffff1602179055503360076000878152602001908152602001600020600b0160016101000a81548173ffffffffffffffffffffffffffffffffffffffff021916908373ffffffffffffffffffffffffffffffffffffffff160217905550600460076000878152602001908152602001600020600b0160006101000a81548160ff02191690836007811115611aa757611aa6612cfc565b5b02179055508073ffffffffffffffffffffffffffffffffffffffff166108fc349081150290604051600060405180830381858888f19350505050158015611af2573d6000803e3d6000fd5b50847f92f64ca637d023f354075a4be751b169c1a8a9ccb6d33cdd0cb352054399572760405160405180910390a250600060076000838152602001908152602001600020600a0154905060008134611b4a919061345a565b9050600060076000858152602001908152602001600020600d0160009054906101000a900473ffffffffffffffffffffffffffffffffffffffff1690508073ffffffffffffffffffffffffffffffffffffffff166108fc839081150290604051600060405180830381858888f19350505050158015611bcd573d6000803e3d6000fd5b5050505050505050565b611bdf611401565b611c1e576040517f08c379a0000000000000000000000000000000000000000000000000000000008152600401611c1590613146565b60405180910390fd5b611c2781612384565b50565b611c3333611646565b611c72576040517f08c379a0000000000000000000000000000000000000000000000000000000008152600401611c6990612c70565b60405180910390fd5b8060016007811115611c8757611c86612cfc565b5b60076000838152602001908152602001600020600b0160009054906101000a900460ff166007811115611cbd57611cbc612cfc565b5b14611cfd576040517f08c379a0000000000000000000000000000000000000000000000000000000008152600401611cf4906134da565b60405180910390fd5b600260076000848152602001908152602001600020600b0160006101000a81548160ff02191690836007811115611d3757611d36612cfc565b5b0217905550817f9b3b66e2380b690bae22c73ef1428fb0c91e72fe14a4b6defa13035214187aff60405160405180910390a25050565b611d76336113e4565b611db5576040517f08c379a0000000000000000000000000000000000000000000000000000000008152600401611dac9061321e565b60405180910390fd5b8060046007811115611dca57611dc9612cfc565b5b60076000838152602001908152602001600020600b0160009054906101000a900460ff166007811115611e0057611dff612cfc565b5b14611e40576040517f08c379a0000000000000000000000000000000000000000000000000000000008152600401611e3790613546565b60405180910390fd5b600560076000848152602001908152602001600020600b0160006101000a81548160ff02191690836007811115611e7a57611e79612cfc565b5b0217905550817ff00b9a5725b80c54016f42114f6ed7792d22eecb116011c4afac29c57bef6c9560405160405180910390a25050565b600960009054906101000a900473ffffffffffffffffffffffffffffffffffffffff1681565b600073ffffffffffffffffffffffffffffffffffffffff168173ffffffffffffffffffffffffffffffffffffffff1603611f45576040517f08c379a0000000000000000000000000000000000000000000000000000000008152600401611f3c906135b2565b60405180910390fd5b611f4f8282612047565b15611f8f576040517f08c379a0000000000000000000000000000000000000000000000000000000008152600401611f869061361e565b60405180910390fd5b60018260000160008373ffffffffffffffffffffffffffffffffffffffff1673ffffffffffffffffffffffffffffffffffffffff16815260200190815260200160002060006101000a81548160ff0219169083151502179055505050565b612001816000611ed690919063ffffffff16565b8073ffffffffffffffffffffffffffffffffffffffff167f28b26e7a3d20aedbc5f8f2ebf7da671c0491723a2b78f47a097b0e46dee0714260405160405180910390a250565b60008073ffffffffffffffffffffffffffffffffffffffff168273ffffffffffffffffffffffffffffffffffffffff16036120b7576040517f08c379a00000000000000000000000000000000000000000000000000000000081526004016120ae906135b2565b60405180910390fd5b8260000160008373ffffffffffffffffffffffffffffffffffffffff1673ffffffffffffffffffffffffffffffffffffffff16815260200190815260200160002060009054906101000a900460ff16905092915050565b6121228160006124b390919063ffffffff16565b8073ffffffffffffffffffffffffffffffffffffffff167fe3f5ed5f263f1f01764a96edfc7d025f511ec5f7d180e8816908b78bcf74f09860405160405180910390a250565b61217c8160016124b390919063ffffffff16565b8073ffffffffffffffffffffffffffffffffffffffff167f126174f6cf49c81cdb4a9214c6b8f037bef55b4ec31e4fc776cea2a1c8a88d5960405160405180910390a250565b6121d6816001611ed690919063ffffffff16565b8073ffffffffffffffffffffffffffffffffffffffff167fddbf200aa634dc3fb81cfd68583dd1040d1c751d335e1d86b631bde3e977fea860405160405180910390a250565b612230816002611ed690919063ffffffff16565b8073ffffffffffffffffffffffffffffffffffffffff167f2e0ded4123377a3c2bc9a26f1717655a129e2f20752924d42e730ec89c83dbd060405160405180910390a250565b61228a8160026124b390919063ffffffff16565b8073ffffffffffffffffffffffffffffffffffffffff167fa5e0f060af304ab17dd418c7927e3da3ae7868189bf387aee09ab179ccc572f260405160405180910390a250565b6122e4816003611ed690919063ffffffff16565b8073ffffffffffffffffffffffffffffffffffffffff167f71ae26cad02663e3d92efd6ec56031a80d74a20c0ab4183faa8bf262261c9baa60405160405180910390a250565b61233e8160036124b390919063ffffffff16565b8073ffffffffffffffffffffffffffffffffffffffff167fdb7176e79cffef81cb01767dd0447a0b24bb72ca9778d4b245581086b2a7e6db60405160405180910390a250565b600073ffffffffffffffffffffffffffffffffffffffff168173ffffffffffffffffffffffffffffffffffffffff16036123f3576040517f08c379a00000000000000000000000000000000000000000000000000000000081526004016123ea9061368a565b60405180910390fd5b8073ffffffffffffffffffffffffffffffffffffffff16600960009054906101000a900473ffffffffffffffffffffffffffffffffffffffff1673ffffffffffffffffffffffffffffffffffffffff167f5c486528ec3e3f0ea91181cff8116f02bfa350e03b8b6f12e00765adbb5af85c60405160405180910390a380600960006101000a81548173ffffffffffffffffffffffffffffffffffffffff021916908373ffffffffffffffffffffffffffffffffffffffff16021790555050565b600073ffffffffffffffffffffffffffffffffffffffff168173ffffffffffffffffffffffffffffffffffffffff1603612522576040517f08c379a0000000000000000000000000000000000000000000000000000000008152600401612519906135b2565b60405180910390fd5b61252c8282612047565b61256b576040517f08c379a0000000000000000000000000000000000000000000000000000000008152600401612562906136f6565b60405180910390fd5b60008260000160008373ffffffffffffffffffffffffffffffffffffffff1673ffffffffffffffffffffffffffffffffffffffff16815260200190815260200160002060006101000a81548160ff0219169083151502179055505050565b6000604051905090565b600080fd5b600080fd5b600073ffffffffffffffffffffffffffffffffffffffff82169050919050565b6000612608826125dd565b9050919050565b612618816125fd565b811461262357600080fd5b50565b6000813590506126358161260f565b92915050565b600060208284031215612651576126506125d3565b5b600061265f84828501612626565b91505092915050565b6000819050919050565b61267b81612668565b811461268657600080fd5b50565b60008135905061269881612672565b92915050565b600080fd5b600080fd5b6000601f19601f8301169050919050565b7f4e487b7100000000000000000000000000000000000000000000000000000000600052604160045260246000fd5b6126f1826126a8565b810181811067ffffffffffffffff821117156127105761270f6126b9565b5b80604052505050565b60006127236125c9565b905061272f82826126e8565b919050565b600067ffffffffffffffff82111561274f5761274e6126b9565b5b612758826126a8565b9050602081019050919050565b82818337600083830152505050565b600061278761278284612734565b612719565b9050828152602081018484840111156127a3576127a26126a3565b5b6127ae848285612765565b509392505050565b600082601f8301126127cb576127ca61269e565b5b81356127db848260208601612774565b91505092915050565b600080600080600080600080610100898b031215612805576128046125d3565b5b60006128138b828c01612689565b98505060206128248b828c01612626565b97505060406128358b828c01612626565b965050606089013567ffffffffffffffff811115612856576128556125d8565b5b6128628b828c016127b6565b955050608089013567ffffffffffffffff811115612883576128826125d8565b5b61288f8b828c016127b6565b94505060a089013567ffffffffffffffff8111156128b0576128af6125d8565b5b6128bc8b828c016127b6565b93505060c089013567ffffffffffffffff8111156128dd576128dc6125d8565b5b6128e98b828c016127b6565b92505060e089013567ffffffffffffffff81111561290a576129096125d8565b5b6129168b828c016127b6565b9150509295985092959890939650565b6000806040838503121561293d5761293c6125d3565b5b600061294b85828601612689565b925050602061295c85828601612689565b9150509250929050565b60006020828403121561297c5761297b6125d3565b5b600061298a84828501612689565b91505092915050565b60008115159050919050565b6129a881612993565b82525050565b60006020820190506129c3600083018461299f565b92915050565b6129d281612668565b82525050565b600081519050919050565b600082825260208201905092915050565b60005b83811015612a125780820151818401526020810190506129f7565b83811115612a21576000848401525b50505050565b6000612a32826129d8565b612a3c81856129e3565b9350612a4c8185602086016129f4565b612a55816126a8565b840191505092915050565b612a69816125fd565b82525050565b600061012082019050612a85600083018c6129c9565b612a92602083018b6129c9565b612a9f604083018a6129c9565b8181036060830152612ab18189612a27565b9050612ac060808301886129c9565b612acd60a08301876129c9565b612ada60c0830186612a60565b612ae760e0830185612a60565b612af5610100830184612a60565b9a9950505050505050505050565b600061010082019050612b19600083018b6129c9565b612b26602083018a6129c9565b612b336040830189612a60565b612b406060830188612a60565b8181036080830152612b528187612a27565b905081810360a0830152612b668186612a27565b905081810360c0830152612b7a8185612a27565b905081810360e0830152612b8e8184612a27565b90509998505050505050505050565b6000602082019050612bb26000830184612a60565b92915050565b7f4163636f756e742073686f756c6420626520436f6e73756d6572000000000000600082015250565b6000612bee601a836129e3565b9150612bf982612bb8565b602082019050919050565b60006020820190508181036000830152612c1d81612be1565b9050919050565b7f4163636f756e742073686f756c64206265204661726d65720000000000000000600082015250565b6000612c5a6018836129e3565b9150612c6582612c24565b602082019050919050565b60006020820190508181036000830152612c8981612c4d565b9050919050565b7f4974656d20736b75206e65656420746f20626520300000000000000000000000600082015250565b6000612cc66015836129e3565b9150612cd182612c90565b602082019050919050565b60006020820190508181036000830152612cf581612cb9565b9050919050565b7f4e487b7100000000000000000000000000000000000000000000000000000000600052602160045260246000fd5b7f4e487b7100000000000000000000000000000000000000000000000000000000600052602260045260246000fd5b60006002820490506001821680612d7257607f821691505b602082108103612d8557612d84612d2b565b5b50919050565b60008190508160005260206000209050919050565b60006020601f8301049050919050565b600082821b905092915050565b600060088302612ded7fffffffffffffffffffffffffffffffffffffffffffffffffffffffffffffffff82612db0565b612df78683612db0565b95508019841693508086168417925050509392505050565b6000819050919050565b6000612e34612e2f612e2a84612668565b612e0f565b612668565b9050919050565b6000819050919050565b612e4e83612e19565b612e62612e5a82612e3b565b848454612dbd565b825550505050565b600090565b612e77612e6a565b612e82818484612e45565b505050565b5b81811015612ea657612e9b600082612e6f565b600181019050612e88565b5050565b601f821115612eeb57612ebc81612d8b565b612ec584612da0565b81016020851015612ed4578190505b612ee8612ee085612da0565b830182612e87565b50505b505050565b600082821c905092915050565b6000612f0e60001984600802612ef0565b1980831691505092915050565b6000612f278383612efd565b9150826002028217905092915050565b612f40826129d8565b67ffffffffffffffff811115612f5957612f586126b9565b5b612f638254612d5a565b612f6e828285612eaa565b600060209050601f831160018114612fa15760008415612f8f578287015190505b612f998582612f1b565b865550613001565b601f198416612faf86612d8b565b60005b82811015612fd757848901518255600182019150602085019450602081019050612fb2565b86831015612ff45784890151612ff0601f891682612efd565b8355505b6001600288020188555050505b505050505050565b7f4e487b7100000000000000000000000000000000000000000000000000000000600052601160045260246000fd5b600061304382612668565b915061304e83612668565b9250827fffffffffffffffffffffffffffffffffffffffffffffffffffffffffffffffff0382111561308357613082613009565b5b828201905092915050565b7f4974656d2073746174652073686f756c64206265205061636b65640000000000600082015250565b60006130c4601b836129e3565b91506130cf8261308e565b602082019050919050565b600060208201905081810360008301526130f3816130b7565b9050919050565b7f4973206f776e6572206163636f756e7400000000000000000000000000000000600082015250565b60006131306010836129e3565b915061313b826130fa565b602082019050919050565b6000602082019050818103600083015261315f81613123565b9050919050565b7f4974656d2073746174652073686f756c64206265204861727665737465640000600082015250565b600061319c601e836129e3565b91506131a782613166565b602082019050919050565b600060208201905081810360008301526131cb8161318f565b9050919050565b7f4163636f756e742073686f756c64206265204469737472696275746f72000000600082015250565b6000613208601d836129e3565b9150613213826131d2565b602082019050919050565b60006020820190508181036000830152613237816131fb565b9050919050565b7f4163636f756e742073686f756c642062652052657461696c6572000000000000600082015250565b6000613274601a836129e3565b915061327f8261323e565b602082019050919050565b600060208201905081810360008301526132a381613267565b9050919050565b7f4974656d2073746174652073686f756c64206265205368697070656400000000600082015250565b60006132e0601c836129e3565b91506132eb826132aa565b602082019050919050565b6000602082019050818103600083015261330f816132d3565b9050919050565b7f4974656d2073746174652073686f756c64206265205265636569766564000000600082015250565b600061334c601d836129e3565b915061335782613316565b602082019050919050565b6000602082019050818103600083015261337b8161333f565b9050919050565b7f4974656d2073746174652073686f756c6420626520466f722053616c65000000600082015250565b60006133b8601d836129e3565b91506133c382613382565b602082019050919050565b600060208201905081810360008301526133e7816133ab565b9050919050565b7f5665726966792069662074686520707269636520697320656e6f756768000000600082015250565b6000613424601d836129e3565b915061342f826133ee565b602082019050919050565b6000602082019050818103600083015261345381613417565b9050919050565b600061346582612668565b915061347083612668565b92508282101561348357613482613009565b5b828203905092915050565b7f4974656d2073746174652073686f756c642062652050726f6365737365640000600082015250565b60006134c4601e836129e3565b91506134cf8261348e565b602082019050919050565b600060208201905081810360008301526134f3816134b7565b9050919050565b7f4974656d2073746174652073686f756c6420626520536f6c6400000000000000600082015250565b60006135306019836129e3565b915061353b826134fa565b602082019050919050565b6000602082019050818103600083015261355f81613523565b9050919050565b7f4163636f756e742073686f75646e742062652030000000000000000000000000600082015250565b600061359c6014836129e3565b91506135a782613566565b602082019050919050565b600060208201905081810360008301526135cb8161358f565b9050919050565b7f4163636f756e742073686f756c64206e6f7420686176652074686520726f6c65600082015250565b60006136086020836129e3565b9150613613826135d2565b602082019050919050565b60006020820190508181036000830152613637816135fb565b9050919050565b7f4163636f756e742073686f756c64206e6f742062652030000000000000000000600082015250565b60006136746017836129e3565b915061367f8261363e565b602082019050919050565b600060208201905081810360008301526136a381613667565b9050919050565b7f4163636f756e742073686f756c6420686176652074686520726f6c6500000000600082015250565b60006136e0601c836129e3565b91506136eb826136aa565b602082019050919050565b6000602082019050818103600083015261370f816136d3565b905091905056fea26469706673582212202a8325d8471c587ac0f480344c069984a19747f7963ce0e15554303c81de793a64736f6c634300080f0033",
  "immutableReferences": {},
  "source": "// SPDX-License-Identifier: MIT\npragma solidity ^0.8.15;\n\nimport \"../coffeeBase/SupplyChain.sol\";\n\n/// Provides basic authorization control\ncontract Ownable is SupplyChain {\n    address public origOwner;\n\n    // Define an Event\n    event TransferOwnership(address indexed oldOwner, address indexed newOwner);\n\n    /// Assign the contract to an owner\n    constructor() {\n        origOwner = msg.sender;\n        emit TransferOwnership(address(0), origOwner);\n    }\n\n    /// Define a function modifier 'onlyOwner'\n    modifier onlyOwner() override {\n        require(isOwner(), \"Is owner account\");\n        _;\n    }\n\n    /// Check if the calling address is the owner of the contract\n    function isOwner() public view returns (bool) {\n        return msg.sender == origOwner;\n    }\n\n    /// Define a function to renounce ownerhip\n    function renounceOwnership() public onlyOwner {\n        emit TransferOwnership(origOwner, address(0));\n        origOwner = address(0);\n    }\n\n    /// Define a public function to transfer ownership\n    function transferOwnership(address newOwner) public onlyOwner {\n        _transferOwnership(newOwner);\n    }\n\n    /// Define an internal function to transfer ownership\n    function _transferOwnership(address newOwner) internal {\n        require(newOwner != address(0), \"Account should not be 0\");\n        emit TransferOwnership(origOwner, newOwner);\n        origOwner = newOwner;\n    }\n}\n",
  "sourcePath": "/home/rafamessias/Documents/udacity/Ethereum/dapp-sc-project/truffle/contracts/coffeecore/Ownable.sol",
  "compiler": {
    "name": "solc",
    "version": "0.8.15+commit.e14f2714.Emscripten.clang"
  },
  "schemaVersion": "3.4.8",
  "updatedAt": "2022-08-23T12:16:08.747Z",
  "devdoc": {
    "kind": "dev",
    "methods": {},
    "version": 1
  },
  "userdoc": {
    "kind": "user",
    "methods": {
      "constructor": {
        "notice": "Assign the contract to an owner"
      },
      "isOwner()": {
        "notice": "Check if the calling address is the owner of the contract"
      },
      "renounceOwnership()": {
        "notice": "Define a function to renounce ownerhip"
      },
      "transferOwnership(address)": {
        "notice": "Define a public function to transfer ownership"
      }
    },
    "notice": "Provides basic authorization control",
    "version": 1
  }
}