{
  "contractName": "SupplyChain",
  "abi": [
    {
      "inputs": [],
      "stateMutability": "payable",
      "type": "constructor"
    },
    {
      "anonymous": false,
      "inputs": [
        {
          "indexed": true,
          "internalType": "address",
          "name": "account",
          "type": "address"
        }
      ],
      "name": "ConsumerAdded",
      "type": "event"
    },
    {
      "anonymous": false,
      "inputs": [
        {
          "indexed": true,
          "internalType": "address",
          "name": "account",
          "type": "address"
        }
      ],
      "name": "ConsumerRemoved",
      "type": "event"
    },
    {
      "anonymous": false,
      "inputs": [
        {
          "indexed": true,
          "internalType": "address",
          "name": "account",
          "type": "address"
        }
      ],
      "name": "DistributorAdded",
      "type": "event"
    },
    {
      "anonymous": false,
      "inputs": [
        {
          "indexed": true,
          "internalType": "address",
          "name": "account",
          "type": "address"
        }
      ],
      "name": "DistributorRemoved",
      "type": "event"
    },
    {
      "anonymous": false,
      "inputs": [
        {
          "indexed": true,
          "internalType": "address",
          "name": "account",
          "type": "address"
        }
      ],
      "name": "FarmerAdded",
      "type": "event"
    },
    {
      "anonymous": false,
      "inputs": [
        {
          "indexed": true,
          "internalType": "address",
          "name": "account",
          "type": "address"
        }
      ],
      "name": "FarmerRemoved",
      "type": "event"
    },
    {
      "anonymous": false,
      "inputs": [
        {
          "indexed": false,
          "internalType": "uint256",
          "name": "upc",
          "type": "uint256"
        }
      ],
      "name": "ForSale",
      "type": "event"
    },
    {
      "anonymous": false,
      "inputs": [
        {
          "indexed": false,
          "internalType": "uint256",
          "name": "upc",
          "type": "uint256"
        }
      ],
      "name": "Harvested",
      "type": "event"
    },
    {
      "anonymous": false,
      "inputs": [
        {
          "indexed": false,
          "internalType": "uint256",
          "name": "upc",
          "type": "uint256"
        }
      ],
      "name": "Packed",
      "type": "event"
    },
    {
      "anonymous": false,
      "inputs": [
        {
          "indexed": false,
          "internalType": "uint256",
          "name": "upc",
          "type": "uint256"
        }
      ],
      "name": "Processed",
      "type": "event"
    },
    {
      "anonymous": false,
      "inputs": [
        {
          "indexed": false,
          "internalType": "uint256",
          "name": "upc",
          "type": "uint256"
        }
      ],
      "name": "Purchased",
      "type": "event"
    },
    {
      "anonymous": false,
      "inputs": [
        {
          "indexed": false,
          "internalType": "uint256",
          "name": "upc",
          "type": "uint256"
        }
      ],
      "name": "Received",
      "type": "event"
    },
    {
      "anonymous": false,
      "inputs": [
        {
          "indexed": true,
          "internalType": "address",
          "name": "account",
          "type": "address"
        }
      ],
      "name": "RetailerAdded",
      "type": "event"
    },
    {
      "anonymous": false,
      "inputs": [
        {
          "indexed": true,
          "internalType": "address",
          "name": "account",
          "type": "address"
        }
      ],
      "name": "RetailerRemoved",
      "type": "event"
    },
    {
      "anonymous": false,
      "inputs": [
        {
          "indexed": false,
          "internalType": "uint256",
          "name": "upc",
          "type": "uint256"
        }
      ],
      "name": "Shipped",
      "type": "event"
    },
    {
      "anonymous": false,
      "inputs": [
        {
          "indexed": false,
          "internalType": "uint256",
          "name": "upc",
          "type": "uint256"
        }
      ],
      "name": "Sold",
      "type": "event"
    },
    {
      "inputs": [
        {
          "internalType": "address",
          "name": "account",
          "type": "address"
        }
      ],
      "name": "addConsumer",
      "outputs": [],
      "stateMutability": "nonpayable",
      "type": "function"
    },
    {
      "inputs": [
        {
          "internalType": "address",
          "name": "account",
          "type": "address"
        }
      ],
      "name": "addDistributor",
      "outputs": [],
      "stateMutability": "nonpayable",
      "type": "function"
    },
    {
      "inputs": [
        {
          "internalType": "address",
          "name": "account",
          "type": "address"
        }
      ],
      "name": "addFarmer",
      "outputs": [],
      "stateMutability": "nonpayable",
      "type": "function"
    },
    {
      "inputs": [
        {
          "internalType": "address",
          "name": "account",
          "type": "address"
        }
      ],
      "name": "addRetailer",
      "outputs": [],
      "stateMutability": "nonpayable",
      "type": "function"
    },
    {
      "inputs": [
        {
          "internalType": "address",
          "name": "account",
          "type": "address"
        }
      ],
      "name": "isConsumer",
      "outputs": [
        {
          "internalType": "bool",
          "name": "",
          "type": "bool"
        }
      ],
      "stateMutability": "view",
      "type": "function"
    },
    {
      "inputs": [
        {
          "internalType": "address",
          "name": "account",
          "type": "address"
        }
      ],
      "name": "isDistributor",
      "outputs": [
        {
          "internalType": "bool",
          "name": "",
          "type": "bool"
        }
      ],
      "stateMutability": "view",
      "type": "function"
    },
    {
      "inputs": [
        {
          "internalType": "address",
          "name": "account",
          "type": "address"
        }
      ],
      "name": "isFarmer",
      "outputs": [
        {
          "internalType": "bool",
          "name": "",
          "type": "bool"
        }
      ],
      "stateMutability": "view",
      "type": "function"
    },
    {
      "inputs": [
        {
          "internalType": "address",
          "name": "account",
          "type": "address"
        }
      ],
      "name": "isRetailer",
      "outputs": [
        {
          "internalType": "bool",
          "name": "",
          "type": "bool"
        }
      ],
      "stateMutability": "view",
      "type": "function"
    },
    {
      "inputs": [],
      "name": "renounceConsumer",
      "outputs": [],
      "stateMutability": "nonpayable",
      "type": "function"
    },
    {
      "inputs": [],
      "name": "renounceDistributor",
      "outputs": [],
      "stateMutability": "nonpayable",
      "type": "function"
    },
    {
      "inputs": [],
      "name": "renounceFarmer",
      "outputs": [],
      "stateMutability": "nonpayable",
      "type": "function"
    },
    {
      "inputs": [],
      "name": "renounceRetailer",
      "outputs": [],
      "stateMutability": "nonpayable",
      "type": "function"
    },
    {
      "inputs": [],
      "name": "kill",
      "outputs": [],
      "stateMutability": "nonpayable",
      "type": "function"
    },
    {
      "inputs": [
        {
          "internalType": "uint256",
          "name": "_upc",
          "type": "uint256"
        },
        {
          "internalType": "address",
          "name": "_ownerID",
          "type": "address"
        },
        {
          "internalType": "address",
          "name": "_originFarmerID",
          "type": "address"
        },
        {
          "internalType": "string",
          "name": "_originFarmName",
          "type": "string"
        },
        {
          "internalType": "string",
          "name": "_originFarmInformation",
          "type": "string"
        },
        {
          "internalType": "string",
          "name": "_originFarmLatitude",
          "type": "string"
        },
        {
          "internalType": "string",
          "name": "_originFarmLongitude",
          "type": "string"
        },
        {
          "internalType": "string",
          "name": "_productNotes",
          "type": "string"
        }
      ],
      "name": "harvestItem",
      "outputs": [],
      "stateMutability": "nonpayable",
      "type": "function"
    },
    {
      "inputs": [
        {
          "internalType": "uint256",
          "name": "_upc",
          "type": "uint256"
        }
      ],
      "name": "processItem",
      "outputs": [],
      "stateMutability": "nonpayable",
      "type": "function"
    },
    {
      "inputs": [
        {
          "internalType": "uint256",
          "name": "_upc",
          "type": "uint256"
        }
      ],
      "name": "packItem",
      "outputs": [],
      "stateMutability": "nonpayable",
      "type": "function"
    },
    {
      "inputs": [
        {
          "internalType": "uint256",
          "name": "_upc",
          "type": "uint256"
        },
        {
          "internalType": "uint256",
          "name": "_price",
          "type": "uint256"
        }
      ],
      "name": "sellItem",
      "outputs": [],
      "stateMutability": "nonpayable",
      "type": "function"
    },
    {
      "inputs": [
        {
          "internalType": "uint256",
          "name": "_upc",
          "type": "uint256"
        }
      ],
      "name": "buyItem",
      "outputs": [],
      "stateMutability": "payable",
      "type": "function"
    },
    {
      "inputs": [
        {
          "internalType": "uint256",
          "name": "_upc",
          "type": "uint256"
        }
      ],
      "name": "shipItem",
      "outputs": [],
      "stateMutability": "nonpayable",
      "type": "function"
    },
    {
      "inputs": [
        {
          "internalType": "uint256",
          "name": "_upc",
          "type": "uint256"
        }
      ],
      "name": "receiveItem",
      "outputs": [],
      "stateMutability": "nonpayable",
      "type": "function"
    },
    {
      "inputs": [
        {
          "internalType": "uint256",
          "name": "_upc",
          "type": "uint256"
        }
      ],
      "name": "purchaseItem",
      "outputs": [],
      "stateMutability": "nonpayable",
      "type": "function"
    },
    {
      "inputs": [
        {
          "internalType": "uint256",
          "name": "_upc",
          "type": "uint256"
        }
      ],
      "name": "fetchItemBufferOne",
      "outputs": [
        {
          "internalType": "uint256",
          "name": "itemSKU",
          "type": "uint256"
        },
        {
          "internalType": "uint256",
          "name": "itemUPC",
          "type": "uint256"
        },
        {
          "internalType": "address",
          "name": "ownerID",
          "type": "address"
        },
        {
          "internalType": "address",
          "name": "originFarmerID",
          "type": "address"
        },
        {
          "internalType": "string",
          "name": "originFarmName",
          "type": "string"
        },
        {
          "internalType": "string",
          "name": "originFarmInformation",
          "type": "string"
        },
        {
          "internalType": "string",
          "name": "originFarmLatitude",
          "type": "string"
        },
        {
          "internalType": "string",
          "name": "originFarmLongitude",
          "type": "string"
        }
      ],
      "stateMutability": "view",
      "type": "function"
    },
    {
      "inputs": [
        {
          "internalType": "uint256",
          "name": "_upc",
          "type": "uint256"
        }
      ],
      "name": "fetchItemBufferTwo",
      "outputs": [
        {
          "internalType": "uint256",
          "name": "itemSKU",
          "type": "uint256"
        },
        {
          "internalType": "uint256",
          "name": "itemUPC",
          "type": "uint256"
        },
        {
          "internalType": "uint256",
          "name": "productID",
          "type": "uint256"
        },
        {
          "internalType": "string",
          "name": "productNotes",
          "type": "string"
        },
        {
          "internalType": "uint256",
          "name": "productPrice",
          "type": "uint256"
        },
        {
          "internalType": "uint256",
          "name": "itemState",
          "type": "uint256"
        },
        {
          "internalType": "address",
          "name": "distributorID",
          "type": "address"
        },
        {
          "internalType": "address",
          "name": "retailerID",
          "type": "address"
        },
        {
          "internalType": "address",
          "name": "consumerID",
          "type": "address"
        }
      ],
      "stateMutability": "view",
      "type": "function"
    }
  ],
  "bytecode": "0x608060405262000015336200009f60201b60201c565b62000026336200010060201b60201c565b62000037336200016160201b60201c565b6200004833620001c260201b60201c565b33600460006101000a81548173ffffffffffffffffffffffffffffffffffffffff021916908373ffffffffffffffffffffffffffffffffffffffff1602179055506001600681905550600160058190555062000507565b620000ba8160006200022360201b62001ca41790919060201c565b8073ffffffffffffffffffffffffffffffffffffffff167f28b26e7a3d20aedbc5f8f2ebf7da671c0491723a2b78f47a097b0e46dee0714260405160405180910390a250565b6200011b8160016200022360201b62001ca41790919060201c565b8073ffffffffffffffffffffffffffffffffffffffff167fddbf200aa634dc3fb81cfd68583dd1040d1c751d335e1d86b631bde3e977fea860405160405180910390a250565b6200017c8160026200022360201b62001ca41790919060201c565b8073ffffffffffffffffffffffffffffffffffffffff167f2e0ded4123377a3c2bc9a26f1717655a129e2f20752924d42e730ec89c83dbd060405160405180910390a250565b620001dd8160036200022360201b62001ca41790919060201c565b8073ffffffffffffffffffffffffffffffffffffffff167f71ae26cad02663e3d92efd6ec56031a80d74a20c0ab4183faa8bf262261c9baa60405160405180910390a250565b600073ffffffffffffffffffffffffffffffffffffffff168173ffffffffffffffffffffffffffffffffffffffff160362000295576040517f08c379a00000000000000000000000000000000000000000000000000000000081526004016200028c9062000473565b60405180910390fd5b620002a782826200034860201b60201c565b15620002ea576040517f08c379a0000000000000000000000000000000000000000000000000000000008152600401620002e190620004e5565b60405180910390fd5b60018260000160008373ffffffffffffffffffffffffffffffffffffffff1673ffffffffffffffffffffffffffffffffffffffff16815260200190815260200160002060006101000a81548160ff0219169083151502179055505050565b60008073ffffffffffffffffffffffffffffffffffffffff168273ffffffffffffffffffffffffffffffffffffffff1603620003bb576040517f08c379a0000000000000000000000000000000000000000000000000000000008152600401620003b29062000473565b60405180910390fd5b8260000160008373ffffffffffffffffffffffffffffffffffffffff1673ffffffffffffffffffffffffffffffffffffffff16815260200190815260200160002060009054906101000a900460ff16905092915050565b600082825260208201905092915050565b7f4163636f756e742073686f75646e742062652030000000000000000000000000600082015250565b60006200045b60148362000412565b9150620004688262000423565b602082019050919050565b600060208201905081810360008301526200048e816200044c565b9050919050565b7f4163636f756e742073686f756c64206e6f7420686176652074686520726f6c65600082015250565b6000620004cd60208362000412565b9150620004da8262000495565b602082019050919050565b600060208201905081810360008301526200050081620004be565b9050919050565b61337f80620005176000396000f3fe6080604052600436106101405760003560e01c806380c3f96d116100b6578063b94290691161006f578063b942906914610429578063d38ea5bf14610466578063db0e6a2f1461048f578063e7fb74c7146104a6578063f30fc480146104c2578063f61c899a146104eb57610140565b806380c3f96d1461031d57806380fc0ce414610346578063834ff7391461035d5780638ec4f5051461039a5780638f0c86fa146103c3578063a26be9991461040057610140565b80635da09b88116101085780635da09b881461020057806361e6982d1461023d578063644241db1461025457806366225ff91461026b5780637250e224146102b057806377c45913146102d957610140565b8063112940f9146101455780631f4f32611461016e5780632d9235611461019757806341c0e1b5146101c057806349dae766146101d7575b600080fd5b34801561015157600080fd5b5061016c600480360381019061016791906122da565b610514565b005b34801561017a57600080fd5b5061019560048036038101906101909190612483565b610568565b005b3480156101a357600080fd5b506101be60048036038101906101b991906125c5565b610836565b005b3480156101cc57600080fd5b506101d561099f565b005b3480156101e357600080fd5b506101fe60048036038101906101f99190612605565b610a6a565b005b34801561020c57600080fd5b50610227600480360381019061022291906122da565b610bb7565b604051610234919061264d565b60405180910390f35b34801561024957600080fd5b50610252610bd4565b005b34801561026057600080fd5b50610269610bdf565b005b34801561027757600080fd5b50610292600480360381019061028d9190612605565b610bea565b6040516102a79998979695949392919061270e565b60405180910390f35b3480156102bc57600080fd5b506102d760048036038101906102d291906122da565b610dee565b005b3480156102e557600080fd5b5061030060048036038101906102fb9190612605565b610e42565b6040516103149897969594939291906127a2565b60405180910390f35b34801561032957600080fd5b50610344600480360381019061033f91906122da565b611181565b005b34801561035257600080fd5b5061035b6111d5565b005b34801561036957600080fd5b50610384600480360381019061037f91906122da565b6111e0565b604051610391919061264d565b60405180910390f35b3480156103a657600080fd5b506103c160048036038101906103bc91906122da565b6111fd565b005b3480156103cf57600080fd5b506103ea60048036038101906103e591906122da565b611251565b6040516103f7919061264d565b60405180910390f35b34801561040c57600080fd5b5061042760048036038101906104229190612605565b61126e565b005b34801561043557600080fd5b50610450600480360381019061044b91906122da565b611465565b60405161045d919061264d565b60405180910390f35b34801561047257600080fd5b5061048d60048036038101906104889190612605565b611482565b005b34801561049b57600080fd5b506104a4611678565b005b6104c060048036038101906104bb9190612605565b611683565b005b3480156104ce57600080fd5b506104e960048036038101906104e49190612605565b611a0a565b005b3480156104f757600080fd5b50610512600480360381019061050d9190612605565b611b57565b005b61051d336111e0565b61055c576040517f08c379a000000000000000000000000000000000000000000000000000000000815260040161055390612888565b60405180910390fd5b61056581611dbb565b50565b61057133611465565b6105b0576040517f08c379a00000000000000000000000000000000000000000000000000000000081526004016105a7906128f4565b60405180910390fd5b6000600760008a81526020019081526020016000206000015414610609576040517f08c379a000000000000000000000000000000000000000000000000000000000815260040161060090612960565b60405180910390fd5b600654600760008a815260200190815260200160002060000181905550600554600760008a81526020019081526020016000206001018190555086600760008a815260200190815260200160002060020160006101000a81548173ffffffffffffffffffffffffffffffffffffffff021916908373ffffffffffffffffffffffffffffffffffffffff1602179055506000600760008a8152602001908152602001600020600b0160006101000a81548160ff021916908360078111156106d2576106d1612980565b5b021790555085600760008a815260200190815260200160002060030160006101000a81548173ffffffffffffffffffffffffffffffffffffffff021916908373ffffffffffffffffffffffffffffffffffffffff16021790555084600760008a8152602001908152602001600020600401908161074f9190612bbb565b5083600760008a815260200190815260200160002060050190816107739190612bbb565b5082600760008a815260200190815260200160002060060190816107979190612bbb565b5081600760008a815260200190815260200160002060070190816107bb9190612bbb565b5080600760008a815260200190815260200160002060090190816107df9190612bbb565b5060016006546107ef9190612cbc565b6006819055507f8e55ccfc9778ff8eba1646d765cf1982537ce0f9257054a17b48aad745250183886040516108249190612d12565b60405180910390a15050505050505050565b61083f33611465565b61087e576040517f08c379a0000000000000000000000000000000000000000000000000000000008152600401610875906128f4565b60405180910390fd5b816002600781111561089357610892612980565b5b60076000838152602001908152602001600020600b0160009054906101000a900460ff1660078111156108c9576108c8612980565b5b14610909576040517f08c379a000000000000000000000000000000000000000000000000000000000815260040161090090612d79565b60405180910390fd5b8160076000858152602001908152602001600020600a0181905550600360076000858152602001908152602001600020600b0160006101000a81548160ff0219169083600781111561095e5761095d612980565b5b02179055507fa96ae0fc3224ebd79eebfe54bd130cc9cb94416cddd1f2386115e00b72532468836040516109929190612d12565b60405180910390a1505050565b600460009054906101000a900473ffffffffffffffffffffffffffffffffffffffff1673ffffffffffffffffffffffffffffffffffffffff163373ffffffffffffffffffffffffffffffffffffffff1614610a2f576040517f08c379a0000000000000000000000000000000000000000000000000000000008152600401610a2690612de5565b60405180910390fd5b600460009054906101000a900473ffffffffffffffffffffffffffffffffffffffff1673ffffffffffffffffffffffffffffffffffffffff16ff5b610a7333611465565b610ab2576040517f08c379a0000000000000000000000000000000000000000000000000000000008152600401610aa9906128f4565b60405180910390fd5b8060006007811115610ac757610ac6612980565b5b60076000838152602001908152602001600020600b0160009054906101000a900460ff166007811115610afd57610afc612980565b5b14610b3d576040517f08c379a0000000000000000000000000000000000000000000000000000000008152600401610b3490612e51565b60405180910390fd5b600160076000848152602001908152602001600020600b0160006101000a81548160ff02191690836007811115610b7757610b76612980565b5b02179055507f5afe3b1bf87069693c075da5c22a98d63d1aef98a30dbbe538d0781a98b77ee582604051610bab9190612d12565b60405180910390a15050565b6000610bcd826003611e1590919063ffffffff16565b9050919050565b610bdd33611edc565b565b610be833611f36565b565b600080600060606000806000806000600760008b8152602001908152602001600020600001549850600760008b8152602001908152602001600020600101549750600760008b8152602001908152602001600020600801549650600760008b81526020019081526020016000206009018054610c65906129de565b80601f0160208091040260200160405190810160405280929190818152602001828054610c91906129de565b8015610cde5780601f10610cb357610100808354040283529160200191610cde565b820191906000526020600020905b815481529060010190602001808311610cc157829003601f168201915b50505050509550600760008b8152602001908152602001600020600a01549450600760008b8152602001908152602001600020600b0160009054906101000a900460ff166007811115610d3457610d33612980565b5b9350600760008b8152602001908152602001600020600b0160019054906101000a900473ffffffffffffffffffffffffffffffffffffffff169250600760008b8152602001908152602001600020600c0160009054906101000a900473ffffffffffffffffffffffffffffffffffffffff169150600760008b8152602001908152602001600020600d0160009054906101000a900473ffffffffffffffffffffffffffffffffffffffff1690509193959799909294969850565b610df733611251565b610e36576040517f08c379a0000000000000000000000000000000000000000000000000000000008152600401610e2d90612ebd565b60405180910390fd5b610e3f81611f90565b50565b600080600080606080606080600760008a8152602001908152602001600020600001549750600760008a8152602001908152602001600020600101549650600760008a815260200190815260200160002060020160009054906101000a900473ffffffffffffffffffffffffffffffffffffffff169550600760008a815260200190815260200160002060030160009054906101000a900473ffffffffffffffffffffffffffffffffffffffff169450600760008a81526020019081526020016000206004018054610f13906129de565b80601f0160208091040260200160405190810160405280929190818152602001828054610f3f906129de565b8015610f8c5780601f10610f6157610100808354040283529160200191610f8c565b820191906000526020600020905b815481529060010190602001808311610f6f57829003601f168201915b50505050509350600760008a81526020019081526020016000206005018054610fb4906129de565b80601f0160208091040260200160405190810160405280929190818152602001828054610fe0906129de565b801561102d5780601f106110025761010080835404028352916020019161102d565b820191906000526020600020905b81548152906001019060200180831161101057829003601f168201915b50505050509250600760008a81526020019081526020016000206006018054611055906129de565b80601f0160208091040260200160405190810160405280929190818152602001828054611081906129de565b80156110ce5780601f106110a3576101008083540402835291602001916110ce565b820191906000526020600020905b8154815290600101906020018083116110b157829003601f168201915b50505050509150600760008a815260200190815260200160002060070180546110f6906129de565b80601f0160208091040260200160405190810160405280929190818152602001828054611122906129de565b801561116f5780601f106111445761010080835404028352916020019161116f565b820191906000526020600020905b81548152906001019060200180831161115257829003601f168201915b50505050509050919395975091939597565b61118a33611465565b6111c9576040517f08c379a00000000000000000000000000000000000000000000000000000000081526004016111c0906128f4565b60405180910390fd5b6111d281611fea565b50565b6111de33612044565b565b60006111f6826000611e1590919063ffffffff16565b9050919050565b61120633610bb7565b611245576040517f08c379a000000000000000000000000000000000000000000000000000000000815260040161123c90612f29565b60405180910390fd5b61124e8161209e565b50565b6000611267826001611e1590919063ffffffff16565b9050919050565b61127733610bb7565b6112b6576040517f08c379a00000000000000000000000000000000000000000000000000000000081526004016112ad90612f29565b60405180910390fd5b80600560078111156112cb576112ca612980565b5b60076000838152602001908152602001600020600b0160009054906101000a900460ff16600781111561130157611300612980565b5b14611341576040517f08c379a000000000000000000000000000000000000000000000000000000000815260040161133890612f95565b60405180910390fd5b336007600084815260200190815260200160002060020160006101000a81548173ffffffffffffffffffffffffffffffffffffffff021916908373ffffffffffffffffffffffffffffffffffffffff1602179055503360076000848152602001908152602001600020600c0160006101000a81548173ffffffffffffffffffffffffffffffffffffffff021916908373ffffffffffffffffffffffffffffffffffffffff160217905550600660076000848152602001908152602001600020600b0160006101000a81548160ff0219169083600781111561142557611424612980565b5b02179055507fa8142743f8f70a4c26f3691cf4ed59718381fb2f18070ec52be1f1022d855557826040516114599190612d12565b60405180910390a15050565b600061147b826002611e1590919063ffffffff16565b9050919050565b61148b336111e0565b6114ca576040517f08c379a00000000000000000000000000000000000000000000000000000000081526004016114c190612888565b60405180910390fd5b80600660078111156114df576114de612980565b5b60076000838152602001908152602001600020600b0160009054906101000a900460ff16600781111561151557611514612980565b5b14611555576040517f08c379a000000000000000000000000000000000000000000000000000000000815260040161154c90613001565b60405180910390fd5b336007600084815260200190815260200160002060020160006101000a81548173ffffffffffffffffffffffffffffffffffffffff021916908373ffffffffffffffffffffffffffffffffffffffff1602179055503360076000848152602001908152602001600020600d0160006101000a81548173ffffffffffffffffffffffffffffffffffffffff021916908373ffffffffffffffffffffffffffffffffffffffff1602179055506007806000848152602001908152602001600020600b0160006101000a81548160ff0219169083600781111561163857611637612980565b5b02179055507f653d56639fee6b566a5c804764e9689de38645f0b733df89a36a1b7b42173dd88260405161166c9190612d12565b60405180910390a15050565b611681336120f8565b565b61168c33611251565b6116cb576040517f08c379a00000000000000000000000000000000000000000000000000000000081526004016116c290612ebd565b60405180910390fd5b80600360078111156116e0576116df612980565b5b60076000838152602001908152602001600020600b0160009054906101000a900460ff16600781111561171657611715612980565b5b14611756576040517f08c379a000000000000000000000000000000000000000000000000000000000815260040161174d9061306d565b60405180910390fd5b60076000838152602001908152602001600020600a0154803410156117b0576040517f08c379a00000000000000000000000000000000000000000000000000000000081526004016117a7906130d9565b60405180910390fd5b8260006007600086815260200190815260200160002060020160009054906101000a900473ffffffffffffffffffffffffffffffffffffffff169050336007600087815260200190815260200160002060020160006101000a81548173ffffffffffffffffffffffffffffffffffffffff021916908373ffffffffffffffffffffffffffffffffffffffff1602179055503360076000878152602001908152602001600020600b0160016101000a81548173ffffffffffffffffffffffffffffffffffffffff021916908373ffffffffffffffffffffffffffffffffffffffff160217905550600460076000878152602001908152602001600020600b0160006101000a81548160ff021916908360078111156118d0576118cf612980565b5b02179055508073ffffffffffffffffffffffffffffffffffffffff166108fc349081150290604051600060405180830381858888f1935050505015801561191b573d6000803e3d6000fd5b507f92f64ca637d023f354075a4be751b169c1a8a9ccb6d33cdd0cb35205439957278560405161194b9190612d12565b60405180910390a150600060076000838152602001908152602001600020600a015490506000813461197d91906130f9565b9050600060076000858152602001908152602001600020600d0160009054906101000a900473ffffffffffffffffffffffffffffffffffffffff1690508073ffffffffffffffffffffffffffffffffffffffff166108fc839081150290604051600060405180830381858888f19350505050158015611a00573d6000803e3d6000fd5b5050505050505050565b611a1333611465565b611a52576040517f08c379a0000000000000000000000000000000000000000000000000000000008152600401611a49906128f4565b60405180910390fd5b8060016007811115611a6757611a66612980565b5b60076000838152602001908152602001600020600b0160009054906101000a900460ff166007811115611a9d57611a9c612980565b5b14611add576040517f08c379a0000000000000000000000000000000000000000000000000000000008152600401611ad490613179565b60405180910390fd5b600260076000848152602001908152602001600020600b0160006101000a81548160ff02191690836007811115611b1757611b16612980565b5b02179055507f9b3b66e2380b690bae22c73ef1428fb0c91e72fe14a4b6defa13035214187aff82604051611b4b9190612d12565b60405180910390a15050565b611b6033611251565b611b9f576040517f08c379a0000000000000000000000000000000000000000000000000000000008152600401611b9690612ebd565b60405180910390fd5b8060046007811115611bb457611bb3612980565b5b60076000838152602001908152602001600020600b0160009054906101000a900460ff166007811115611bea57611be9612980565b5b14611c2a576040517f08c379a0000000000000000000000000000000000000000000000000000000008152600401611c21906131e5565b60405180910390fd5b600560076000848152602001908152602001600020600b0160006101000a81548160ff02191690836007811115611c6457611c63612980565b5b02179055507ff00b9a5725b80c54016f42114f6ed7792d22eecb116011c4afac29c57bef6c9582604051611c989190612d12565b60405180910390a15050565b600073ffffffffffffffffffffffffffffffffffffffff168173ffffffffffffffffffffffffffffffffffffffff1603611d13576040517f08c379a0000000000000000000000000000000000000000000000000000000008152600401611d0a90613251565b60405180910390fd5b611d1d8282611e15565b15611d5d576040517f08c379a0000000000000000000000000000000000000000000000000000000008152600401611d54906132bd565b60405180910390fd5b60018260000160008373ffffffffffffffffffffffffffffffffffffffff1673ffffffffffffffffffffffffffffffffffffffff16815260200190815260200160002060006101000a81548160ff0219169083151502179055505050565b611dcf816000611ca490919063ffffffff16565b8073ffffffffffffffffffffffffffffffffffffffff167f28b26e7a3d20aedbc5f8f2ebf7da671c0491723a2b78f47a097b0e46dee0714260405160405180910390a250565b60008073ffffffffffffffffffffffffffffffffffffffff168273ffffffffffffffffffffffffffffffffffffffff1603611e85576040517f08c379a0000000000000000000000000000000000000000000000000000000008152600401611e7c90613251565b60405180910390fd5b8260000160008373ffffffffffffffffffffffffffffffffffffffff1673ffffffffffffffffffffffffffffffffffffffff16815260200190815260200160002060009054906101000a900460ff16905092915050565b611ef081600061215290919063ffffffff16565b8073ffffffffffffffffffffffffffffffffffffffff167fe3f5ed5f263f1f01764a96edfc7d025f511ec5f7d180e8816908b78bcf74f09860405160405180910390a250565b611f4a81600161215290919063ffffffff16565b8073ffffffffffffffffffffffffffffffffffffffff167f126174f6cf49c81cdb4a9214c6b8f037bef55b4ec31e4fc776cea2a1c8a88d5960405160405180910390a250565b611fa4816001611ca490919063ffffffff16565b8073ffffffffffffffffffffffffffffffffffffffff167fddbf200aa634dc3fb81cfd68583dd1040d1c751d335e1d86b631bde3e977fea860405160405180910390a250565b611ffe816002611ca490919063ffffffff16565b8073ffffffffffffffffffffffffffffffffffffffff167f2e0ded4123377a3c2bc9a26f1717655a129e2f20752924d42e730ec89c83dbd060405160405180910390a250565b61205881600261215290919063ffffffff16565b8073ffffffffffffffffffffffffffffffffffffffff167fa5e0f060af304ab17dd418c7927e3da3ae7868189bf387aee09ab179ccc572f260405160405180910390a250565b6120b2816003611ca490919063ffffffff16565b8073ffffffffffffffffffffffffffffffffffffffff167f71ae26cad02663e3d92efd6ec56031a80d74a20c0ab4183faa8bf262261c9baa60405160405180910390a250565b61210c81600361215290919063ffffffff16565b8073ffffffffffffffffffffffffffffffffffffffff167fdb7176e79cffef81cb01767dd0447a0b24bb72ca9778d4b245581086b2a7e6db60405160405180910390a250565b600073ffffffffffffffffffffffffffffffffffffffff168173ffffffffffffffffffffffffffffffffffffffff16036121c1576040517f08c379a00000000000000000000000000000000000000000000000000000000081526004016121b890613251565b60405180910390fd5b6121cb8282611e15565b61220a576040517f08c379a000000000000000000000000000000000000000000000000000000000815260040161220190613329565b60405180910390fd5b60008260000160008373ffffffffffffffffffffffffffffffffffffffff1673ffffffffffffffffffffffffffffffffffffffff16815260200190815260200160002060006101000a81548160ff0219169083151502179055505050565b6000604051905090565b600080fd5b600080fd5b600073ffffffffffffffffffffffffffffffffffffffff82169050919050565b60006122a78261227c565b9050919050565b6122b78161229c565b81146122c257600080fd5b50565b6000813590506122d4816122ae565b92915050565b6000602082840312156122f0576122ef612272565b5b60006122fe848285016122c5565b91505092915050565b6000819050919050565b61231a81612307565b811461232557600080fd5b50565b60008135905061233781612311565b92915050565b600080fd5b600080fd5b6000601f19601f8301169050919050565b7f4e487b7100000000000000000000000000000000000000000000000000000000600052604160045260246000fd5b61239082612347565b810181811067ffffffffffffffff821117156123af576123ae612358565b5b80604052505050565b60006123c2612268565b90506123ce8282612387565b919050565b600067ffffffffffffffff8211156123ee576123ed612358565b5b6123f782612347565b9050602081019050919050565b82818337600083830152505050565b6000612426612421846123d3565b6123b8565b90508281526020810184848401111561244257612441612342565b5b61244d848285612404565b509392505050565b600082601f83011261246a5761246961233d565b5b813561247a848260208601612413565b91505092915050565b600080600080600080600080610100898b0312156124a4576124a3612272565b5b60006124b28b828c01612328565b98505060206124c38b828c016122c5565b97505060406124d48b828c016122c5565b965050606089013567ffffffffffffffff8111156124f5576124f4612277565b5b6125018b828c01612455565b955050608089013567ffffffffffffffff81111561252257612521612277565b5b61252e8b828c01612455565b94505060a089013567ffffffffffffffff81111561254f5761254e612277565b5b61255b8b828c01612455565b93505060c089013567ffffffffffffffff81111561257c5761257b612277565b5b6125888b828c01612455565b92505060e089013567ffffffffffffffff8111156125a9576125a8612277565b5b6125b58b828c01612455565b9150509295985092959890939650565b600080604083850312156125dc576125db612272565b5b60006125ea85828601612328565b92505060206125fb85828601612328565b9150509250929050565b60006020828403121561261b5761261a612272565b5b600061262984828501612328565b91505092915050565b60008115159050919050565b61264781612632565b82525050565b6000602082019050612662600083018461263e565b92915050565b61267181612307565b82525050565b600081519050919050565b600082825260208201905092915050565b60005b838110156126b1578082015181840152602081019050612696565b838111156126c0576000848401525b50505050565b60006126d182612677565b6126db8185612682565b93506126eb818560208601612693565b6126f481612347565b840191505092915050565b6127088161229c565b82525050565b600061012082019050612724600083018c612668565b612731602083018b612668565b61273e604083018a612668565b818103606083015261275081896126c6565b905061275f6080830188612668565b61276c60a0830187612668565b61277960c08301866126ff565b61278660e08301856126ff565b6127946101008301846126ff565b9a9950505050505050505050565b6000610100820190506127b8600083018b612668565b6127c5602083018a612668565b6127d260408301896126ff565b6127df60608301886126ff565b81810360808301526127f181876126c6565b905081810360a083015261280581866126c6565b905081810360c083015261281981856126c6565b905081810360e083015261282d81846126c6565b90509998505050505050505050565b7f4163636f756e742073686f756c6420626520436f6e73756d6572000000000000600082015250565b6000612872601a83612682565b915061287d8261283c565b602082019050919050565b600060208201905081810360008301526128a181612865565b9050919050565b7f4163636f756e742073686f756c64206265204661726d65720000000000000000600082015250565b60006128de601883612682565b91506128e9826128a8565b602082019050919050565b6000602082019050818103600083015261290d816128d1565b9050919050565b7f4974656d20736b75206e65656420746f20626520300000000000000000000000600082015250565b600061294a601583612682565b915061295582612914565b602082019050919050565b600060208201905081810360008301526129798161293d565b9050919050565b7f4e487b7100000000000000000000000000000000000000000000000000000000600052602160045260246000fd5b7f4e487b7100000000000000000000000000000000000000000000000000000000600052602260045260246000fd5b600060028204905060018216806129f657607f821691505b602082108103612a0957612a086129af565b5b50919050565b60008190508160005260206000209050919050565b60006020601f8301049050919050565b600082821b905092915050565b600060088302612a717fffffffffffffffffffffffffffffffffffffffffffffffffffffffffffffffff82612a34565b612a7b8683612a34565b95508019841693508086168417925050509392505050565b6000819050919050565b6000612ab8612ab3612aae84612307565b612a93565b612307565b9050919050565b6000819050919050565b612ad283612a9d565b612ae6612ade82612abf565b848454612a41565b825550505050565b600090565b612afb612aee565b612b06818484612ac9565b505050565b5b81811015612b2a57612b1f600082612af3565b600181019050612b0c565b5050565b601f821115612b6f57612b4081612a0f565b612b4984612a24565b81016020851015612b58578190505b612b6c612b6485612a24565b830182612b0b565b50505b505050565b600082821c905092915050565b6000612b9260001984600802612b74565b1980831691505092915050565b6000612bab8383612b81565b9150826002028217905092915050565b612bc482612677565b67ffffffffffffffff811115612bdd57612bdc612358565b5b612be782546129de565b612bf2828285612b2e565b600060209050601f831160018114612c255760008415612c13578287015190505b612c1d8582612b9f565b865550612c85565b601f198416612c3386612a0f565b60005b82811015612c5b57848901518255600182019150602085019450602081019050612c36565b86831015612c785784890151612c74601f891682612b81565b8355505b6001600288020188555050505b505050505050565b7f4e487b7100000000000000000000000000000000000000000000000000000000600052601160045260246000fd5b6000612cc782612307565b9150612cd283612307565b9250827fffffffffffffffffffffffffffffffffffffffffffffffffffffffffffffffff03821115612d0757612d06612c8d565b5b828201905092915050565b6000602082019050612d276000830184612668565b92915050565b7f4974656d2073746174652073686f756c64206265205061636b65640000000000600082015250565b6000612d63601b83612682565b9150612d6e82612d2d565b602082019050919050565b60006020820190508181036000830152612d9281612d56565b9050919050565b7f4f6e6c79206f776e657200000000000000000000000000000000000000000000600082015250565b6000612dcf600a83612682565b9150612dda82612d99565b602082019050919050565b60006020820190508181036000830152612dfe81612dc2565b9050919050565b7f4974656d2073746174652073686f756c64206265204861727665737465640000600082015250565b6000612e3b601e83612682565b9150612e4682612e05565b602082019050919050565b60006020820190508181036000830152612e6a81612e2e565b9050919050565b7f4163636f756e742073686f756c64206265204469737472696275746f72000000600082015250565b6000612ea7601d83612682565b9150612eb282612e71565b602082019050919050565b60006020820190508181036000830152612ed681612e9a565b9050919050565b7f4163636f756e742073686f756c642062652052657461696c6572000000000000600082015250565b6000612f13601a83612682565b9150612f1e82612edd565b602082019050919050565b60006020820190508181036000830152612f4281612f06565b9050919050565b7f4974656d2073746174652073686f756c64206265205368697070656400000000600082015250565b6000612f7f601c83612682565b9150612f8a82612f49565b602082019050919050565b60006020820190508181036000830152612fae81612f72565b9050919050565b7f4974656d2073746174652073686f756c64206265205265636569766564000000600082015250565b6000612feb601d83612682565b9150612ff682612fb5565b602082019050919050565b6000602082019050818103600083015261301a81612fde565b9050919050565b7f4974656d2073746174652073686f756c6420626520466f722053616c65000000600082015250565b6000613057601d83612682565b915061306282613021565b602082019050919050565b600060208201905081810360008301526130868161304a565b9050919050565b7f5665726966792069662074686520707269636520697320656e6f756768000000600082015250565b60006130c3601d83612682565b91506130ce8261308d565b602082019050919050565b600060208201905081810360008301526130f2816130b6565b9050919050565b600061310482612307565b915061310f83612307565b92508282101561312257613121612c8d565b5b828203905092915050565b7f4974656d2073746174652073686f756c642062652050726f6365737365640000600082015250565b6000613163601e83612682565b915061316e8261312d565b602082019050919050565b6000602082019050818103600083015261319281613156565b9050919050565b7f4974656d2073746174652073686f756c6420626520536f6c6400000000000000600082015250565b60006131cf601983612682565b91506131da82613199565b602082019050919050565b600060208201905081810360008301526131fe816131c2565b9050919050565b7f4163636f756e742073686f75646e742062652030000000000000000000000000600082015250565b600061323b601483612682565b915061324682613205565b602082019050919050565b6000602082019050818103600083015261326a8161322e565b9050919050565b7f4163636f756e742073686f756c64206e6f7420686176652074686520726f6c65600082015250565b60006132a7602083612682565b91506132b282613271565b602082019050919050565b600060208201905081810360008301526132d68161329a565b9050919050565b7f4163636f756e742073686f756c6420686176652074686520726f6c6500000000600082015250565b6000613313601c83612682565b915061331e826132dd565b602082019050919050565b6000602082019050818103600083015261334281613306565b905091905056fea264697066735822122074a2fc9e90a21197e9117cc6e2d1da5054488ce42325a09f6a2201335403e15164736f6c634300080f0033",
  "immutableReferences": {},
  "source": "// SPDX-License-Identifier: MIT\npragma solidity ^0.8.15;\n\nimport \"../coffeeAccessControl/ConsumerRole.sol\";\nimport \"../coffeeAccessControl/DistributorRole.sol\";\nimport \"../coffeeAccessControl/FarmerRole.sol\";\nimport \"../coffeeAccessControl/RetailerRole.sol\";\n\n// Define a contract 'Supplychain'\ncontract SupplyChain is\n    ConsumerRole,\n    DistributorRole,\n    FarmerRole,\n    RetailerRole\n{\n    // Define 'owner'\n    address owner;\n\n    // Define a variable called 'upc' for Universal Product Code (UPC)\n    uint256 upc;\n\n    // Define a variable called 'sku' for Stock Keeping Unit (SKU)\n    uint256 sku;\n\n    // Define a public mapping 'items' that maps the UPC to an Item.\n    mapping(uint256 => Item) items;\n\n    // Define a public mapping 'itemsHistory' that maps the UPC to an array of TxHash,\n    // that track its journey through the supply chain -- to be sent from DApp.\n    mapping(uint256 => string[]) itemsHistory;\n\n    // Define enum 'State' with the following values:\n    enum State {\n        Harvested, // 0\n        Processed, // 1\n        Packed, // 2\n        ForSale, // 3\n        Sold, // 4\n        Shipped, // 5\n        Received, // 6\n        Purchased // 7\n    }\n\n    State constant defaultState = State.Harvested;\n\n    // Define a struct 'Item' with the following fields:\n    struct Item {\n        uint256 sku; // Stock Keeping Unit (SKU)\n        uint256 upc; // Universal Product Code (UPC), generated by the Farmer, goes on the package, can be verified by the Consumer\n        address ownerID; // Metamask-Ethereum address of the current owner as the product moves through 8 stages\n        address originFarmerID; // Metamask-Ethereum address of the Farmer\n        string originFarmName; // Farmer Name\n        string originFarmInformation; // Farmer Information\n        string originFarmLatitude; // Farm Latitude\n        string originFarmLongitude; // Farm Longitude\n        uint256 productID; // Product ID potentially a combination of upc + sku\n        string productNotes; // Product Notes\n        uint256 productPrice; // Product Price\n        State itemState; // Product State as represented in the enum above\n        address distributorID; // Metamask-Ethereum address of the Distributor\n        address retailerID; // Metamask-Ethereum address of the Retailer\n        address consumerID; // Metamask-Ethereum address of the Consumer\n    }\n\n    // Define 8 events with the same 8 state values and accept 'upc' as input argument\n    event Harvested(uint256 upc);\n    event Processed(uint256 upc);\n    event Packed(uint256 upc);\n    event ForSale(uint256 upc);\n    event Sold(uint256 upc);\n    event Shipped(uint256 upc);\n    event Received(uint256 upc);\n    event Purchased(uint256 upc);\n\n    // Define a modifer that checks to see if msg.sender == owner of the contract\n    modifier onlyOwner() virtual {\n        require(msg.sender == owner, \"Only owner\");\n        _;\n    }\n\n    // Define a modifer that verifies the Caller\n    modifier verifyCaller(address _address) {\n        require(msg.sender == _address, \"Address should be sent\");\n        _;\n    }\n\n    // Define a modifier that checks if the paid amount is sufficient to cover the price\n    modifier paidEnough(uint256 _price) {\n        require(msg.value >= _price, \"Verify if the price is enough\");\n        _;\n    }\n\n    // Define a modifier that checks the price and refunds the remaining balance\n    modifier checkValue(uint256 _upc) {\n        _;\n        uint256 _price = items[_upc].productPrice;\n        uint256 amountToReturn = msg.value - _price;\n        address payable consumerID = payable(items[_upc].consumerID);\n        consumerID.transfer(amountToReturn);\n    }\n\n    // Define a modifier that checks if an item.state of a upc is Harvested\n    modifier harvested(uint256 _upc) {\n        require(\n            items[_upc].itemState == State.Harvested,\n            \"Item state should be Harvested\"\n        );\n        _;\n    }\n\n    // Define a modifier that checks if an item.state of a upc is Processed\n    modifier processed(uint256 _upc) {\n        require(\n            items[_upc].itemState == State.Processed,\n            \"Item state should be Processed\"\n        );\n        _;\n    }\n\n    // Define a modifier that checks if an item.state of a upc is Packed\n    modifier packed(uint256 _upc) {\n        require(\n            items[_upc].itemState == State.Packed,\n            \"Item state should be Packed\"\n        );\n        _;\n    }\n\n    // Define a modifier that checks if an item.state of a upc is ForSale\n    modifier forSale(uint256 _upc) {\n        require(\n            items[_upc].itemState == State.ForSale,\n            \"Item state should be For Sale\"\n        );\n        _;\n    }\n\n    // Define a modifier that checks if an item.state of a upc is Sold\n    modifier sold(uint256 _upc) {\n        require(\n            items[_upc].itemState == State.Sold,\n            \"Item state should be Sold\"\n        );\n        _;\n    }\n\n    // Define a modifier that checks if an item.state of a upc is Shipped\n    modifier shipped(uint256 _upc) {\n        require(\n            items[_upc].itemState == State.Shipped,\n            \"Item state should be Shipped\"\n        );\n        _;\n    }\n\n    // Define a modifier that checks if an item.state of a upc is Received\n    modifier received(uint256 _upc) {\n        require(\n            items[_upc].itemState == State.Received,\n            \"Item state should be Received\"\n        );\n        _;\n    }\n\n    // Define a modifier that checks if an item.state of a upc is Purchased\n    modifier purchased(uint256 _upc) {\n        require(\n            items[_upc].itemState == State.Purchased,\n            \"Item state should be Purchased\"\n        );\n        _;\n    }\n\n    // In the constructor set 'owner' to the address that instantiated the contract\n    // and set 'sku' to 1\n    // and set 'upc' to 1\n    constructor() payable {\n        owner = msg.sender;\n        sku = 1;\n        upc = 1;\n    }\n\n    // Define a function 'kill' if required\n    function kill() public onlyOwner {\n        selfdestruct(payable(owner));\n    }\n\n    // Define a function 'harvestItem' that allows a farmer to mark an item 'Harvested'\n    function harvestItem(\n        uint256 _upc,\n        address _ownerID,\n        address _originFarmerID,\n        string memory _originFarmName,\n        string memory _originFarmInformation,\n        string memory _originFarmLatitude,\n        string memory _originFarmLongitude,\n        string memory _productNotes\n    ) public onlyFarmer {\n        require(items[_upc].sku == 0, \"Item sku need to be 0\");\n\n        // Add the new item as part of Harvest\n        items[_upc].sku = sku;\n        items[_upc].upc = upc;\n        items[_upc].ownerID = _ownerID;\n        items[_upc].itemState = defaultState;\n        items[_upc].originFarmerID = _originFarmerID;\n        items[_upc].originFarmName = _originFarmName;\n        items[_upc].originFarmInformation = _originFarmInformation;\n        items[_upc].originFarmLatitude = _originFarmLatitude;\n        items[_upc].originFarmLongitude = _originFarmLongitude;\n        items[_upc].productNotes = _productNotes;\n\n        // Increment sku\n        sku = sku + 1;\n        emit Harvested(_upc);\n    }\n\n    // Define a function 'processtItem' that allows a farmer to mark an item 'Processed'\n    function processItem(uint256 _upc) public onlyFarmer harvested(_upc) {\n        items[_upc].itemState = State.Processed;\n        emit Processed(_upc);\n    }\n\n    // Define a function 'packItem' that allows a farmer to mark an item 'Packed'\n    function packItem(uint256 _upc) public onlyFarmer processed(_upc) {\n        items[_upc].itemState = State.Packed;\n        emit Packed(_upc);\n    }\n\n    // Define a function 'sellItem' that allows a farmer to mark an item 'ForSale'\n    function sellItem(uint256 _upc, uint256 _price)\n        public\n        onlyFarmer\n        packed(_upc)\n    {\n        items[_upc].productPrice = _price;\n        items[_upc].itemState = State.ForSale;\n        emit ForSale(_upc);\n    }\n\n    // Define a function 'buyItem' that allows the disributor to mark an item 'Sold'\n    // Use the above defined modifiers to check if the item is available for sale, if the buyer has paid enough,\n    // and any excess ether sent is refunded back to the buyer\n    function buyItem(uint256 _upc)\n        public\n        payable\n        onlyDistributor\n        forSale(_upc)\n        paidEnough(items[_upc].productPrice)\n        checkValue(_upc)\n    {\n        address payable farmer = payable(items[_upc].ownerID);\n\n        items[_upc].ownerID = msg.sender;\n        items[_upc].distributorID = msg.sender;\n        items[_upc].itemState = State.Sold;\n\n        farmer.transfer(msg.value);\n        emit Sold(_upc);\n    }\n\n    // Define a function 'shipItem' that allows the distributor to mark an item 'Shipped'\n    // Use the above modifers to check if the item is sold\n    function shipItem(uint256 _upc) public onlyDistributor sold(_upc) {\n        items[_upc].itemState = State.Shipped;\n        emit Shipped(_upc);\n    }\n\n    // Define a function 'receiveItem' that allows the retailer to mark an item 'Received'\n    // Use the above modifiers to check if the item is shipped\n    function receiveItem(uint256 _upc) public onlyRetailer shipped(_upc) {\n        items[_upc].ownerID = msg.sender;\n        items[_upc].retailerID = msg.sender;\n        items[_upc].itemState = State.Received;\n        emit Received(_upc);\n    }\n\n    // Define a function 'purchaseItem' that allows the consumer to mark an item 'Purchased'\n    // Use the above modifiers to check if the item is received\n    function purchaseItem(uint256 _upc) public onlyConsumer received(_upc) {\n        items[_upc].ownerID = msg.sender;\n        items[_upc].consumerID = msg.sender;\n        items[_upc].itemState = State.Purchased;\n        emit Purchased(_upc);\n    }\n\n    // Define a function 'fetchItemBufferOne' that fetches the data\n    function fetchItemBufferOne(uint256 _upc)\n        public\n        view\n        returns (\n            uint256 itemSKU,\n            uint256 itemUPC,\n            address ownerID,\n            address originFarmerID,\n            string memory originFarmName,\n            string memory originFarmInformation,\n            string memory originFarmLatitude,\n            string memory originFarmLongitude\n        )\n    {\n        itemSKU = items[_upc].sku;\n        itemUPC = items[_upc].upc;\n        ownerID = items[_upc].ownerID;\n        originFarmerID = items[_upc].originFarmerID;\n        originFarmName = items[_upc].originFarmName;\n        originFarmInformation = items[_upc].originFarmInformation;\n        originFarmLatitude = items[_upc].originFarmLatitude;\n        originFarmLongitude = items[_upc].originFarmLongitude;\n\n        return (\n            itemSKU,\n            itemUPC,\n            ownerID,\n            originFarmerID,\n            originFarmName,\n            originFarmInformation,\n            originFarmLatitude,\n            originFarmLongitude\n        );\n    }\n\n    // Define a function 'fetchItemBufferTwo' that fetches the data\n    function fetchItemBufferTwo(uint256 _upc)\n        public\n        view\n        returns (\n            uint256 itemSKU,\n            uint256 itemUPC,\n            uint256 productID,\n            string memory productNotes,\n            uint256 productPrice,\n            uint256 itemState,\n            address distributorID,\n            address retailerID,\n            address consumerID\n        )\n    {\n        itemSKU = items[_upc].sku;\n        itemUPC = items[_upc].upc;\n        productID = items[_upc].productID;\n        productNotes = items[_upc].productNotes;\n        productPrice = items[_upc].productPrice;\n        itemState = uint256(items[_upc].itemState);\n        distributorID = items[_upc].distributorID;\n        retailerID = items[_upc].retailerID;\n        consumerID = items[_upc].consumerID;\n\n        return (\n            itemSKU,\n            itemUPC,\n            productID,\n            productNotes,\n            productPrice,\n            itemState,\n            distributorID,\n            retailerID,\n            consumerID\n        );\n    }\n}\n",
  "sourcePath": "/home/rafamessias/Documents/udacity/Ethereum/dapp-sc-project/truffle/contracts/coffeeBase/SupplyChain.sol",
  "compiler": {
    "name": "solc",
    "version": "0.8.15+commit.e14f2714.Emscripten.clang"
  },
  "schemaVersion": "3.4.8",
  "updatedAt": "2022-08-23T02:08:54.904Z",
  "devdoc": {
    "kind": "dev",
    "methods": {},
    "version": 1
  },
  "userdoc": {
    "kind": "user",
    "methods": {},
    "version": 1
  }
}