{
  "contractName": "SupplyChain",
  "abi": [
    {
      "inputs": [],
      "stateMutability": "payable",
      "type": "constructor"
    },
    {
      "anonymous": false,
      "inputs": [
        {
          "indexed": true,
          "internalType": "address",
          "name": "account",
          "type": "address"
        }
      ],
      "name": "ConsumerAdded",
      "type": "event"
    },
    {
      "anonymous": false,
      "inputs": [
        {
          "indexed": true,
          "internalType": "address",
          "name": "account",
          "type": "address"
        }
      ],
      "name": "ConsumerRemoved",
      "type": "event"
    },
    {
      "anonymous": false,
      "inputs": [
        {
          "indexed": true,
          "internalType": "address",
          "name": "account",
          "type": "address"
        }
      ],
      "name": "DistributorAdded",
      "type": "event"
    },
    {
      "anonymous": false,
      "inputs": [
        {
          "indexed": true,
          "internalType": "address",
          "name": "account",
          "type": "address"
        }
      ],
      "name": "DistributorRemoved",
      "type": "event"
    },
    {
      "anonymous": false,
      "inputs": [
        {
          "indexed": true,
          "internalType": "address",
          "name": "account",
          "type": "address"
        }
      ],
      "name": "FarmerAdded",
      "type": "event"
    },
    {
      "anonymous": false,
      "inputs": [
        {
          "indexed": true,
          "internalType": "address",
          "name": "account",
          "type": "address"
        }
      ],
      "name": "FarmerRemoved",
      "type": "event"
    },
    {
      "anonymous": false,
      "inputs": [
        {
          "indexed": true,
          "internalType": "uint256",
          "name": "upc",
          "type": "uint256"
        }
      ],
      "name": "ForSale",
      "type": "event"
    },
    {
      "anonymous": false,
      "inputs": [
        {
          "indexed": true,
          "internalType": "uint256",
          "name": "upc",
          "type": "uint256"
        }
      ],
      "name": "Harvested",
      "type": "event"
    },
    {
      "anonymous": false,
      "inputs": [
        {
          "indexed": true,
          "internalType": "uint256",
          "name": "upc",
          "type": "uint256"
        }
      ],
      "name": "Packed",
      "type": "event"
    },
    {
      "anonymous": false,
      "inputs": [
        {
          "indexed": true,
          "internalType": "uint256",
          "name": "upc",
          "type": "uint256"
        }
      ],
      "name": "Processed",
      "type": "event"
    },
    {
      "anonymous": false,
      "inputs": [
        {
          "indexed": true,
          "internalType": "uint256",
          "name": "upc",
          "type": "uint256"
        }
      ],
      "name": "Purchased",
      "type": "event"
    },
    {
      "anonymous": false,
      "inputs": [
        {
          "indexed": true,
          "internalType": "uint256",
          "name": "upc",
          "type": "uint256"
        }
      ],
      "name": "Received",
      "type": "event"
    },
    {
      "anonymous": false,
      "inputs": [
        {
          "indexed": true,
          "internalType": "address",
          "name": "account",
          "type": "address"
        }
      ],
      "name": "RetailerAdded",
      "type": "event"
    },
    {
      "anonymous": false,
      "inputs": [
        {
          "indexed": true,
          "internalType": "address",
          "name": "account",
          "type": "address"
        }
      ],
      "name": "RetailerRemoved",
      "type": "event"
    },
    {
      "anonymous": false,
      "inputs": [
        {
          "indexed": true,
          "internalType": "uint256",
          "name": "upc",
          "type": "uint256"
        }
      ],
      "name": "Shipped",
      "type": "event"
    },
    {
      "anonymous": false,
      "inputs": [
        {
          "indexed": true,
          "internalType": "uint256",
          "name": "upc",
          "type": "uint256"
        }
      ],
      "name": "Sold",
      "type": "event"
    },
    {
      "inputs": [
        {
          "internalType": "address",
          "name": "account",
          "type": "address"
        }
      ],
      "name": "addConsumer",
      "outputs": [],
      "stateMutability": "nonpayable",
      "type": "function"
    },
    {
      "inputs": [
        {
          "internalType": "address",
          "name": "account",
          "type": "address"
        }
      ],
      "name": "addDistributor",
      "outputs": [],
      "stateMutability": "nonpayable",
      "type": "function"
    },
    {
      "inputs": [
        {
          "internalType": "address",
          "name": "account",
          "type": "address"
        }
      ],
      "name": "addFarmer",
      "outputs": [],
      "stateMutability": "nonpayable",
      "type": "function"
    },
    {
      "inputs": [
        {
          "internalType": "address",
          "name": "account",
          "type": "address"
        }
      ],
      "name": "addRetailer",
      "outputs": [],
      "stateMutability": "nonpayable",
      "type": "function"
    },
    {
      "inputs": [
        {
          "internalType": "address",
          "name": "account",
          "type": "address"
        }
      ],
      "name": "isConsumer",
      "outputs": [
        {
          "internalType": "bool",
          "name": "",
          "type": "bool"
        }
      ],
      "stateMutability": "view",
      "type": "function"
    },
    {
      "inputs": [
        {
          "internalType": "address",
          "name": "account",
          "type": "address"
        }
      ],
      "name": "isDistributor",
      "outputs": [
        {
          "internalType": "bool",
          "name": "",
          "type": "bool"
        }
      ],
      "stateMutability": "view",
      "type": "function"
    },
    {
      "inputs": [
        {
          "internalType": "address",
          "name": "account",
          "type": "address"
        }
      ],
      "name": "isFarmer",
      "outputs": [
        {
          "internalType": "bool",
          "name": "",
          "type": "bool"
        }
      ],
      "stateMutability": "view",
      "type": "function"
    },
    {
      "inputs": [
        {
          "internalType": "address",
          "name": "account",
          "type": "address"
        }
      ],
      "name": "isRetailer",
      "outputs": [
        {
          "internalType": "bool",
          "name": "",
          "type": "bool"
        }
      ],
      "stateMutability": "view",
      "type": "function"
    },
    {
      "inputs": [],
      "name": "renounceConsumer",
      "outputs": [],
      "stateMutability": "nonpayable",
      "type": "function"
    },
    {
      "inputs": [],
      "name": "renounceDistributor",
      "outputs": [],
      "stateMutability": "nonpayable",
      "type": "function"
    },
    {
      "inputs": [],
      "name": "renounceFarmer",
      "outputs": [],
      "stateMutability": "nonpayable",
      "type": "function"
    },
    {
      "inputs": [],
      "name": "renounceRetailer",
      "outputs": [],
      "stateMutability": "nonpayable",
      "type": "function"
    },
    {
      "inputs": [],
      "name": "kill",
      "outputs": [],
      "stateMutability": "nonpayable",
      "type": "function"
    },
    {
      "inputs": [
        {
          "internalType": "uint256",
          "name": "_upc",
          "type": "uint256"
        },
        {
          "internalType": "address",
          "name": "_ownerID",
          "type": "address"
        },
        {
          "internalType": "address",
          "name": "_originFarmerID",
          "type": "address"
        },
        {
          "internalType": "string",
          "name": "_originFarmName",
          "type": "string"
        },
        {
          "internalType": "string",
          "name": "_originFarmInformation",
          "type": "string"
        },
        {
          "internalType": "string",
          "name": "_originFarmLatitude",
          "type": "string"
        },
        {
          "internalType": "string",
          "name": "_originFarmLongitude",
          "type": "string"
        },
        {
          "internalType": "string",
          "name": "_productNotes",
          "type": "string"
        }
      ],
      "name": "harvestItem",
      "outputs": [],
      "stateMutability": "nonpayable",
      "type": "function"
    },
    {
      "inputs": [
        {
          "internalType": "uint256",
          "name": "_upc",
          "type": "uint256"
        }
      ],
      "name": "processItem",
      "outputs": [],
      "stateMutability": "nonpayable",
      "type": "function"
    },
    {
      "inputs": [
        {
          "internalType": "uint256",
          "name": "_upc",
          "type": "uint256"
        }
      ],
      "name": "packItem",
      "outputs": [],
      "stateMutability": "nonpayable",
      "type": "function"
    },
    {
      "inputs": [
        {
          "internalType": "uint256",
          "name": "_upc",
          "type": "uint256"
        },
        {
          "internalType": "uint256",
          "name": "_price",
          "type": "uint256"
        }
      ],
      "name": "sellItem",
      "outputs": [],
      "stateMutability": "nonpayable",
      "type": "function"
    },
    {
      "inputs": [
        {
          "internalType": "uint256",
          "name": "_upc",
          "type": "uint256"
        }
      ],
      "name": "buyItem",
      "outputs": [],
      "stateMutability": "payable",
      "type": "function"
    },
    {
      "inputs": [
        {
          "internalType": "uint256",
          "name": "_upc",
          "type": "uint256"
        }
      ],
      "name": "shipItem",
      "outputs": [],
      "stateMutability": "nonpayable",
      "type": "function"
    },
    {
      "inputs": [
        {
          "internalType": "uint256",
          "name": "_upc",
          "type": "uint256"
        }
      ],
      "name": "receiveItem",
      "outputs": [],
      "stateMutability": "nonpayable",
      "type": "function"
    },
    {
      "inputs": [
        {
          "internalType": "uint256",
          "name": "_upc",
          "type": "uint256"
        }
      ],
      "name": "purchaseItem",
      "outputs": [],
      "stateMutability": "nonpayable",
      "type": "function"
    },
    {
      "inputs": [
        {
          "internalType": "uint256",
          "name": "_upc",
          "type": "uint256"
        }
      ],
      "name": "fetchItemBufferOne",
      "outputs": [
        {
          "internalType": "uint256",
          "name": "itemSKU",
          "type": "uint256"
        },
        {
          "internalType": "uint256",
          "name": "itemUPC",
          "type": "uint256"
        },
        {
          "internalType": "address",
          "name": "ownerID",
          "type": "address"
        },
        {
          "internalType": "address",
          "name": "originFarmerID",
          "type": "address"
        },
        {
          "internalType": "string",
          "name": "originFarmName",
          "type": "string"
        },
        {
          "internalType": "string",
          "name": "originFarmInformation",
          "type": "string"
        },
        {
          "internalType": "string",
          "name": "originFarmLatitude",
          "type": "string"
        },
        {
          "internalType": "string",
          "name": "originFarmLongitude",
          "type": "string"
        }
      ],
      "stateMutability": "view",
      "type": "function"
    },
    {
      "inputs": [
        {
          "internalType": "uint256",
          "name": "_upc",
          "type": "uint256"
        }
      ],
      "name": "fetchItemBufferTwo",
      "outputs": [
        {
          "internalType": "uint256",
          "name": "itemSKU",
          "type": "uint256"
        },
        {
          "internalType": "uint256",
          "name": "itemUPC",
          "type": "uint256"
        },
        {
          "internalType": "uint256",
          "name": "productID",
          "type": "uint256"
        },
        {
          "internalType": "string",
          "name": "productNotes",
          "type": "string"
        },
        {
          "internalType": "uint256",
          "name": "productPrice",
          "type": "uint256"
        },
        {
          "internalType": "uint256",
          "name": "itemState",
          "type": "uint256"
        },
        {
          "internalType": "address",
          "name": "distributorID",
          "type": "address"
        },
        {
          "internalType": "address",
          "name": "retailerID",
          "type": "address"
        },
        {
          "internalType": "address",
          "name": "consumerID",
          "type": "address"
        }
      ],
      "stateMutability": "view",
      "type": "function"
    }
  ],
  "bytecode": "0x608060405262000015336200009f60201b60201c565b62000026336200010060201b60201c565b62000037336200016160201b60201c565b6200004833620001c260201b60201c565b33600460006101000a81548173ffffffffffffffffffffffffffffffffffffffff021916908373ffffffffffffffffffffffffffffffffffffffff1602179055506001600681905550600160058190555062000507565b620000ba8160006200022360201b62001c541790919060201c565b8073ffffffffffffffffffffffffffffffffffffffff167f28b26e7a3d20aedbc5f8f2ebf7da671c0491723a2b78f47a097b0e46dee0714260405160405180910390a250565b6200011b8160016200022360201b62001c541790919060201c565b8073ffffffffffffffffffffffffffffffffffffffff167fddbf200aa634dc3fb81cfd68583dd1040d1c751d335e1d86b631bde3e977fea860405160405180910390a250565b6200017c8160026200022360201b62001c541790919060201c565b8073ffffffffffffffffffffffffffffffffffffffff167f2e0ded4123377a3c2bc9a26f1717655a129e2f20752924d42e730ec89c83dbd060405160405180910390a250565b620001dd8160036200022360201b62001c541790919060201c565b8073ffffffffffffffffffffffffffffffffffffffff167f71ae26cad02663e3d92efd6ec56031a80d74a20c0ab4183faa8bf262261c9baa60405160405180910390a250565b600073ffffffffffffffffffffffffffffffffffffffff168173ffffffffffffffffffffffffffffffffffffffff160362000295576040517f08c379a00000000000000000000000000000000000000000000000000000000081526004016200028c9062000473565b60405180910390fd5b620002a782826200034860201b60201c565b15620002ea576040517f08c379a0000000000000000000000000000000000000000000000000000000008152600401620002e190620004e5565b60405180910390fd5b60018260000160008373ffffffffffffffffffffffffffffffffffffffff1673ffffffffffffffffffffffffffffffffffffffff16815260200190815260200160002060006101000a81548160ff0219169083151502179055505050565b60008073ffffffffffffffffffffffffffffffffffffffff168273ffffffffffffffffffffffffffffffffffffffff1603620003bb576040517f08c379a0000000000000000000000000000000000000000000000000000000008152600401620003b29062000473565b60405180910390fd5b8260000160008373ffffffffffffffffffffffffffffffffffffffff1673ffffffffffffffffffffffffffffffffffffffff16815260200190815260200160002060009054906101000a900460ff16905092915050565b600082825260208201905092915050565b7f4163636f756e742073686f75646e742062652030000000000000000000000000600082015250565b60006200045b60148362000412565b9150620004688262000423565b602082019050919050565b600060208201905081810360008301526200048e816200044c565b9050919050565b7f4163636f756e742073686f756c64206e6f7420686176652074686520726f6c65600082015250565b6000620004cd60208362000412565b9150620004da8262000495565b602082019050919050565b600060208201905081810360008301526200050081620004be565b9050919050565b61331480620005176000396000f3fe6080604052600436106101405760003560e01c806380c3f96d116100b6578063b94290691161006f578063b942906914610429578063d38ea5bf14610466578063db0e6a2f1461048f578063e7fb74c7146104a6578063f30fc480146104c2578063f61c899a146104eb57610140565b806380c3f96d1461031d57806380fc0ce414610346578063834ff7391461035d5780638ec4f5051461039a5780638f0c86fa146103c3578063a26be9991461040057610140565b80635da09b88116101085780635da09b881461020057806361e6982d1461023d578063644241db1461025457806366225ff91461026b5780637250e224146102b057806377c45913146102d957610140565b8063112940f9146101455780631f4f32611461016e5780632d9235611461019757806341c0e1b5146101c057806349dae766146101d7575b600080fd5b34801561015157600080fd5b5061016c6004803603810190610167919061228a565b610514565b005b34801561017a57600080fd5b5061019560048036038101906101909190612433565b610568565b005b3480156101a357600080fd5b506101be60048036038101906101b99190612575565b61082c565b005b3480156101cc57600080fd5b506101d561098b565b005b3480156101e357600080fd5b506101fe60048036038101906101f991906125b5565b610a56565b005b34801561020c57600080fd5b506102276004803603810190610222919061228a565b610b99565b60405161023491906125fd565b60405180910390f35b34801561024957600080fd5b50610252610bb6565b005b34801561026057600080fd5b50610269610bc1565b005b34801561027757600080fd5b50610292600480360381019061028d91906125b5565b610bcc565b6040516102a7999897969594939291906126be565b60405180910390f35b3480156102bc57600080fd5b506102d760048036038101906102d2919061228a565b610dd0565b005b3480156102e557600080fd5b5061030060048036038101906102fb91906125b5565b610e24565b604051610314989796959493929190612752565b60405180910390f35b34801561032957600080fd5b50610344600480360381019061033f919061228a565b611163565b005b34801561035257600080fd5b5061035b6111b7565b005b34801561036957600080fd5b50610384600480360381019061037f919061228a565b6111c2565b60405161039191906125fd565b60405180910390f35b3480156103a657600080fd5b506103c160048036038101906103bc919061228a565b6111df565b005b3480156103cf57600080fd5b506103ea60048036038101906103e5919061228a565b611233565b6040516103f791906125fd565b60405180910390f35b34801561040c57600080fd5b50610427600480360381019061042291906125b5565b611250565b005b34801561043557600080fd5b50610450600480360381019061044b919061228a565b61143d565b60405161045d91906125fd565b60405180910390f35b34801561047257600080fd5b5061048d600480360381019061048891906125b5565b61145a565b005b34801561049b57600080fd5b506104a4611646565b005b6104c060048036038101906104bb91906125b5565b611651565b005b3480156104ce57600080fd5b506104e960048036038101906104e491906125b5565b6119ce565b005b3480156104f757600080fd5b50610512600480360381019061050d91906125b5565b611b11565b005b61051d336111c2565b61055c576040517f08c379a000000000000000000000000000000000000000000000000000000000815260040161055390612838565b60405180910390fd5b61056581611d6b565b50565b6105713361143d565b6105b0576040517f08c379a00000000000000000000000000000000000000000000000000000000081526004016105a7906128a4565b60405180910390fd5b6000600760008a81526020019081526020016000206000015414610609576040517f08c379a000000000000000000000000000000000000000000000000000000000815260040161060090612910565b60405180910390fd5b600654600760008a815260200190815260200160002060000181905550600554600760008a81526020019081526020016000206001018190555086600760008a815260200190815260200160002060020160006101000a81548173ffffffffffffffffffffffffffffffffffffffff021916908373ffffffffffffffffffffffffffffffffffffffff1602179055506000600760008a8152602001908152602001600020600b0160006101000a81548160ff021916908360078111156106d2576106d1612930565b5b021790555085600760008a815260200190815260200160002060030160006101000a81548173ffffffffffffffffffffffffffffffffffffffff021916908373ffffffffffffffffffffffffffffffffffffffff16021790555084600760008a8152602001908152602001600020600401908161074f9190612b6b565b5083600760008a815260200190815260200160002060050190816107739190612b6b565b5082600760008a815260200190815260200160002060060190816107979190612b6b565b5081600760008a815260200190815260200160002060070190816107bb9190612b6b565b5080600760008a815260200190815260200160002060090190816107df9190612b6b565b5060016006546107ef9190612c6c565b600681905550877f8e55ccfc9778ff8eba1646d765cf1982537ce0f9257054a17b48aad74525018360405160405180910390a25050505050505050565b6108353361143d565b610874576040517f08c379a000000000000000000000000000000000000000000000000000000000815260040161086b906128a4565b60405180910390fd5b816002600781111561088957610888612930565b5b60076000838152602001908152602001600020600b0160009054906101000a900460ff1660078111156108bf576108be612930565b5b146108ff576040517f08c379a00000000000000000000000000000000000000000000000000000000081526004016108f690612d0e565b60405180910390fd5b8160076000858152602001908152602001600020600a0181905550600360076000858152602001908152602001600020600b0160006101000a81548160ff0219169083600781111561095457610953612930565b5b0217905550827fa96ae0fc3224ebd79eebfe54bd130cc9cb94416cddd1f2386115e00b7253246860405160405180910390a2505050565b600460009054906101000a900473ffffffffffffffffffffffffffffffffffffffff1673ffffffffffffffffffffffffffffffffffffffff163373ffffffffffffffffffffffffffffffffffffffff1614610a1b576040517f08c379a0000000000000000000000000000000000000000000000000000000008152600401610a1290612d7a565b60405180910390fd5b600460009054906101000a900473ffffffffffffffffffffffffffffffffffffffff1673ffffffffffffffffffffffffffffffffffffffff16ff5b610a5f3361143d565b610a9e576040517f08c379a0000000000000000000000000000000000000000000000000000000008152600401610a95906128a4565b60405180910390fd5b8060006007811115610ab357610ab2612930565b5b60076000838152602001908152602001600020600b0160009054906101000a900460ff166007811115610ae957610ae8612930565b5b14610b29576040517f08c379a0000000000000000000000000000000000000000000000000000000008152600401610b2090612de6565b60405180910390fd5b600160076000848152602001908152602001600020600b0160006101000a81548160ff02191690836007811115610b6357610b62612930565b5b0217905550817f5afe3b1bf87069693c075da5c22a98d63d1aef98a30dbbe538d0781a98b77ee560405160405180910390a25050565b6000610baf826003611dc590919063ffffffff16565b9050919050565b610bbf33611e8c565b565b610bca33611ee6565b565b600080600060606000806000806000600760008b8152602001908152602001600020600001549850600760008b8152602001908152602001600020600101549750600760008b8152602001908152602001600020600801549650600760008b81526020019081526020016000206009018054610c479061298e565b80601f0160208091040260200160405190810160405280929190818152602001828054610c739061298e565b8015610cc05780601f10610c9557610100808354040283529160200191610cc0565b820191906000526020600020905b815481529060010190602001808311610ca357829003601f168201915b50505050509550600760008b8152602001908152602001600020600a01549450600760008b8152602001908152602001600020600b0160009054906101000a900460ff166007811115610d1657610d15612930565b5b9350600760008b8152602001908152602001600020600b0160019054906101000a900473ffffffffffffffffffffffffffffffffffffffff169250600760008b8152602001908152602001600020600c0160009054906101000a900473ffffffffffffffffffffffffffffffffffffffff169150600760008b8152602001908152602001600020600d0160009054906101000a900473ffffffffffffffffffffffffffffffffffffffff1690509193959799909294969850565b610dd933611233565b610e18576040517f08c379a0000000000000000000000000000000000000000000000000000000008152600401610e0f90612e52565b60405180910390fd5b610e2181611f40565b50565b600080600080606080606080600760008a8152602001908152602001600020600001549750600760008a8152602001908152602001600020600101549650600760008a815260200190815260200160002060020160009054906101000a900473ffffffffffffffffffffffffffffffffffffffff169550600760008a815260200190815260200160002060030160009054906101000a900473ffffffffffffffffffffffffffffffffffffffff169450600760008a81526020019081526020016000206004018054610ef59061298e565b80601f0160208091040260200160405190810160405280929190818152602001828054610f219061298e565b8015610f6e5780601f10610f4357610100808354040283529160200191610f6e565b820191906000526020600020905b815481529060010190602001808311610f5157829003601f168201915b50505050509350600760008a81526020019081526020016000206005018054610f969061298e565b80601f0160208091040260200160405190810160405280929190818152602001828054610fc29061298e565b801561100f5780601f10610fe45761010080835404028352916020019161100f565b820191906000526020600020905b815481529060010190602001808311610ff257829003601f168201915b50505050509250600760008a815260200190815260200160002060060180546110379061298e565b80601f01602080910402602001604051908101604052809291908181526020018280546110639061298e565b80156110b05780601f10611085576101008083540402835291602001916110b0565b820191906000526020600020905b81548152906001019060200180831161109357829003601f168201915b50505050509150600760008a815260200190815260200160002060070180546110d89061298e565b80601f01602080910402602001604051908101604052809291908181526020018280546111049061298e565b80156111515780601f1061112657610100808354040283529160200191611151565b820191906000526020600020905b81548152906001019060200180831161113457829003601f168201915b50505050509050919395975091939597565b61116c3361143d565b6111ab576040517f08c379a00000000000000000000000000000000000000000000000000000000081526004016111a2906128a4565b60405180910390fd5b6111b481611f9a565b50565b6111c033611ff4565b565b60006111d8826000611dc590919063ffffffff16565b9050919050565b6111e833610b99565b611227576040517f08c379a000000000000000000000000000000000000000000000000000000000815260040161121e90612ebe565b60405180910390fd5b6112308161204e565b50565b6000611249826001611dc590919063ffffffff16565b9050919050565b61125933610b99565b611298576040517f08c379a000000000000000000000000000000000000000000000000000000000815260040161128f90612ebe565b60405180910390fd5b80600560078111156112ad576112ac612930565b5b60076000838152602001908152602001600020600b0160009054906101000a900460ff1660078111156112e3576112e2612930565b5b14611323576040517f08c379a000000000000000000000000000000000000000000000000000000000815260040161131a90612f2a565b60405180910390fd5b336007600084815260200190815260200160002060020160006101000a81548173ffffffffffffffffffffffffffffffffffffffff021916908373ffffffffffffffffffffffffffffffffffffffff1602179055503360076000848152602001908152602001600020600c0160006101000a81548173ffffffffffffffffffffffffffffffffffffffff021916908373ffffffffffffffffffffffffffffffffffffffff160217905550600660076000848152602001908152602001600020600b0160006101000a81548160ff0219169083600781111561140757611406612930565b5b0217905550817fa8142743f8f70a4c26f3691cf4ed59718381fb2f18070ec52be1f1022d85555760405160405180910390a25050565b6000611453826002611dc590919063ffffffff16565b9050919050565b611463336111c2565b6114a2576040517f08c379a000000000000000000000000000000000000000000000000000000000815260040161149990612838565b60405180910390fd5b80600660078111156114b7576114b6612930565b5b60076000838152602001908152602001600020600b0160009054906101000a900460ff1660078111156114ed576114ec612930565b5b1461152d576040517f08c379a000000000000000000000000000000000000000000000000000000000815260040161152490612f96565b60405180910390fd5b336007600084815260200190815260200160002060020160006101000a81548173ffffffffffffffffffffffffffffffffffffffff021916908373ffffffffffffffffffffffffffffffffffffffff1602179055503360076000848152602001908152602001600020600d0160006101000a81548173ffffffffffffffffffffffffffffffffffffffff021916908373ffffffffffffffffffffffffffffffffffffffff1602179055506007806000848152602001908152602001600020600b0160006101000a81548160ff021916908360078111156116105761160f612930565b5b0217905550817f653d56639fee6b566a5c804764e9689de38645f0b733df89a36a1b7b42173dd860405160405180910390a25050565b61164f336120a8565b565b61165a33611233565b611699576040517f08c379a000000000000000000000000000000000000000000000000000000000815260040161169090612e52565b60405180910390fd5b80600360078111156116ae576116ad612930565b5b60076000838152602001908152602001600020600b0160009054906101000a900460ff1660078111156116e4576116e3612930565b5b14611724576040517f08c379a000000000000000000000000000000000000000000000000000000000815260040161171b90613002565b60405180910390fd5b60076000838152602001908152602001600020600a01548034101561177e576040517f08c379a00000000000000000000000000000000000000000000000000000000081526004016117759061306e565b60405180910390fd5b8260006007600086815260200190815260200160002060020160009054906101000a900473ffffffffffffffffffffffffffffffffffffffff169050336007600087815260200190815260200160002060020160006101000a81548173ffffffffffffffffffffffffffffffffffffffff021916908373ffffffffffffffffffffffffffffffffffffffff1602179055503360076000878152602001908152602001600020600b0160016101000a81548173ffffffffffffffffffffffffffffffffffffffff021916908373ffffffffffffffffffffffffffffffffffffffff160217905550600460076000878152602001908152602001600020600b0160006101000a81548160ff0219169083600781111561189e5761189d612930565b5b02179055508073ffffffffffffffffffffffffffffffffffffffff166108fc349081150290604051600060405180830381858888f193505050501580156118e9573d6000803e3d6000fd5b50847f92f64ca637d023f354075a4be751b169c1a8a9ccb6d33cdd0cb352054399572760405160405180910390a250600060076000838152602001908152602001600020600a0154905060008134611941919061308e565b9050600060076000858152602001908152602001600020600d0160009054906101000a900473ffffffffffffffffffffffffffffffffffffffff1690508073ffffffffffffffffffffffffffffffffffffffff166108fc839081150290604051600060405180830381858888f193505050501580156119c4573d6000803e3d6000fd5b5050505050505050565b6119d73361143d565b611a16576040517f08c379a0000000000000000000000000000000000000000000000000000000008152600401611a0d906128a4565b60405180910390fd5b8060016007811115611a2b57611a2a612930565b5b60076000838152602001908152602001600020600b0160009054906101000a900460ff166007811115611a6157611a60612930565b5b14611aa1576040517f08c379a0000000000000000000000000000000000000000000000000000000008152600401611a989061310e565b60405180910390fd5b600260076000848152602001908152602001600020600b0160006101000a81548160ff02191690836007811115611adb57611ada612930565b5b0217905550817f9b3b66e2380b690bae22c73ef1428fb0c91e72fe14a4b6defa13035214187aff60405160405180910390a25050565b611b1a33611233565b611b59576040517f08c379a0000000000000000000000000000000000000000000000000000000008152600401611b5090612e52565b60405180910390fd5b8060046007811115611b6e57611b6d612930565b5b60076000838152602001908152602001600020600b0160009054906101000a900460ff166007811115611ba457611ba3612930565b5b14611be4576040517f08c379a0000000000000000000000000000000000000000000000000000000008152600401611bdb9061317a565b60405180910390fd5b600560076000848152602001908152602001600020600b0160006101000a81548160ff02191690836007811115611c1e57611c1d612930565b5b0217905550817ff00b9a5725b80c54016f42114f6ed7792d22eecb116011c4afac29c57bef6c9560405160405180910390a25050565b600073ffffffffffffffffffffffffffffffffffffffff168173ffffffffffffffffffffffffffffffffffffffff1603611cc3576040517f08c379a0000000000000000000000000000000000000000000000000000000008152600401611cba906131e6565b60405180910390fd5b611ccd8282611dc5565b15611d0d576040517f08c379a0000000000000000000000000000000000000000000000000000000008152600401611d0490613252565b60405180910390fd5b60018260000160008373ffffffffffffffffffffffffffffffffffffffff1673ffffffffffffffffffffffffffffffffffffffff16815260200190815260200160002060006101000a81548160ff0219169083151502179055505050565b611d7f816000611c5490919063ffffffff16565b8073ffffffffffffffffffffffffffffffffffffffff167f28b26e7a3d20aedbc5f8f2ebf7da671c0491723a2b78f47a097b0e46dee0714260405160405180910390a250565b60008073ffffffffffffffffffffffffffffffffffffffff168273ffffffffffffffffffffffffffffffffffffffff1603611e35576040517f08c379a0000000000000000000000000000000000000000000000000000000008152600401611e2c906131e6565b60405180910390fd5b8260000160008373ffffffffffffffffffffffffffffffffffffffff1673ffffffffffffffffffffffffffffffffffffffff16815260200190815260200160002060009054906101000a900460ff16905092915050565b611ea081600061210290919063ffffffff16565b8073ffffffffffffffffffffffffffffffffffffffff167fe3f5ed5f263f1f01764a96edfc7d025f511ec5f7d180e8816908b78bcf74f09860405160405180910390a250565b611efa81600161210290919063ffffffff16565b8073ffffffffffffffffffffffffffffffffffffffff167f126174f6cf49c81cdb4a9214c6b8f037bef55b4ec31e4fc776cea2a1c8a88d5960405160405180910390a250565b611f54816001611c5490919063ffffffff16565b8073ffffffffffffffffffffffffffffffffffffffff167fddbf200aa634dc3fb81cfd68583dd1040d1c751d335e1d86b631bde3e977fea860405160405180910390a250565b611fae816002611c5490919063ffffffff16565b8073ffffffffffffffffffffffffffffffffffffffff167f2e0ded4123377a3c2bc9a26f1717655a129e2f20752924d42e730ec89c83dbd060405160405180910390a250565b61200881600261210290919063ffffffff16565b8073ffffffffffffffffffffffffffffffffffffffff167fa5e0f060af304ab17dd418c7927e3da3ae7868189bf387aee09ab179ccc572f260405160405180910390a250565b612062816003611c5490919063ffffffff16565b8073ffffffffffffffffffffffffffffffffffffffff167f71ae26cad02663e3d92efd6ec56031a80d74a20c0ab4183faa8bf262261c9baa60405160405180910390a250565b6120bc81600361210290919063ffffffff16565b8073ffffffffffffffffffffffffffffffffffffffff167fdb7176e79cffef81cb01767dd0447a0b24bb72ca9778d4b245581086b2a7e6db60405160405180910390a250565b600073ffffffffffffffffffffffffffffffffffffffff168173ffffffffffffffffffffffffffffffffffffffff1603612171576040517f08c379a0000000000000000000000000000000000000000000000000000000008152600401612168906131e6565b60405180910390fd5b61217b8282611dc5565b6121ba576040517f08c379a00000000000000000000000000000000000000000000000000000000081526004016121b1906132be565b60405180910390fd5b60008260000160008373ffffffffffffffffffffffffffffffffffffffff1673ffffffffffffffffffffffffffffffffffffffff16815260200190815260200160002060006101000a81548160ff0219169083151502179055505050565b6000604051905090565b600080fd5b600080fd5b600073ffffffffffffffffffffffffffffffffffffffff82169050919050565b60006122578261222c565b9050919050565b6122678161224c565b811461227257600080fd5b50565b6000813590506122848161225e565b92915050565b6000602082840312156122a05761229f612222565b5b60006122ae84828501612275565b91505092915050565b6000819050919050565b6122ca816122b7565b81146122d557600080fd5b50565b6000813590506122e7816122c1565b92915050565b600080fd5b600080fd5b6000601f19601f8301169050919050565b7f4e487b7100000000000000000000000000000000000000000000000000000000600052604160045260246000fd5b612340826122f7565b810181811067ffffffffffffffff8211171561235f5761235e612308565b5b80604052505050565b6000612372612218565b905061237e8282612337565b919050565b600067ffffffffffffffff82111561239e5761239d612308565b5b6123a7826122f7565b9050602081019050919050565b82818337600083830152505050565b60006123d66123d184612383565b612368565b9050828152602081018484840111156123f2576123f16122f2565b5b6123fd8482856123b4565b509392505050565b600082601f83011261241a576124196122ed565b5b813561242a8482602086016123c3565b91505092915050565b600080600080600080600080610100898b03121561245457612453612222565b5b60006124628b828c016122d8565b98505060206124738b828c01612275565b97505060406124848b828c01612275565b965050606089013567ffffffffffffffff8111156124a5576124a4612227565b5b6124b18b828c01612405565b955050608089013567ffffffffffffffff8111156124d2576124d1612227565b5b6124de8b828c01612405565b94505060a089013567ffffffffffffffff8111156124ff576124fe612227565b5b61250b8b828c01612405565b93505060c089013567ffffffffffffffff81111561252c5761252b612227565b5b6125388b828c01612405565b92505060e089013567ffffffffffffffff81111561255957612558612227565b5b6125658b828c01612405565b9150509295985092959890939650565b6000806040838503121561258c5761258b612222565b5b600061259a858286016122d8565b92505060206125ab858286016122d8565b9150509250929050565b6000602082840312156125cb576125ca612222565b5b60006125d9848285016122d8565b91505092915050565b60008115159050919050565b6125f7816125e2565b82525050565b600060208201905061261260008301846125ee565b92915050565b612621816122b7565b82525050565b600081519050919050565b600082825260208201905092915050565b60005b83811015612661578082015181840152602081019050612646565b83811115612670576000848401525b50505050565b600061268182612627565b61268b8185612632565b935061269b818560208601612643565b6126a4816122f7565b840191505092915050565b6126b88161224c565b82525050565b6000610120820190506126d4600083018c612618565b6126e1602083018b612618565b6126ee604083018a612618565b81810360608301526127008189612676565b905061270f6080830188612618565b61271c60a0830187612618565b61272960c08301866126af565b61273660e08301856126af565b6127446101008301846126af565b9a9950505050505050505050565b600061010082019050612768600083018b612618565b612775602083018a612618565b61278260408301896126af565b61278f60608301886126af565b81810360808301526127a18187612676565b905081810360a08301526127b58186612676565b905081810360c08301526127c98185612676565b905081810360e08301526127dd8184612676565b90509998505050505050505050565b7f4163636f756e742073686f756c6420626520436f6e73756d6572000000000000600082015250565b6000612822601a83612632565b915061282d826127ec565b602082019050919050565b6000602082019050818103600083015261285181612815565b9050919050565b7f4163636f756e742073686f756c64206265204661726d65720000000000000000600082015250565b600061288e601883612632565b915061289982612858565b602082019050919050565b600060208201905081810360008301526128bd81612881565b9050919050565b7f4974656d20736b75206e65656420746f20626520300000000000000000000000600082015250565b60006128fa601583612632565b9150612905826128c4565b602082019050919050565b60006020820190508181036000830152612929816128ed565b9050919050565b7f4e487b7100000000000000000000000000000000000000000000000000000000600052602160045260246000fd5b7f4e487b7100000000000000000000000000000000000000000000000000000000600052602260045260246000fd5b600060028204905060018216806129a657607f821691505b6020821081036129b9576129b861295f565b5b50919050565b60008190508160005260206000209050919050565b60006020601f8301049050919050565b600082821b905092915050565b600060088302612a217fffffffffffffffffffffffffffffffffffffffffffffffffffffffffffffffff826129e4565b612a2b86836129e4565b95508019841693508086168417925050509392505050565b6000819050919050565b6000612a68612a63612a5e846122b7565b612a43565b6122b7565b9050919050565b6000819050919050565b612a8283612a4d565b612a96612a8e82612a6f565b8484546129f1565b825550505050565b600090565b612aab612a9e565b612ab6818484612a79565b505050565b5b81811015612ada57612acf600082612aa3565b600181019050612abc565b5050565b601f821115612b1f57612af0816129bf565b612af9846129d4565b81016020851015612b08578190505b612b1c612b14856129d4565b830182612abb565b50505b505050565b600082821c905092915050565b6000612b4260001984600802612b24565b1980831691505092915050565b6000612b5b8383612b31565b9150826002028217905092915050565b612b7482612627565b67ffffffffffffffff811115612b8d57612b8c612308565b5b612b97825461298e565b612ba2828285612ade565b600060209050601f831160018114612bd55760008415612bc3578287015190505b612bcd8582612b4f565b865550612c35565b601f198416612be3866129bf565b60005b82811015612c0b57848901518255600182019150602085019450602081019050612be6565b86831015612c285784890151612c24601f891682612b31565b8355505b6001600288020188555050505b505050505050565b7f4e487b7100000000000000000000000000000000000000000000000000000000600052601160045260246000fd5b6000612c77826122b7565b9150612c82836122b7565b9250827fffffffffffffffffffffffffffffffffffffffffffffffffffffffffffffffff03821115612cb757612cb6612c3d565b5b828201905092915050565b7f4974656d2073746174652073686f756c64206265205061636b65640000000000600082015250565b6000612cf8601b83612632565b9150612d0382612cc2565b602082019050919050565b60006020820190508181036000830152612d2781612ceb565b9050919050565b7f4f6e6c79206f776e657200000000000000000000000000000000000000000000600082015250565b6000612d64600a83612632565b9150612d6f82612d2e565b602082019050919050565b60006020820190508181036000830152612d9381612d57565b9050919050565b7f4974656d2073746174652073686f756c64206265204861727665737465640000600082015250565b6000612dd0601e83612632565b9150612ddb82612d9a565b602082019050919050565b60006020820190508181036000830152612dff81612dc3565b9050919050565b7f4163636f756e742073686f756c64206265204469737472696275746f72000000600082015250565b6000612e3c601d83612632565b9150612e4782612e06565b602082019050919050565b60006020820190508181036000830152612e6b81612e2f565b9050919050565b7f4163636f756e742073686f756c642062652052657461696c6572000000000000600082015250565b6000612ea8601a83612632565b9150612eb382612e72565b602082019050919050565b60006020820190508181036000830152612ed781612e9b565b9050919050565b7f4974656d2073746174652073686f756c64206265205368697070656400000000600082015250565b6000612f14601c83612632565b9150612f1f82612ede565b602082019050919050565b60006020820190508181036000830152612f4381612f07565b9050919050565b7f4974656d2073746174652073686f756c64206265205265636569766564000000600082015250565b6000612f80601d83612632565b9150612f8b82612f4a565b602082019050919050565b60006020820190508181036000830152612faf81612f73565b9050919050565b7f4974656d2073746174652073686f756c6420626520466f722053616c65000000600082015250565b6000612fec601d83612632565b9150612ff782612fb6565b602082019050919050565b6000602082019050818103600083015261301b81612fdf565b9050919050565b7f5665726966792069662074686520707269636520697320656e6f756768000000600082015250565b6000613058601d83612632565b915061306382613022565b602082019050919050565b600060208201905081810360008301526130878161304b565b9050919050565b6000613099826122b7565b91506130a4836122b7565b9250828210156130b7576130b6612c3d565b5b828203905092915050565b7f4974656d2073746174652073686f756c642062652050726f6365737365640000600082015250565b60006130f8601e83612632565b9150613103826130c2565b602082019050919050565b60006020820190508181036000830152613127816130eb565b9050919050565b7f4974656d2073746174652073686f756c6420626520536f6c6400000000000000600082015250565b6000613164601983612632565b915061316f8261312e565b602082019050919050565b6000602082019050818103600083015261319381613157565b9050919050565b7f4163636f756e742073686f75646e742062652030000000000000000000000000600082015250565b60006131d0601483612632565b91506131db8261319a565b602082019050919050565b600060208201905081810360008301526131ff816131c3565b9050919050565b7f4163636f756e742073686f756c64206e6f7420686176652074686520726f6c65600082015250565b600061323c602083612632565b915061324782613206565b602082019050919050565b6000602082019050818103600083015261326b8161322f565b9050919050565b7f4163636f756e742073686f756c6420686176652074686520726f6c6500000000600082015250565b60006132a8601c83612632565b91506132b382613272565b602082019050919050565b600060208201905081810360008301526132d78161329b565b905091905056fea264697066735822122018243ef7995ad08a24002b4463e9cfa7f96732941e0270933e8210809727ef9164736f6c634300080f0033",
  "immutableReferences": {},
  "source": "// SPDX-License-Identifier: MIT\npragma solidity ^0.8.15;\n\nimport \"../coffeeAccessControl/ConsumerRole.sol\";\nimport \"../coffeeAccessControl/DistributorRole.sol\";\nimport \"../coffeeAccessControl/FarmerRole.sol\";\nimport \"../coffeeAccessControl/RetailerRole.sol\";\n\n// Define a contract 'Supplychain'\ncontract SupplyChain is\n    ConsumerRole,\n    DistributorRole,\n    FarmerRole,\n    RetailerRole\n{\n    // Define 'owner'\n    address owner;\n\n    // Define a variable called 'upc' for Universal Product Code (UPC)\n    uint256 upc;\n\n    // Define a variable called 'sku' for Stock Keeping Unit (SKU)\n    uint256 sku;\n\n    // Define a public mapping 'items' that maps the UPC to an Item.\n    mapping(uint256 => Item) items;\n\n    // Define a public mapping 'itemsHistory' that maps the UPC to an array of TxHash,\n    // that track its journey through the supply chain -- to be sent from DApp.\n    mapping(uint256 => string[]) itemsHistory;\n\n    // Define enum 'State' with the following values:\n    enum State {\n        Harvested, // 0\n        Processed, // 1\n        Packed, // 2\n        ForSale, // 3\n        Sold, // 4\n        Shipped, // 5\n        Received, // 6\n        Purchased // 7\n    }\n\n    State constant defaultState = State.Harvested;\n\n    // Define a struct 'Item' with the following fields:\n    struct Item {\n        uint256 sku; // Stock Keeping Unit (SKU)\n        uint256 upc; // Universal Product Code (UPC), generated by the Farmer, goes on the package, can be verified by the Consumer\n        address ownerID; // Metamask-Ethereum address of the current owner as the product moves through 8 stages\n        address originFarmerID; // Metamask-Ethereum address of the Farmer\n        string originFarmName; // Farmer Name\n        string originFarmInformation; // Farmer Information\n        string originFarmLatitude; // Farm Latitude\n        string originFarmLongitude; // Farm Longitude\n        uint256 productID; // Product ID potentially a combination of upc + sku\n        string productNotes; // Product Notes\n        uint256 productPrice; // Product Price\n        State itemState; // Product State as represented in the enum above\n        address distributorID; // Metamask-Ethereum address of the Distributor\n        address retailerID; // Metamask-Ethereum address of the Retailer\n        address consumerID; // Metamask-Ethereum address of the Consumer\n    }\n\n    // Define 8 events with the same 8 state values and accept 'upc' as input argument\n    event Harvested(uint256 indexed upc);\n    event Processed(uint256 indexed upc);\n    event Packed(uint256 indexed upc);\n    event ForSale(uint256 indexed upc);\n    event Sold(uint256 indexed upc);\n    event Shipped(uint256 indexed upc);\n    event Received(uint256 indexed upc);\n    event Purchased(uint256 indexed upc);\n\n    // Define a modifer that checks to see if msg.sender == owner of the contract\n    modifier onlyOwner() virtual {\n        require(msg.sender == owner, \"Only owner\");\n        _;\n    }\n\n    // Define a modifer that verifies the Caller\n    modifier verifyCaller(address _address) {\n        require(msg.sender == _address, \"Address should be sent\");\n        _;\n    }\n\n    // Define a modifier that checks if the paid amount is sufficient to cover the price\n    modifier paidEnough(uint256 _price) {\n        require(msg.value >= _price, \"Verify if the price is enough\");\n        _;\n    }\n\n    // Define a modifier that checks the price and refunds the remaining balance\n    modifier checkValue(uint256 _upc) {\n        _;\n        uint256 _price = items[_upc].productPrice;\n        uint256 amountToReturn = msg.value - _price;\n        address payable consumerID = payable(items[_upc].consumerID);\n        consumerID.transfer(amountToReturn);\n    }\n\n    // Define a modifier that checks if an item.state of a upc is Harvested\n    modifier harvested(uint256 _upc) {\n        require(\n            items[_upc].itemState == State.Harvested,\n            \"Item state should be Harvested\"\n        );\n        _;\n    }\n\n    // Define a modifier that checks if an item.state of a upc is Processed\n    modifier processed(uint256 _upc) {\n        require(\n            items[_upc].itemState == State.Processed,\n            \"Item state should be Processed\"\n        );\n        _;\n    }\n\n    // Define a modifier that checks if an item.state of a upc is Packed\n    modifier packed(uint256 _upc) {\n        require(\n            items[_upc].itemState == State.Packed,\n            \"Item state should be Packed\"\n        );\n        _;\n    }\n\n    // Define a modifier that checks if an item.state of a upc is ForSale\n    modifier forSale(uint256 _upc) {\n        require(\n            items[_upc].itemState == State.ForSale,\n            \"Item state should be For Sale\"\n        );\n        _;\n    }\n\n    // Define a modifier that checks if an item.state of a upc is Sold\n    modifier sold(uint256 _upc) {\n        require(\n            items[_upc].itemState == State.Sold,\n            \"Item state should be Sold\"\n        );\n        _;\n    }\n\n    // Define a modifier that checks if an item.state of a upc is Shipped\n    modifier shipped(uint256 _upc) {\n        require(\n            items[_upc].itemState == State.Shipped,\n            \"Item state should be Shipped\"\n        );\n        _;\n    }\n\n    // Define a modifier that checks if an item.state of a upc is Received\n    modifier received(uint256 _upc) {\n        require(\n            items[_upc].itemState == State.Received,\n            \"Item state should be Received\"\n        );\n        _;\n    }\n\n    // Define a modifier that checks if an item.state of a upc is Purchased\n    modifier purchased(uint256 _upc) {\n        require(\n            items[_upc].itemState == State.Purchased,\n            \"Item state should be Purchased\"\n        );\n        _;\n    }\n\n    // In the constructor set 'owner' to the address that instantiated the contract\n    // and set 'sku' to 1\n    // and set 'upc' to 1\n    constructor() payable {\n        owner = msg.sender;\n        sku = 1;\n        upc = 1;\n    }\n\n    // Define a function 'kill' if required\n    function kill() public onlyOwner {\n        selfdestruct(payable(owner));\n    }\n\n    // Define a function 'harvestItem' that allows a farmer to mark an item 'Harvested'\n    function harvestItem(\n        uint256 _upc,\n        address _ownerID,\n        address _originFarmerID,\n        string memory _originFarmName,\n        string memory _originFarmInformation,\n        string memory _originFarmLatitude,\n        string memory _originFarmLongitude,\n        string memory _productNotes\n    ) public onlyFarmer {\n        require(items[_upc].sku == 0, \"Item sku need to be 0\");\n\n        // Add the new item as part of Harvest\n        items[_upc].sku = sku;\n        items[_upc].upc = upc;\n        items[_upc].ownerID = _ownerID;\n        items[_upc].itemState = defaultState;\n        items[_upc].originFarmerID = _originFarmerID;\n        items[_upc].originFarmName = _originFarmName;\n        items[_upc].originFarmInformation = _originFarmInformation;\n        items[_upc].originFarmLatitude = _originFarmLatitude;\n        items[_upc].originFarmLongitude = _originFarmLongitude;\n        items[_upc].productNotes = _productNotes;\n\n        // Increment sku\n        sku = sku + 1;\n        emit Harvested(_upc);\n    }\n\n    // Define a function 'processtItem' that allows a farmer to mark an item 'Processed'\n    function processItem(uint256 _upc) public onlyFarmer harvested(_upc) {\n        items[_upc].itemState = State.Processed;\n        emit Processed(_upc);\n    }\n\n    // Define a function 'packItem' that allows a farmer to mark an item 'Packed'\n    function packItem(uint256 _upc) public onlyFarmer processed(_upc) {\n        items[_upc].itemState = State.Packed;\n        emit Packed(_upc);\n    }\n\n    // Define a function 'sellItem' that allows a farmer to mark an item 'ForSale'\n    function sellItem(uint256 _upc, uint256 _price)\n        public\n        onlyFarmer\n        packed(_upc)\n    {\n        items[_upc].productPrice = _price;\n        items[_upc].itemState = State.ForSale;\n        emit ForSale(_upc);\n    }\n\n    // Define a function 'buyItem' that allows the disributor to mark an item 'Sold'\n    // Use the above defined modifiers to check if the item is available for sale, if the buyer has paid enough,\n    // and any excess ether sent is refunded back to the buyer\n    function buyItem(uint256 _upc)\n        public\n        payable\n        onlyDistributor\n        forSale(_upc)\n        paidEnough(items[_upc].productPrice)\n        checkValue(_upc)\n    {\n        address payable farmer = payable(items[_upc].ownerID);\n\n        items[_upc].ownerID = msg.sender;\n        items[_upc].distributorID = msg.sender;\n        items[_upc].itemState = State.Sold;\n\n        farmer.transfer(msg.value);\n        emit Sold(_upc);\n    }\n\n    // Define a function 'shipItem' that allows the distributor to mark an item 'Shipped'\n    // Use the above modifers to check if the item is sold\n    function shipItem(uint256 _upc) public onlyDistributor sold(_upc) {\n        items[_upc].itemState = State.Shipped;\n        emit Shipped(_upc);\n    }\n\n    // Define a function 'receiveItem' that allows the retailer to mark an item 'Received'\n    // Use the above modifiers to check if the item is shipped\n    function receiveItem(uint256 _upc) public onlyRetailer shipped(_upc) {\n        items[_upc].ownerID = msg.sender;\n        items[_upc].retailerID = msg.sender;\n        items[_upc].itemState = State.Received;\n        emit Received(_upc);\n    }\n\n    // Define a function 'purchaseItem' that allows the consumer to mark an item 'Purchased'\n    // Use the above modifiers to check if the item is received\n    function purchaseItem(uint256 _upc) public onlyConsumer received(_upc) {\n        items[_upc].ownerID = msg.sender;\n        items[_upc].consumerID = msg.sender;\n        items[_upc].itemState = State.Purchased;\n        emit Purchased(_upc);\n    }\n\n    // Define a function 'fetchItemBufferOne' that fetches the data\n    function fetchItemBufferOne(uint256 _upc)\n        public\n        view\n        returns (\n            uint256 itemSKU,\n            uint256 itemUPC,\n            address ownerID,\n            address originFarmerID,\n            string memory originFarmName,\n            string memory originFarmInformation,\n            string memory originFarmLatitude,\n            string memory originFarmLongitude\n        )\n    {\n        itemSKU = items[_upc].sku;\n        itemUPC = items[_upc].upc;\n        ownerID = items[_upc].ownerID;\n        originFarmerID = items[_upc].originFarmerID;\n        originFarmName = items[_upc].originFarmName;\n        originFarmInformation = items[_upc].originFarmInformation;\n        originFarmLatitude = items[_upc].originFarmLatitude;\n        originFarmLongitude = items[_upc].originFarmLongitude;\n\n        return (\n            itemSKU,\n            itemUPC,\n            ownerID,\n            originFarmerID,\n            originFarmName,\n            originFarmInformation,\n            originFarmLatitude,\n            originFarmLongitude\n        );\n    }\n\n    // Define a function 'fetchItemBufferTwo' that fetches the data\n    function fetchItemBufferTwo(uint256 _upc)\n        public\n        view\n        returns (\n            uint256 itemSKU,\n            uint256 itemUPC,\n            uint256 productID,\n            string memory productNotes,\n            uint256 productPrice,\n            uint256 itemState,\n            address distributorID,\n            address retailerID,\n            address consumerID\n        )\n    {\n        itemSKU = items[_upc].sku;\n        itemUPC = items[_upc].upc;\n        productID = items[_upc].productID;\n        productNotes = items[_upc].productNotes;\n        productPrice = items[_upc].productPrice;\n        itemState = uint256(items[_upc].itemState);\n        distributorID = items[_upc].distributorID;\n        retailerID = items[_upc].retailerID;\n        consumerID = items[_upc].consumerID;\n\n        return (\n            itemSKU,\n            itemUPC,\n            productID,\n            productNotes,\n            productPrice,\n            itemState,\n            distributorID,\n            retailerID,\n            consumerID\n        );\n    }\n}\n",
  "sourcePath": "/home/rafamessias/Documents/udacity/Ethereum/dapp-sc-project/truffle/contracts/coffeeBase/SupplyChain.sol",
  "compiler": {
    "name": "solc",
    "version": "0.8.15+commit.e14f2714.Emscripten.clang"
  },
  "schemaVersion": "3.4.8",
  "updatedAt": "2022-08-23T12:16:08.735Z",
  "devdoc": {
    "kind": "dev",
    "methods": {},
    "version": 1
  },
  "userdoc": {
    "kind": "user",
    "methods": {},
    "version": 1
  }
}